{
  "contractName": "MedicalRecords",
  "abi": [
    {
      "inputs": [
        {
          "internalType": "contract Users",
          "name": "usersAddress",
          "type": "address"
        }
      ],
      "payable": false,
      "stateMutability": "nonpayable",
      "type": "constructor"
    },
    {
      "anonymous": false,
      "inputs": [
        {
          "indexed": false,
          "internalType": "uint256",
          "name": "medicalRecordId",
          "type": "uint256"
        }
      ],
      "name": "createdMedicalRecord",
      "type": "event"
    },
    {
      "anonymous": false,
      "inputs": [
        {
          "indexed": false,
          "internalType": "uint256",
          "name": "medicalRecordId",
          "type": "uint256"
        }
      ],
      "name": "doctorReported",
      "type": "event"
    },
    {
      "anonymous": false,
      "inputs": [
        {
          "indexed": false,
          "internalType": "uint256",
          "name": "medicalRecordId",
          "type": "uint256"
        }
      ],
      "name": "doctorVerified",
      "type": "event"
    },
    {
      "anonymous": false,
      "inputs": [
        {
          "indexed": false,
          "internalType": "uint256",
          "name": "medicalRecordId",
          "type": "uint256"
        }
      ],
      "name": "fraudulentReport",
      "type": "event"
    },
    {
      "anonymous": false,
      "inputs": [
        {
          "indexed": false,
          "internalType": "uint256",
          "name": "medicalRecordId",
          "type": "uint256"
        }
      ],
      "name": "patientReported",
      "type": "event"
    },
    {
      "anonymous": false,
      "inputs": [
        {
          "indexed": false,
          "internalType": "uint256",
          "name": "medicalRecordId",
          "type": "uint256"
        }
      ],
      "name": "patientVerified",
      "type": "event"
    },
    {
      "anonymous": false,
      "inputs": [
        {
          "indexed": false,
          "internalType": "uint256",
          "name": "MedicalRecordId",
          "type": "uint256"
        }
      ],
      "name": "randomFlaggedReport",
      "type": "event"
    },
    {
      "anonymous": false,
      "inputs": [
        {
          "indexed": false,
          "internalType": "uint256",
          "name": "medicalRecordId",
          "type": "uint256"
        }
      ],
      "name": "wronglyAccusedReport",
      "type": "event"
    },
    {
      "constant": true,
      "inputs": [
        {
          "internalType": "uint256",
          "name": "",
          "type": "uint256"
        }
      ],
      "name": "badRecords",
      "outputs": [
        {
          "internalType": "uint256",
          "name": "patient",
          "type": "uint256"
        },
        {
          "internalType": "bytes32",
          "name": "details",
          "type": "bytes32"
        },
        {
          "internalType": "uint256",
          "name": "doctorInCharge",
          "type": "uint256"
        },
        {
          "internalType": "bool",
          "name": "patientVerified",
          "type": "bool"
        },
        {
          "internalType": "bool",
          "name": "doctorVerified",
          "type": "bool"
        }
      ],
      "payable": false,
      "stateMutability": "view",
      "type": "function"
    },
    {
      "constant": true,
      "inputs": [
        {
          "internalType": "uint256",
          "name": "",
          "type": "uint256"
        },
        {
          "internalType": "uint256",
          "name": "",
          "type": "uint256"
        }
      ],
      "name": "doctorVerifications",
      "outputs": [
        {
          "internalType": "uint256",
          "name": "",
          "type": "uint256"
        }
      ],
      "payable": false,
      "stateMutability": "view",
      "type": "function"
    },
    {
      "constant": true,
      "inputs": [
        {
          "internalType": "uint256",
          "name": "",
          "type": "uint256"
        }
      ],
      "name": "flaggedRecords",
      "outputs": [
        {
          "internalType": "uint256",
          "name": "patient",
          "type": "uint256"
        },
        {
          "internalType": "bytes32",
          "name": "details",
          "type": "bytes32"
        },
        {
          "internalType": "uint256",
          "name": "doctorInCharge",
          "type": "uint256"
        },
        {
          "internalType": "bool",
          "name": "patientVerified",
          "type": "bool"
        },
        {
          "internalType": "bool",
          "name": "doctorVerified",
          "type": "bool"
        }
      ],
      "payable": false,
      "stateMutability": "view",
      "type": "function"
    },
    {
      "constant": true,
      "inputs": [
        {
          "internalType": "uint256",
          "name": "",
          "type": "uint256"
        }
      ],
      "name": "isFlaggedRecords",
      "outputs": [
        {
          "internalType": "bool",
          "name": "",
          "type": "bool"
        }
      ],
      "payable": false,
      "stateMutability": "view",
      "type": "function"
    },
    {
      "constant": true,
      "inputs": [
        {
          "internalType": "uint256",
          "name": "",
          "type": "uint256"
        }
      ],
      "name": "medicalRecords",
      "outputs": [
        {
          "internalType": "uint256",
          "name": "patient",
          "type": "uint256"
        },
        {
          "internalType": "bytes32",
          "name": "details",
          "type": "bytes32"
        },
        {
          "internalType": "uint256",
          "name": "doctorInCharge",
          "type": "uint256"
        },
        {
          "internalType": "bool",
          "name": "patientVerified",
          "type": "bool"
        },
        {
          "internalType": "bool",
          "name": "doctorVerified",
          "type": "bool"
        }
      ],
      "payable": false,
      "stateMutability": "view",
      "type": "function"
    },
    {
      "constant": true,
      "inputs": [],
      "name": "numMedicalRecords",
      "outputs": [
        {
          "internalType": "uint256",
          "name": "",
          "type": "uint256"
        }
      ],
      "payable": false,
      "stateMutability": "view",
      "type": "function"
    },
    {
      "constant": false,
      "inputs": [
        {
          "internalType": "uint256",
          "name": "patientId",
          "type": "uint256"
        },
        {
          "internalType": "uint256",
          "name": "doctorId",
          "type": "uint256"
        },
        {
          "internalType": "bytes32",
          "name": "details",
          "type": "bytes32"
        }
      ],
      "name": "createRecord",
      "outputs": [
        {
          "internalType": "uint256",
          "name": "",
          "type": "uint256"
        }
      ],
      "payable": false,
      "stateMutability": "nonpayable",
      "type": "function"
    },
    {
      "constant": true,
      "inputs": [
        {
          "internalType": "uint256",
          "name": "medicalRecordId",
          "type": "uint256"
        }
      ],
      "name": "viewRecord",
      "outputs": [
        {
          "internalType": "uint256",
          "name": "",
          "type": "uint256"
        },
        {
          "internalType": "bytes32",
          "name": "",
          "type": "bytes32"
        },
        {
          "internalType": "uint256",
          "name": "",
          "type": "uint256"
        },
        {
          "internalType": "bool",
          "name": "",
          "type": "bool"
        },
        {
          "internalType": "bool",
          "name": "",
          "type": "bool"
        }
      ],
      "payable": false,
      "stateMutability": "view",
      "type": "function"
    },
    {
      "constant": false,
      "inputs": [
        {
          "internalType": "uint256",
          "name": "medicalRecordId",
          "type": "uint256"
        }
      ],
      "name": "patientVerify",
      "outputs": [],
      "payable": false,
      "stateMutability": "nonpayable",
      "type": "function"
    },
    {
      "constant": false,
      "inputs": [
        {
          "internalType": "uint256",
          "name": "medicalRecordId",
          "type": "uint256"
        }
      ],
      "name": "doctorVerify",
      "outputs": [],
      "payable": false,
      "stateMutability": "nonpayable",
      "type": "function"
    },
    {
      "constant": false,
      "inputs": [
        {
          "internalType": "uint256",
          "name": "medicalRecordId",
          "type": "uint256"
        }
      ],
      "name": "patientReport",
      "outputs": [],
      "payable": false,
      "stateMutability": "nonpayable",
      "type": "function"
    },
    {
      "constant": false,
      "inputs": [
        {
          "internalType": "uint256",
          "name": "medicalRecordId",
          "type": "uint256"
        }
      ],
      "name": "doctorReport",
      "outputs": [],
      "payable": false,
      "stateMutability": "nonpayable",
      "type": "function"
    },
    {
      "constant": false,
      "inputs": [
        {
          "internalType": "uint256",
          "name": "medicalRecordId",
          "type": "uint256"
        },
        {
          "internalType": "uint256",
          "name": "score",
          "type": "uint256"
        }
      ],
      "name": "punish",
      "outputs": [],
      "payable": false,
      "stateMutability": "nonpayable",
      "type": "function"
    },
    {
      "constant": false,
      "inputs": [
        {
          "internalType": "uint256",
          "name": "medicalRecordId",
          "type": "uint256"
        }
      ],
      "name": "waive",
      "outputs": [],
      "payable": false,
      "stateMutability": "nonpayable",
      "type": "function"
    }
  ],
  "bytecode": "0x6080604052600060015534801561001557600080fd5b50604051612e47380380612e478339818101604052602081101561003857600080fd5b8101908080519060200190929190505050806000806101000a81548173ffffffffffffffffffffffffffffffffffffffff021916908373ffffffffffffffffffffffffffffffffffffffff16021790555050612dae806100996000396000f3fe608060405234801561001057600080fd5b50600436106100ea5760003560e01c80637564a13c1161008c578063b047574911610066578063b0475749146103cb578063d70080cc146103f9578063db6e1b0614610431578063e35a77ba1461045f576100ea565b80637564a13c146102b95780638acd4e9f1461031f578063a8a3b1c114610365576100ea565b8063411dc350116100c8578063411dc350146101d957806360e0c49c146101f757806364b5a925146102255780636b82d1741461028b576100ea565b80630e7a104d146100ef57806312ef586f146101555780632c5f62ee14610183575b600080fd5b61011b6004803603602081101561010557600080fd5b81019080803590602001909291905050506104ab565b6040518086815260200185815260200184815260200183151515158152602001821515151581526020019550505050505060405180910390f35b6101816004803603602081101561016b57600080fd5b81019080803590602001909291905050506104fb565b005b6101c36004803603606081101561019957600080fd5b8101908080359060200190929190803590602001909291908035906020019092919050505061074a565b6040518082815260200191505060405180910390f35b6101e1610d59565b6040518082815260200191505060405180910390f35b6102236004803603602081101561020d57600080fd5b8101908080359060200190929190505050610d5f565b005b6102516004803603602081101561023b57600080fd5b8101908080359060200190929190505050611044565b6040518086815260200185815260200184815260200183151515158152602001821515151581526020019550505050505060405180910390f35b6102b7600480360360208110156102a157600080fd5b810190808035906020019092919050505061178f565b005b6102e5600480360360208110156102cf57600080fd5b8101908080359060200190929190505050611cc6565b6040518086815260200185815260200184815260200183151515158152602001821515151581526020019550505050505060405180910390f35b61034b6004803603602081101561033557600080fd5b8101908080359060200190929190505050611d16565b604051808215151515815260200191505060405180910390f35b6103916004803603602081101561037b57600080fd5b8101908080359060200190929190505050611d36565b6040518086815260200185815260200184815260200183151515158152602001821515151581526020019550505050505060405180910390f35b6103f7600480360360208110156103e157600080fd5b8101908080359060200190929190505050611d86565b005b61042f6004803603604081101561040f57600080fd5b810190808035906020019092919080359060200190929190505050611f37565b005b61045d6004803603602081101561044757600080fd5b8101908080359060200190929190505050612478565b005b6104956004803603604081101561047557600080fd5b810190808035906020019092919080359060200190929190505050612be1565b6040518082815260200191505060405180910390f35b60056020528060005260406000206000915090508060000154908060010154908060020154908060030160009054906101000a900460ff16908060030160019054906101000a900460ff16905085565b803373ffffffffffffffffffffffffffffffffffffffff166000809054906101000a900473ffffffffffffffffffffffffffffffffffffffff1673ffffffffffffffffffffffffffffffffffffffff1663097ee8cd60026000858152602001908152602001600020600001546040518263ffffffff1660e01b81526004018082815260200191505060206040518083038186803b15801561059b57600080fd5b505afa1580156105af573d6000803e3d6000fd5b505050506040513d60208110156105c557600080fd5b810190808051906020019092919050505073ffffffffffffffffffffffffffffffffffffffff1614610642576040517f08c379a000000000000000000000000000000000000000000000000000000000815260040180806020018281038252602f815260200180612d1c602f913960400191505060405180910390fd5b60026000838152602001908152602001600020600360008481526020019081526020016000206000820154816000015560018201548160010155600282015481600201556003820160009054906101000a900460ff168160030160006101000a81548160ff0219169083151502179055506003820160019054906101000a900460ff168160030160016101000a81548160ff02191690831515021790555090505060016004600084815260200190815260200160002060006101000a81548160ff0219169083151502179055507faa9d7bf55980aee56d42c9874be884d5c7500b2656ef75fc2a2bb76aac1a4815826040518082815260200191505060405180910390a15050565b600083600115156000809054906101000a900473ffffffffffffffffffffffffffffffffffffffff1673ffffffffffffffffffffffffffffffffffffffff16639f7af8c5836040518263ffffffff1660e01b81526004018082815260200191505060206040518083038186803b1580156107c357600080fd5b505afa1580156107d7573d6000803e3d6000fd5b505050506040513d60208110156107ed57600080fd5b8101908080519060200190929190505050151514610873576040517f08c379a00000000000000000000000000000000000000000000000000000000081526004018080602001828103825260178152602001807f4e6f20737563682070617469656e74206578697374732e00000000000000000081525060200191505060405180910390fd5b83600115156000809054906101000a900473ffffffffffffffffffffffffffffffffffffffff1673ffffffffffffffffffffffffffffffffffffffff166396eeaf76836040518263ffffffff1660e01b81526004018082815260200191505060206040518083038186803b1580156108ea57600080fd5b505afa1580156108fe573d6000803e3d6000fd5b505050506040513d602081101561091457600080fd5b810190808051906020019092919050505015151461099a576040517f08c379a00000000000000000000000000000000000000000000000000000000081526004018080602001828103825260168152602001807f4e6f207375636820646f63746f72206578697374732e0000000000000000000081525060200191505060405180910390fd5b846000809054906101000a900473ffffffffffffffffffffffffffffffffffffffff1673ffffffffffffffffffffffffffffffffffffffff16634752f9ef826040518263ffffffff1660e01b81526004018082815260200191505060206040518083038186803b158015610a0d57600080fd5b505afa158015610a21573d6000803e3d6000fd5b505050506040513d6020811015610a3757600080fd5b8101908080519060200190929190505050610a9d576040517f08c379a0000000000000000000000000000000000000000000000000000000008152600401808060200182810382526028815260200180612c3d6028913960400191505060405180910390fd5b610aa5612c06565b6040518060a00160405280898152602001878152602001888152602001600015158152602001600015158152509050600060016000815480929190600101919050559050816002600083815260200190815260200160002060008201518160000155602082015181600101556040820151816002015560608201518160030160006101000a81548160ff02191690831515021790555060808201518160030160016101000a81548160ff0219169083151502179055509050506000809054906101000a900473ffffffffffffffffffffffffffffffffffffffff1673ffffffffffffffffffffffffffffffffffffffff1663d8a4ae0a8a6040518263ffffffff1660e01b815260040180828152602001915050600060405180830381600087803b158015610bd257600080fd5b505af1158015610be6573d6000803e3d6000fd5b505050507f8bb2cae37873d04f164e954d608fa5f214e1718857fe5b3f0b34e38148501a2d816040518082815260200191505060405180910390a160006001600a60018401420281610c3457fe5b06019050600a8160ff161415610d495760026000838152602001908152602001600020600360008481526020019081526020016000206000820154816000015560018201548160010155600282015481600201556003820160009054906101000a900460ff168160030160006101000a81548160ff0219169083151502179055506003820160019054906101000a900460ff168160030160016101000a81548160ff02191690831515021790555090505060016004600084815260200190815260200160002060006101000a81548160ff0219169083151502179055507fa013bd9b3c6a3bb3e65ab74fe251d0f82f71b3ab61849fb6230a7ba55b4c33f8826040518082815260200191505060405180910390a15b8196505050505050509392505050565b60015481565b600115156000809054906101000a900473ffffffffffffffffffffffffffffffffffffffff1673ffffffffffffffffffffffffffffffffffffffff166324d7806c336040518263ffffffff1660e01b8152600401808273ffffffffffffffffffffffffffffffffffffffff1673ffffffffffffffffffffffffffffffffffffffff16815260200191505060206040518083038186803b158015610e0157600080fd5b505afa158015610e15573d6000803e3d6000fd5b505050506040513d6020811015610e2b57600080fd5b8101908080519060200190929190505050151514610e94576040517f08c379a0000000000000000000000000000000000000000000000000000000008152600401808060200182810382526026815260200180612ca46026913960400191505060405180910390fd5b8060016004600083815260200190815260200160002060006101000a81548160ff0219169083151502179055610f32576040517f08c379a000000000000000000000000000000000000000000000000000000000815260040180806020018281038252601c8152602001807f5265636f7264206973206e6f74206120666c6167676564206f6e652e0000000081525060200191505060405180910390fd5b60036000838152602001908152602001600020600080820160009055600182016000905560028201600090556003820160006101000a81549060ff02191690556003820160016101000a81549060ff021916905550506004600083815260200190815260200160002060006101000a81549060ff021916905560016002600084815260200190815260200160002060030160006101000a81548160ff02191690831515021790555060016002600084815260200190815260200160002060030160016101000a81548160ff0219169083151502179055507ff6b652f019a197d5f2dcd5811fb69eb6b95670a7b0654c39e7232fab1df3f8b0826040518082815260200191505060405180910390a15050565b60008060008060006001548611156110c4576040517f08c379a000000000000000000000000000000000000000000000000000000000815260040180806020018281038252601e8152602001807f4d65646963616c207265636f726420646f6573206e6f742065786973742e000081525060200191505060405180910390fd5b600115156000809054906101000a900473ffffffffffffffffffffffffffffffffffffffff1673ffffffffffffffffffffffffffffffffffffffff16638f9c79ed336040518263ffffffff1660e01b8152600401808273ffffffffffffffffffffffffffffffffffffffff1673ffffffffffffffffffffffffffffffffffffffff16815260200191505060206040518083038186803b15801561116657600080fd5b505afa15801561117a573d6000803e3d6000fd5b505050506040513d602081101561119057600080fd5b8101908080519060200190929190505050151514156112f4573373ffffffffffffffffffffffffffffffffffffffff166000809054906101000a900473ffffffffffffffffffffffffffffffffffffffff1673ffffffffffffffffffffffffffffffffffffffff1663097ee8cd600260008a8152602001908152602001600020600001546040518263ffffffff1660e01b81526004018082815260200191505060206040518083038186803b15801561124857600080fd5b505afa15801561125c573d6000803e3d6000fd5b505050506040513d602081101561127257600080fd5b810190808051906020019092919050505073ffffffffffffffffffffffffffffffffffffffff16146112ef576040517f08c379a000000000000000000000000000000000000000000000000000000000815260040180806020018281038252602f815260200180612d4b602f913960400191505060405180910390fd5b6116ef565b600115156000809054906101000a900473ffffffffffffffffffffffffffffffffffffffff1673ffffffffffffffffffffffffffffffffffffffff1663996440c6336040518263ffffffff1660e01b8152600401808273ffffffffffffffffffffffffffffffffffffffff1673ffffffffffffffffffffffffffffffffffffffff16815260200191505060206040518083038186803b15801561139657600080fd5b505afa1580156113aa573d6000803e3d6000fd5b505050506040513d60208110156113c057600080fd5b8101908080519060200190929190505050151514156115b8576000809054906101000a900473ffffffffffffffffffffffffffffffffffffffff1673ffffffffffffffffffffffffffffffffffffffff16634752f9ef6000809054906101000a900473ffffffffffffffffffffffffffffffffffffffff1673ffffffffffffffffffffffffffffffffffffffff1663b9ee6920336040518263ffffffff1660e01b8152600401808273ffffffffffffffffffffffffffffffffffffffff1673ffffffffffffffffffffffffffffffffffffffff16815260200191505060206040518083038186803b1580156114b457600080fd5b505afa1580156114c8573d6000803e3d6000fd5b505050506040513d60208110156114de57600080fd5b81019080805190602001909291905050506040518263ffffffff1660e01b81526004018082815260200191505060206040518083038186803b15801561152357600080fd5b505afa158015611537573d6000803e3d6000fd5b505050506040513d602081101561154d57600080fd5b81019080805190602001909291905050506115b3576040517f08c379a0000000000000000000000000000000000000000000000000000000008152600401808060200182810382526028815260200180612c3d6028913960400191505060405180910390fd5b6116ee565b600115156000809054906101000a900473ffffffffffffffffffffffffffffffffffffffff1673ffffffffffffffffffffffffffffffffffffffff166324d7806c336040518263ffffffff1660e01b8152600401808273ffffffffffffffffffffffffffffffffffffffff1673ffffffffffffffffffffffffffffffffffffffff16815260200191505060206040518083038186803b15801561165a57600080fd5b505afa15801561166e573d6000803e3d6000fd5b505050506040513d602081101561168457600080fd5b81019080805190602001909291905050501515146116ed576040517f08c379a000000000000000000000000000000000000000000000000000000000815260040180806020018281038252602d815260200180612cca602d913960400191505060405180910390fd5b5b5b600260008781526020019081526020016000206000015460026000888152602001908152602001600020600101546002600089815260200190815260200160002060020154600260008a815260200190815260200160002060030160009054906101000a900460ff16600260008b815260200190815260200160002060030160019054906101000a900460ff169450945094509450945091939590929450565b600115156000809054906101000a900473ffffffffffffffffffffffffffffffffffffffff1673ffffffffffffffffffffffffffffffffffffffff1663996440c6336040518263ffffffff1660e01b8152600401808273ffffffffffffffffffffffffffffffffffffffff1673ffffffffffffffffffffffffffffffffffffffff16815260200191505060206040518083038186803b15801561183157600080fd5b505afa158015611845573d6000803e3d6000fd5b505050506040513d602081101561185b57600080fd5b81019080805190602001909291905050501515146118c4576040517f08c379a0000000000000000000000000000000000000000000000000000000008152600401808060200182810382526025815260200180612cf76025913960400191505060405180910390fd5b6000809054906101000a900473ffffffffffffffffffffffffffffffffffffffff1673ffffffffffffffffffffffffffffffffffffffff16634752f9ef6000809054906101000a900473ffffffffffffffffffffffffffffffffffffffff1673ffffffffffffffffffffffffffffffffffffffff1663b9ee6920336040518263ffffffff1660e01b8152600401808273ffffffffffffffffffffffffffffffffffffffff1673ffffffffffffffffffffffffffffffffffffffff16815260200191505060206040518083038186803b15801561199f57600080fd5b505afa1580156119b3573d6000803e3d6000fd5b505050506040513d60208110156119c957600080fd5b81019080805190602001909291905050506040518263ffffffff1660e01b81526004018082815260200191505060206040518083038186803b158015611a0e57600080fd5b505afa158015611a22573d6000803e3d6000fd5b505050506040513d6020811015611a3857600080fd5b8101908080519060200190929190505050611a9e576040517f08c379a0000000000000000000000000000000000000000000000000000000008152600401808060200182810382526028815260200180612c3d6028913960400191505060405180910390fd5b60026000828152602001908152602001600020600360008381526020019081526020016000206000820154816000015560018201548160010155600282015481600201556003820160009054906101000a900460ff168160030160006101000a81548160ff0219169083151502179055506003820160019054906101000a900460ff168160030160016101000a81548160ff02191690831515021790555090505060016004600083815260200190815260200160002060006101000a81548160ff0219169083151502179055506001600660008060009054906101000a900473ffffffffffffffffffffffffffffffffffffffff1673ffffffffffffffffffffffffffffffffffffffff1663b9ee6920336040518263ffffffff1660e01b8152600401808273ffffffffffffffffffffffffffffffffffffffff1673ffffffffffffffffffffffffffffffffffffffff16815260200191505060206040518083038186803b158015611c0f57600080fd5b505afa158015611c23573d6000803e3d6000fd5b505050506040513d6020811015611c3957600080fd5b81019080805190602001909291905050508152602001908152602001600020600060026000858152602001908152602001600020600201548152602001908152602001600020600082825401925050819055507ff259268ed2e9f49fcfefb2ee7f0b668fcc57b48c3d0c087388b8957378a4641f816040518082815260200191505060405180910390a150565b60026020528060005260406000206000915090508060000154908060010154908060020154908060030160009054906101000a900460ff16908060030160019054906101000a900460ff16905085565b60046020528060005260406000206000915054906101000a900460ff1681565b60036020528060005260406000206000915090508060000154908060010154908060020154908060030160009054906101000a900460ff16908060030160019054906101000a900460ff16905085565b803373ffffffffffffffffffffffffffffffffffffffff166000809054906101000a900473ffffffffffffffffffffffffffffffffffffffff1673ffffffffffffffffffffffffffffffffffffffff1663097ee8cd60026000858152602001908152602001600020600001546040518263ffffffff1660e01b81526004018082815260200191505060206040518083038186803b158015611e2657600080fd5b505afa158015611e3a573d6000803e3d6000fd5b505050506040513d6020811015611e5057600080fd5b810190808051906020019092919050505073ffffffffffffffffffffffffffffffffffffffff1614611ecd576040517f08c379a000000000000000000000000000000000000000000000000000000000815260040180806020018281038252602f815260200180612d1c602f913960400191505060405180910390fd5b60016002600084815260200190815260200160002060030160006101000a81548160ff0219169083151502179055507fca0a010228e7c41a47c527c026258668a32604fb6c104bdf002280f9e43a9fbb826040518082815260200191505060405180910390a15050565b600115156000809054906101000a900473ffffffffffffffffffffffffffffffffffffffff1673ffffffffffffffffffffffffffffffffffffffff166324d7806c336040518263ffffffff1660e01b8152600401808273ffffffffffffffffffffffffffffffffffffffff1673ffffffffffffffffffffffffffffffffffffffff16815260200191505060206040518083038186803b158015611fd957600080fd5b505afa158015611fed573d6000803e3d6000fd5b505050506040513d602081101561200357600080fd5b810190808051906020019092919050505015151461206c576040517f08c379a0000000000000000000000000000000000000000000000000000000008152600401808060200182810382526026815260200180612ca46026913960400191505060405180910390fd5b8160016004600083815260200190815260200160002060006101000a81548160ff021916908315150217905561210a576040517f08c379a000000000000000000000000000000000000000000000000000000000815260040180806020018281038252601c8152602001807f5265636f7264206973206e6f74206120666c6167676564206f6e652e0000000081525060200191505060405180910390fd5b60036000848152602001908152602001600020600560008581526020019081526020016000206000820154816000015560018201548160010155600282015481600201556003820160009054906101000a900460ff168160030160006101000a81548160ff0219169083151502179055506003820160019054906101000a900460ff168160030160016101000a81548160ff0219169083151502179055509050506000809054906101000a900473ffffffffffffffffffffffffffffffffffffffff1673ffffffffffffffffffffffffffffffffffffffff1663762049306002600086815260200190815260200160002060020154846040518363ffffffff1660e01b81526004018083815260200182815260200192505050600060405180830381600087803b15801561223d57600080fd5b505af1158015612251573d6000803e3d6000fd5b50505050600a6000809054906101000a900473ffffffffffffffffffffffffffffffffffffffff1673ffffffffffffffffffffffffffffffffffffffff1663cf901aed60026000878152602001908152602001600020600201546040518263ffffffff1660e01b81526004018082815260200191505060206040518083038186803b1580156122df57600080fd5b505afa1580156122f3573d6000803e3d6000fd5b505050506040513d602081101561230957600080fd5b810190808051906020019092919050505011156123c3576000809054906101000a900473ffffffffffffffffffffffffffffffffffffffff1673ffffffffffffffffffffffffffffffffffffffff1663458333c260026000868152602001908152602001600020600201546040518263ffffffff1660e01b815260040180828152602001915050600060405180830381600087803b1580156123aa57600080fd5b505af11580156123be573d6000803e3d6000fd5b505050505b60036000848152602001908152602001600020600080820160009055600182016000905560028201600090556003820160006101000a81549060ff02191690556003820160016101000a81549060ff021916905550506004600084815260200190815260200160002060006101000a81549060ff02191690557f8e647fb511ea0ff7c1f0e305cd738aebd9ace745987d43cc05d1b41c2eae90e2836040518082815260200191505060405180910390a1505050565b600115156000809054906101000a900473ffffffffffffffffffffffffffffffffffffffff1673ffffffffffffffffffffffffffffffffffffffff1663996440c6336040518263ffffffff1660e01b8152600401808273ffffffffffffffffffffffffffffffffffffffff1673ffffffffffffffffffffffffffffffffffffffff16815260200191505060206040518083038186803b15801561251a57600080fd5b505afa15801561252e573d6000803e3d6000fd5b505050506040513d602081101561254457600080fd5b81019080805190602001909291905050501515146125ad576040517f08c379a0000000000000000000000000000000000000000000000000000000008152600401808060200182810382526025815260200180612cf76025913960400191505060405180910390fd5b6000809054906101000a900473ffffffffffffffffffffffffffffffffffffffff1673ffffffffffffffffffffffffffffffffffffffff16634752f9ef6000809054906101000a900473ffffffffffffffffffffffffffffffffffffffff1673ffffffffffffffffffffffffffffffffffffffff1663b9ee6920336040518263ffffffff1660e01b8152600401808273ffffffffffffffffffffffffffffffffffffffff1673ffffffffffffffffffffffffffffffffffffffff16815260200191505060206040518083038186803b15801561268857600080fd5b505afa15801561269c573d6000803e3d6000fd5b505050506040513d60208110156126b257600080fd5b81019080805190602001909291905050506040518263ffffffff1660e01b81526004018082815260200191505060206040518083038186803b1580156126f757600080fd5b505afa15801561270b573d6000803e3d6000fd5b505050506040513d602081101561272157600080fd5b8101908080519060200190929190505050612787576040517f08c379a0000000000000000000000000000000000000000000000000000000008152600401808060200182810382526028815260200180612c3d6028913960400191505060405180910390fd5b6005600660008060009054906101000a900473ffffffffffffffffffffffffffffffffffffffff1673ffffffffffffffffffffffffffffffffffffffff1663b9ee6920336040518263ffffffff1660e01b8152600401808273ffffffffffffffffffffffffffffffffffffffff1673ffffffffffffffffffffffffffffffffffffffff16815260200191505060206040518083038186803b15801561282b57600080fd5b505afa15801561283f573d6000803e3d6000fd5b505050506040513d602081101561285557600080fd5b810190808051906020019092919050505081526020019081526020016000206000600260008581526020019081526020016000206002015481526020019081526020016000205411156128f3576040517f08c379a000000000000000000000000000000000000000000000000000000000815260040180806020018281038252603f815260200180612c65603f913960400191505060405180910390fd5b60016002600083815260200190815260200160002060030160016101000a81548160ff0219169083151502179055506001600660008060009054906101000a900473ffffffffffffffffffffffffffffffffffffffff1673ffffffffffffffffffffffffffffffffffffffff1663b9ee6920336040518263ffffffff1660e01b8152600401808273ffffffffffffffffffffffffffffffffffffffff1673ffffffffffffffffffffffffffffffffffffffff16815260200191505060206040518083038186803b1580156129c657600080fd5b505afa1580156129da573d6000803e3d6000fd5b505050506040513d60208110156129f057600080fd5b81019080805190602001909291905050508152602001908152602001600020600060026000858152602001908152602001600020600201548152602001908152602001600020600082825401925050819055506000809054906101000a900473ffffffffffffffffffffffffffffffffffffffff1673ffffffffffffffffffffffffffffffffffffffff16635cdb52bf6000809054906101000a900473ffffffffffffffffffffffffffffffffffffffff1673ffffffffffffffffffffffffffffffffffffffff1663b9ee6920336040518263ffffffff1660e01b8152600401808273ffffffffffffffffffffffffffffffffffffffff1673ffffffffffffffffffffffffffffffffffffffff16815260200191505060206040518083038186803b158015612b1e57600080fd5b505afa158015612b32573d6000803e3d6000fd5b505050506040513d6020811015612b4857600080fd5b81019080805190602001909291905050506040518263ffffffff1660e01b815260040180828152602001915050600060405180830381600087803b158015612b8f57600080fd5b505af1158015612ba3573d6000803e3d6000fd5b505050507fedc817e1040d6db4f4664ba8c6d2b3ef756ee4a17f64558a4ee9801550a45722816040518082815260200191505060405180910390a150565b6006602052816000526040600020602052806000526040600020600091509150505481565b6040518060a00160405280600081526020016000801916815260200160008152602001600015158152602001600015158152509056fe4e6f7420617574686f726973656420617320646f63746f7220697320626c61636b6c69737465642e5468697320646f63746f7220686173206265656e20766572696679696e6720646f63746f7220696e2063686172676520746f6f206d616e792074696d65732e4f6e6c792061646d696e732063616e206578656375746520746869732066756e6374696f6e2e4e6f742070617469656e742c20646f63746f72206f722061646d696e2c206e6f7420617574686f72697365642e4e6f7420646f63746f722c206e6f7420617574686f726973656420746f207665726966792e4d65646963616c207265636f726420646f6573206e6f742062656c6f6e6720746f207468697320616464726573732e4d65646963616c207265636f726420646f6573206e6f742062656c6f6e6720746f20746869732070617469656e742ea265627a7a72315820faf95a83d713f5e61a568066964fc913e4f206c1c992e3d14ae59bb2365d0b1564736f6c63430005100032",
  "source": "// pragma solidity ^0.5.0;\npragma solidity >=0.4.21 <0.7.0;\nimport \"./Users.sol\";\n\ncontract MedicalRecords {\n    Users userContract;\n\n    //constructor for usercontract\n    constructor(Users usersAddress) public {\n        userContract = usersAddress;\n    }\n\n    // medical record structure\n\n    struct medicalRecord {\n        uint256 patient;\n        bytes32 details;\n        uint256 doctorInCharge;\n        bool patientVerified;\n        bool doctorVerified;\n    }\n\n    uint256 public numMedicalRecords = 0;\n    mapping(uint256 => medicalRecord) public medicalRecords;\n    mapping(uint256 => medicalRecord) public flaggedRecords;\n    mapping(uint256 => bool) public isFlaggedRecords;\n    mapping(uint256 => medicalRecord) public badRecords;\n    mapping(uint256 => mapping(uint256 => uint256)) public doctorVerifications;\n\n    // medical record events\n    event createdMedicalRecord(uint256 medicalRecordId);\n    event patientVerified(uint256 medicalRecordId);\n    event doctorVerified(uint256 medicalRecordId);\n    event patientReported(uint256 medicalRecordId);\n    event doctorReported(uint256 medicalRecordId);\n    event fraudulentReport(uint256 medicalRecordId);\n    event wronglyAccusedReport(uint256 medicalRecordId);\n    event randomFlaggedReport(uint256 MedicalRecordId);\n\n    // medical record modifiers\n    modifier isPatient(uint256 patientId) {\n        require(\n            userContract.isExistingPatient(patientId) == true,\n            \"No such patient exists.\"\n        );\n        _;\n    }\n\n    modifier isPatientFromRecord(uint256 medicalRecordId) {\n        require(\n            userContract.getPatientAddress(\n                medicalRecords[medicalRecordId].patient\n            ) == msg.sender,\n            \"Medical record does not belong to this address.\"\n        );\n        _;\n    }\n\n    modifier isDoctor(uint256 doctorId) {\n        require(\n            userContract.isExistingDoctor(doctorId) == true,\n            \"No such doctor exists.\"\n        );\n        _;\n    }\n\n    modifier isDoctorAddress() {\n        require(\n            userContract.isDoctor(msg.sender) == true,\n            \"Not doctor, not authorised to verify.\"\n        );\n        _;\n    }\n\n    modifier isAdmin() {\n        require(\n            userContract.isAdmin(msg.sender) == true,\n            \"Only admins can execute this function.\"\n        );\n        _;\n    }\n\n    modifier blacklistedId(uint256 doctorId) {\n        require(\n            userContract.isBlacklisted(doctorId),\n            \"Not authorised as doctor is blacklisted.\"\n        );\n        _;\n    }\n\n    modifier blacklistedAddress() {\n        require(\n            userContract.isBlacklisted(userContract.getDoctorId(msg.sender)),\n            \"Not authorised as doctor is blacklisted.\"\n        );\n        _;\n    }\n\n    modifier flaggedRecord(uint256 medicalRecordId) {\n        require(\n            isFlaggedRecords[medicalRecordId] = true,\n            \"Record is not a flagged one.\"\n        );\n        _;\n    }\n\n    // medical record functions\n    // function to create medical record\n    function createRecord(\n        uint256 patientId,\n        uint256 doctorId,\n        bytes32 details\n    )\n        public\n        isPatient(patientId)\n        isDoctor(doctorId)\n        blacklistedId(doctorId)\n        returns (uint256)\n    {\n        medicalRecord memory newMedicalRecord =\n            medicalRecord(patientId, details, doctorId, false, false);\n\n        uint256 newMedicalRecordId = numMedicalRecords++;\n        medicalRecords[newMedicalRecordId] = newMedicalRecord;\n        userContract.addRecordCount(patientId);\n        emit createdMedicalRecord(newMedicalRecordId);\n\n        // randomly adds medical record to flaggedRecords so random spotchecks can be done\n        uint8 randomFlag =\n            (uint8)((block.timestamp * (newMedicalRecordId + 1)) % 10) + 1;\n        if (randomFlag == 10) {\n            flaggedRecords[newMedicalRecordId] = medicalRecords[\n                newMedicalRecordId\n            ];\n            isFlaggedRecords[newMedicalRecordId] = true;\n            emit randomFlaggedReport(newMedicalRecordId);\n        }\n\n        return newMedicalRecordId;\n    }\n\n    // function to view medical record\n    function viewRecord(uint256 medicalRecordId)\n        public\n        view\n        returns (\n            uint256,\n            bytes32,\n            uint256,\n            bool,\n            bool\n        )\n    {\n        require(\n            medicalRecordId <= numMedicalRecords,\n            \"Medical record does not exist.\"\n        );\n\n        // requirement that only patient can view this record if the msg.sender is a patient\n        if (userContract.isPatient(msg.sender) == true) {\n            require(\n                userContract.getPatientAddress(\n                    medicalRecords[medicalRecordId].patient\n                ) == msg.sender,\n                \"Medical record does not belong to this patient.\"\n            );\n        } else if (userContract.isDoctor(msg.sender) == true) {\n            require(\n                userContract.isBlacklisted(\n                    userContract.getDoctorId(msg.sender)\n                ),\n                \"Not authorised as doctor is blacklisted.\"\n            );\n        } else {\n            require(\n                userContract.isAdmin(msg.sender) == true,\n                \"Not patient, doctor or admin, not authorised.\"\n            );\n        }\n\n        return (\n            medicalRecords[medicalRecordId].patient,\n            medicalRecords[medicalRecordId].details,\n            medicalRecords[medicalRecordId].doctorInCharge,\n            medicalRecords[medicalRecordId].patientVerified,\n            medicalRecords[medicalRecordId].doctorVerified\n        );\n    }\n\n    // function for patient to verify that medical record has no problems\n    function patientVerify(uint256 medicalRecordId)\n        public\n        isPatientFromRecord(medicalRecordId)\n    {\n        medicalRecords[medicalRecordId].patientVerified = true;\n        emit patientVerified(medicalRecordId);\n    }\n\n    // function for doctor to verify that medical record has no problems\n    function doctorVerify(uint256 medicalRecordId)\n        public\n        isDoctorAddress()\n        blacklistedAddress()\n    {\n        require(\n            doctorVerifications[userContract.getDoctorId(msg.sender)][\n                medicalRecords[medicalRecordId].doctorInCharge\n            ] <= 5,\n            \"This doctor has been verifying doctor in charge too many times.\"\n        );\n        // TODO: change threshold\n\n        medicalRecords[medicalRecordId].doctorVerified = true;\n        doctorVerifications[userContract.getDoctorId(msg.sender)][\n            medicalRecords[medicalRecordId].doctorInCharge\n        ] += 1;\n        userContract.addAppraisalScore(userContract.getDoctorId(msg.sender));\n        emit doctorVerified(medicalRecordId);\n    }\n\n    // function for patient to whistleblow\n    function patientReport(uint256 medicalRecordId)\n        public\n        isPatientFromRecord(medicalRecordId)\n    {\n        flaggedRecords[medicalRecordId] = medicalRecords[medicalRecordId];\n        isFlaggedRecords[medicalRecordId] = true;\n        emit patientReported(medicalRecordId);\n    }\n\n    // function for verifying doctor to whistleblow\n    function doctorReport(uint256 medicalRecordId)\n        public\n        isDoctorAddress()\n        blacklistedAddress()\n    {\n        flaggedRecords[medicalRecordId] = medicalRecords[medicalRecordId];\n        isFlaggedRecords[medicalRecordId] = true;\n        doctorVerifications[userContract.getDoctorId(msg.sender)][\n            medicalRecords[medicalRecordId].doctorInCharge\n        ] += 1;\n        emit doctorReported(medicalRecordId);\n    }\n\n    // function for admin to classify flagged record as bad record\n    function punish(uint256 medicalRecordId, uint256 score)\n        public\n        isAdmin()\n        flaggedRecord(medicalRecordId)\n    {\n        badRecords[medicalRecordId] = flaggedRecords[medicalRecordId];\n        userContract.addPenaltyScore(\n            medicalRecords[medicalRecordId].doctorInCharge,\n            score\n        );\n        // TODO: might have to change threshold\n        if (\n            userContract.getPenaltyScore(\n                medicalRecords[medicalRecordId].doctorInCharge\n            ) > 10\n        ) {\n            userContract.blacklistDoctor(\n                medicalRecords[medicalRecordId].doctorInCharge\n            );\n        }\n        delete flaggedRecords[medicalRecordId];\n        delete isFlaggedRecords[medicalRecordId];\n        emit fraudulentReport(medicalRecordId);\n    }\n\n    // function for admin to waive wrongly accused flagged record\n    function waive(uint256 medicalRecordId)\n        public\n        isAdmin()\n        flaggedRecord(medicalRecordId)\n    {\n        delete flaggedRecords[medicalRecordId];\n        delete isFlaggedRecords[medicalRecordId];\n        medicalRecords[medicalRecordId].patientVerified = true;\n        medicalRecords[medicalRecordId].doctorVerified = true;\n        emit wronglyAccusedReport(medicalRecordId);\n    }\n}\n",
  "sourcePath": "/Users/yeeqinghew/Desktop/is4302/contracts/MedicalRecords.sol",
  "compiler": {
    "name": "solc",
    "version": "0.5.16+commit.9c3226ce.Emscripten.clang"
  },
  "schemaVersion": "3.3.3",
  "updatedAt": "2021-03-29T23:43:10.471Z",
  "devdoc": {
    "methods": {}
  },
  "userdoc": {
    "methods": {}
  }
}