{
  "contractName": "MedicalRecords",
  "abi": [
    {
      "inputs": [
        {
          "internalType": "contract Users",
          "name": "usersAddress",
          "type": "address"
        }
      ],
      "payable": false,
      "stateMutability": "nonpayable",
      "type": "constructor"
    },
    {
      "anonymous": false,
      "inputs": [
        {
          "indexed": false,
          "internalType": "uint256",
          "name": "medicalRecordId",
          "type": "uint256"
        }
      ],
      "name": "createdMedicalRecord",
      "type": "event"
    },
    {
      "anonymous": false,
      "inputs": [
        {
          "indexed": false,
          "internalType": "uint256",
          "name": "medicalRecordId",
          "type": "uint256"
        }
      ],
      "name": "doctorReported",
      "type": "event"
    },
    {
      "anonymous": false,
      "inputs": [
        {
          "indexed": false,
          "internalType": "uint256",
          "name": "medicalRecordId",
          "type": "uint256"
        }
      ],
      "name": "doctorVerified",
      "type": "event"
    },
    {
      "anonymous": false,
      "inputs": [
        {
          "indexed": false,
          "internalType": "uint256",
          "name": "medicalRecordId",
          "type": "uint256"
        }
      ],
      "name": "fraudulentReport",
      "type": "event"
    },
    {
      "anonymous": false,
      "inputs": [
        {
          "indexed": false,
          "internalType": "uint256",
          "name": "medicalRecordId",
          "type": "uint256"
        }
      ],
      "name": "patientReported",
      "type": "event"
    },
    {
      "anonymous": false,
      "inputs": [
        {
          "indexed": false,
          "internalType": "uint256",
          "name": "medicalRecordId",
          "type": "uint256"
        }
      ],
      "name": "patientVerified",
      "type": "event"
    },
    {
      "anonymous": false,
      "inputs": [
        {
          "indexed": false,
          "internalType": "uint256",
          "name": "MedicalRecordId",
          "type": "uint256"
        }
      ],
      "name": "randomFlaggedReport",
      "type": "event"
    },
    {
      "anonymous": false,
      "inputs": [
        {
          "indexed": false,
          "internalType": "uint256",
          "name": "medicalRecordId",
          "type": "uint256"
        }
      ],
      "name": "wronglyAccusedReport",
      "type": "event"
    },
    {
      "constant": true,
      "inputs": [
        {
          "internalType": "uint256",
          "name": "",
          "type": "uint256"
        }
      ],
      "name": "badRecords",
      "outputs": [
        {
          "internalType": "uint256",
          "name": "patient",
          "type": "uint256"
        },
        {
          "internalType": "bytes32",
          "name": "details",
          "type": "bytes32"
        },
        {
          "internalType": "uint256",
          "name": "doctorInCharge",
          "type": "uint256"
        },
        {
          "internalType": "uint256",
          "name": "patientVerified",
          "type": "uint256"
        },
        {
          "internalType": "uint256",
          "name": "doctorVerified",
          "type": "uint256"
        }
      ],
      "payable": false,
      "stateMutability": "view",
      "type": "function"
    },
    {
      "constant": true,
      "inputs": [
        {
          "internalType": "uint256",
          "name": "",
          "type": "uint256"
        },
        {
          "internalType": "uint256",
          "name": "",
          "type": "uint256"
        }
      ],
      "name": "doctorVerifications",
      "outputs": [
        {
          "internalType": "uint256",
          "name": "",
          "type": "uint256"
        }
      ],
      "payable": false,
      "stateMutability": "view",
      "type": "function"
    },
    {
      "constant": true,
      "inputs": [
        {
          "internalType": "uint256",
          "name": "",
          "type": "uint256"
        }
      ],
      "name": "flaggedRecords",
      "outputs": [
        {
          "internalType": "uint256",
          "name": "patient",
          "type": "uint256"
        },
        {
          "internalType": "bytes32",
          "name": "details",
          "type": "bytes32"
        },
        {
          "internalType": "uint256",
          "name": "doctorInCharge",
          "type": "uint256"
        },
        {
          "internalType": "uint256",
          "name": "patientVerified",
          "type": "uint256"
        },
        {
          "internalType": "uint256",
          "name": "doctorVerified",
          "type": "uint256"
        }
      ],
      "payable": false,
      "stateMutability": "view",
      "type": "function"
    },
    {
      "constant": true,
      "inputs": [
        {
          "internalType": "uint256",
          "name": "",
          "type": "uint256"
        }
      ],
      "name": "isFlaggedRecords",
      "outputs": [
        {
          "internalType": "bool",
          "name": "",
          "type": "bool"
        }
      ],
      "payable": false,
      "stateMutability": "view",
      "type": "function"
    },
    {
      "constant": true,
      "inputs": [
        {
          "internalType": "uint256",
          "name": "",
          "type": "uint256"
        }
      ],
      "name": "medicalRecords",
      "outputs": [
        {
          "internalType": "uint256",
          "name": "patient",
          "type": "uint256"
        },
        {
          "internalType": "bytes32",
          "name": "details",
          "type": "bytes32"
        },
        {
          "internalType": "uint256",
          "name": "doctorInCharge",
          "type": "uint256"
        },
        {
          "internalType": "uint256",
          "name": "patientVerified",
          "type": "uint256"
        },
        {
          "internalType": "uint256",
          "name": "doctorVerified",
          "type": "uint256"
        }
      ],
      "payable": false,
      "stateMutability": "view",
      "type": "function"
    },
    {
      "constant": true,
      "inputs": [],
      "name": "numMedicalRecords",
      "outputs": [
        {
          "internalType": "uint256",
          "name": "",
          "type": "uint256"
        }
      ],
      "payable": false,
      "stateMutability": "view",
      "type": "function"
    },
    {
      "constant": false,
      "inputs": [
        {
          "internalType": "uint256",
          "name": "patientId",
          "type": "uint256"
        },
        {
          "internalType": "uint256",
          "name": "doctorId",
          "type": "uint256"
        },
        {
          "internalType": "bytes32",
          "name": "details",
          "type": "bytes32"
        }
      ],
      "name": "createRecord",
      "outputs": [
        {
          "internalType": "uint256",
          "name": "",
          "type": "uint256"
        }
      ],
      "payable": false,
      "stateMutability": "nonpayable",
      "type": "function"
    },
    {
      "constant": true,
      "inputs": [
        {
          "internalType": "uint256",
          "name": "medicalRecordId",
          "type": "uint256"
        }
      ],
      "name": "viewRecord",
      "outputs": [
        {
          "internalType": "uint256",
          "name": "",
          "type": "uint256"
        },
        {
          "internalType": "bytes32",
          "name": "",
          "type": "bytes32"
        },
        {
          "internalType": "uint256",
          "name": "",
          "type": "uint256"
        },
        {
          "internalType": "uint256",
          "name": "",
          "type": "uint256"
        },
        {
          "internalType": "uint256",
          "name": "",
          "type": "uint256"
        }
      ],
      "payable": false,
      "stateMutability": "view",
      "type": "function"
    },
    {
      "constant": false,
      "inputs": [
        {
          "internalType": "uint256",
          "name": "medicalRecordId",
          "type": "uint256"
        }
      ],
      "name": "patientVerify",
      "outputs": [],
      "payable": false,
      "stateMutability": "nonpayable",
      "type": "function"
    },
    {
      "constant": false,
      "inputs": [
        {
          "internalType": "uint256",
          "name": "medicalRecordId",
          "type": "uint256"
        }
      ],
      "name": "doctorVerify",
      "outputs": [],
      "payable": false,
      "stateMutability": "nonpayable",
      "type": "function"
    },
    {
      "constant": false,
      "inputs": [
        {
          "internalType": "uint256",
          "name": "medicalRecordId",
          "type": "uint256"
        }
      ],
      "name": "patientReport",
      "outputs": [],
      "payable": false,
      "stateMutability": "nonpayable",
      "type": "function"
    },
    {
      "constant": false,
      "inputs": [
        {
          "internalType": "uint256",
          "name": "medicalRecordId",
          "type": "uint256"
        }
      ],
      "name": "doctorReport",
      "outputs": [],
      "payable": false,
      "stateMutability": "nonpayable",
      "type": "function"
    },
    {
      "constant": false,
      "inputs": [
        {
          "internalType": "uint256",
          "name": "medicalRecordId",
          "type": "uint256"
        },
        {
          "internalType": "uint256",
          "name": "score",
          "type": "uint256"
        }
      ],
      "name": "punish",
      "outputs": [],
      "payable": false,
      "stateMutability": "nonpayable",
      "type": "function"
    },
    {
      "constant": false,
      "inputs": [
        {
          "internalType": "uint256",
          "name": "medicalRecordId",
          "type": "uint256"
        }
      ],
      "name": "waive",
      "outputs": [],
      "payable": false,
      "stateMutability": "nonpayable",
      "type": "function"
    },
    {
      "constant": true,
      "inputs": [
        {
          "internalType": "string",
          "name": "source",
          "type": "string"
        }
      ],
      "name": "stringToBytes32",
      "outputs": [
        {
          "internalType": "bytes32",
          "name": "result",
          "type": "bytes32"
        }
      ],
      "payable": false,
      "stateMutability": "pure",
      "type": "function"
    },
    {
      "constant": true,
      "inputs": [
        {
          "internalType": "bytes32",
          "name": "_bytes32",
          "type": "bytes32"
        }
      ],
      "name": "bytes32ToString",
      "outputs": [
        {
          "internalType": "string",
          "name": "",
          "type": "string"
        }
      ],
      "payable": false,
      "stateMutability": "pure",
      "type": "function"
    },
    {
      "constant": true,
      "inputs": [],
      "name": "getNumMedicalRecords",
      "outputs": [
        {
          "internalType": "uint256",
          "name": "",
          "type": "uint256"
        }
      ],
      "payable": false,
      "stateMutability": "view",
      "type": "function"
    }
  ],
  "bytecode": "0x6080604052600060015534801561001557600080fd5b506040516135b83803806135b88339818101604052602081101561003857600080fd5b8101908080519060200190929190505050806000806101000a81548173ffffffffffffffffffffffffffffffffffffffff021916908373ffffffffffffffffffffffffffffffffffffffff1602179055505061351f806100996000396000f3fe608060405234801561001057600080fd5b506004361061010b5760003560e01c80638acd4e9f116100a2578063b047574911610071578063b047574914610491578063cfb51928146104bf578063d70080cc1461058e578063db6e1b06146105c6578063e35a77ba146105f45761010b565b80638acd4e9f146103285780639201de551461036e578063a8a3b1c114610415578063ab481058146104735761010b565b806360e0c49c116100de57806360e0c49c1461021057806364b5a9251461023e5780636b82d1741461029c5780637564a13c146102ca5761010b565b80630e7a104d1461011057806312ef586f1461016e5780632c5f62ee1461019c578063411dc350146101f2575b600080fd5b61013c6004803603602081101561012657600080fd5b8101908080359060200190929190505050610640565b604051808681526020018581526020018481526020018381526020018281526020019550505050505060405180910390f35b61019a6004803603602081101561018457600080fd5b8101908080359060200190929190505050610676565b005b6101dc600480360360608110156101b257600080fd5b8101908080359060200190929190803590602001909291908035906020019092919050505061089a565b6040518082815260200191505060405180910390f35b6101fa610ecf565b6040518082815260200191505060405180910390f35b61023c6004803603602081101561022657600080fd5b8101908080359060200190929190505050610ed5565b005b61026a6004803603602081101561025457600080fd5b8101908080359060200190929190505050611179565b604051808681526020018581526020018481526020018381526020018281526020019550505050505060405180910390f35b6102c8600480360360208110156102b257600080fd5b81019080803590602001909291905050506118b1565b005b6102f6600480360360208110156102e057600080fd5b81019080803590602001909291905050506121dd565b604051808681526020018581526020018481526020018381526020018281526020019550505050505060405180910390f35b6103546004803603602081101561033e57600080fd5b8101908080359060200190929190505050612213565b604051808215151515815260200191505060405180910390f35b61039a6004803603602081101561038457600080fd5b8101908080359060200190929190505050612233565b6040518080602001828103825283818151815260200191508051906020019080838360005b838110156103da5780820151818401526020810190506103bf565b50505050905090810190601f1680156104075780820380516001836020036101000a031916815260200191505b509250505060405180910390f35b6104416004803603602081101561042b57600080fd5b8101908080359060200190929190505050612390565b604051808681526020018581526020018481526020018381526020018281526020019550505050505060405180910390f35b61047b6123c6565b6040518082815260200191505060405180910390f35b6104bd600480360360208110156104a757600080fd5b81019080803590602001909291905050506123d0565b005b610578600480360360208110156104d557600080fd5b81019080803590602001906401000000008111156104f257600080fd5b82018360208201111561050457600080fd5b8035906020019184600183028401116401000000008311171561052657600080fd5b91908080601f016020809104026020016040519081016040528093929190818152602001838380828437600081840152601f19601f82011690508083019250505050505050919291929050505061256e565b6040518082815260200191505060405180910390f35b6105c4600480360360408110156105a457600080fd5b81019080803590602001909291908035906020019092919050505061259c565b005b6105f2600480360360208110156105dc57600080fd5b8101908080359060200190929190505050612a7c565b005b61062a6004803603604081101561060a57600080fd5b810190808035906020019092919080359060200190929190505050613322565b6040518082815260200191505060405180910390f35b60056020528060005260406000206000915090508060000154908060010154908060020154908060030154908060040154905085565b803373ffffffffffffffffffffffffffffffffffffffff166000809054906101000a900473ffffffffffffffffffffffffffffffffffffffff1673ffffffffffffffffffffffffffffffffffffffff1663097ee8cd60026000858152602001908152602001600020600001546040518263ffffffff1660e01b81526004018082815260200191505060206040518083038186803b15801561071657600080fd5b505afa15801561072a573d6000803e3d6000fd5b505050506040513d602081101561074057600080fd5b810190808051906020019092919050505073ffffffffffffffffffffffffffffffffffffffff16146107bd576040517f08c379a000000000000000000000000000000000000000000000000000000000815260040180806020018281038252602f81526020018061348d602f913960400191505060405180910390fd5b6002600083815260200190815260200160002060036000848152602001908152602001600020600082015481600001556001820154816001015560028201548160020155600382015481600301556004820154816004015590505060016004600084815260200190815260200160002060006101000a81548160ff0219169083151502179055506002806000848152602001908152602001600020600301819055507faa9d7bf55980aee56d42c9874be884d5c7500b2656ef75fc2a2bb76aac1a4815826040518082815260200191505060405180910390a15050565b600083600115156000809054906101000a900473ffffffffffffffffffffffffffffffffffffffff1673ffffffffffffffffffffffffffffffffffffffff16639f7af8c5836040518263ffffffff1660e01b81526004018082815260200191505060206040518083038186803b15801561091357600080fd5b505afa158015610927573d6000803e3d6000fd5b505050506040513d602081101561093d57600080fd5b81019080805190602001909291905050501515146109c3576040517f08c379a00000000000000000000000000000000000000000000000000000000081526004018080602001828103825260178152602001807f4e6f20737563682070617469656e74206578697374732e00000000000000000081525060200191505060405180910390fd5b83600115156000809054906101000a900473ffffffffffffffffffffffffffffffffffffffff1673ffffffffffffffffffffffffffffffffffffffff166396eeaf76836040518263ffffffff1660e01b81526004018082815260200191505060206040518083038186803b158015610a3a57600080fd5b505afa158015610a4e573d6000803e3d6000fd5b505050506040513d6020811015610a6457600080fd5b8101908080519060200190929190505050151514610aea576040517f08c379a00000000000000000000000000000000000000000000000000000000081526004018080602001828103825260168152602001807f4e6f207375636820646f63746f72206578697374732e0000000000000000000081525060200191505060405180910390fd5b84600115156000809054906101000a900473ffffffffffffffffffffffffffffffffffffffff1673ffffffffffffffffffffffffffffffffffffffff16634752f9ef836040518263ffffffff1660e01b81526004018082815260200191505060206040518083038186803b158015610b6157600080fd5b505afa158015610b75573d6000803e3d6000fd5b505050506040513d6020811015610b8b57600080fd5b810190808051906020019092919050505015151415610bf5576040517f08c379a000000000000000000000000000000000000000000000000000000000815260040180806020018281038252602881526020018061337a6028913960400191505060405180910390fd5b610bfd613347565b6040518060a001604052808981526020018781526020018881526020016000815260200160008152509050600060016000815480929190600101919050559050816002600083815260200190815260200160002060008201518160000155602082015181600101556040820151816002015560608201518160030155608082015181600401559050506000809054906101000a900473ffffffffffffffffffffffffffffffffffffffff1673ffffffffffffffffffffffffffffffffffffffff1663d8a4ae0a8a6040518263ffffffff1660e01b815260040180828152602001915050600060405180830381600087803b158015610cfa57600080fd5b505af1158015610d0e573d6000803e3d6000fd5b505050506000809054906101000a900473ffffffffffffffffffffffffffffffffffffffff1673ffffffffffffffffffffffffffffffffffffffff1663bda1b5f38a836040518363ffffffff1660e01b81526004018083815260200182815260200192505050600060405180830381600087803b158015610d8e57600080fd5b505af1158015610da2573d6000803e3d6000fd5b505050507f8bb2cae37873d04f164e954d608fa5f214e1718857fe5b3f0b34e38148501a2d816040518082815260200191505060405180910390a160006001600a60018401420281610df057fe5b06019050600a8160ff161415610ebf576002600083815260200190815260200160002060036000848152602001908152602001600020600082015481600001556001820154816001015560028201548160020155600382015481600301556004820154816004015590505060016004600084815260200190815260200160002060006101000a81548160ff0219169083151502179055507fa013bd9b3c6a3bb3e65ab74fe251d0f82f71b3ab61849fb6230a7ba55b4c33f8826040518082815260200191505060405180910390a15b8196505050505050509392505050565b60015481565b600115156000809054906101000a900473ffffffffffffffffffffffffffffffffffffffff1673ffffffffffffffffffffffffffffffffffffffff166324d7806c336040518263ffffffff1660e01b8152600401808273ffffffffffffffffffffffffffffffffffffffff1673ffffffffffffffffffffffffffffffffffffffff16815260200191505060206040518083038186803b158015610f7757600080fd5b505afa158015610f8b573d6000803e3d6000fd5b505050506040513d6020811015610fa157600080fd5b810190808051906020019092919050505015151461100a576040517f08c379a00000000000000000000000000000000000000000000000000000000081526004018080602001828103825260268152602001806134156026913960400191505060405180910390fd5b80600115156004600083815260200190815260200160002060009054906101000a900460ff161515146110a5576040517f08c379a000000000000000000000000000000000000000000000000000000000815260040180806020018281038252601c8152602001807f5265636f7264206973206e6f74206120666c6167676564206f6e652e0000000081525060200191505060405180910390fd5b60036000838152602001908152602001600020600080820160009055600182016000905560028201600090556003820160009055600482016000905550506004600083815260200190815260200160002060006101000a81549060ff021916905560016002600084815260200190815260200160002060030181905550600160026000848152602001908152602001600020600401819055507ff6b652f019a197d5f2dcd5811fb69eb6b95670a7b0654c39e7232fab1df3f8b0826040518082815260200191505060405180910390a15050565b60008060008060006001548611156111f9576040517f08c379a000000000000000000000000000000000000000000000000000000000815260040180806020018281038252601e8152602001807f4d65646963616c207265636f726420646f6573206e6f742065786973742e000081525060200191505060405180910390fd5b600115156000809054906101000a900473ffffffffffffffffffffffffffffffffffffffff1673ffffffffffffffffffffffffffffffffffffffff16638f9c79ed336040518263ffffffff1660e01b8152600401808273ffffffffffffffffffffffffffffffffffffffff1673ffffffffffffffffffffffffffffffffffffffff16815260200191505060206040518083038186803b15801561129b57600080fd5b505afa1580156112af573d6000803e3d6000fd5b505050506040513d60208110156112c557600080fd5b810190808051906020019092919050505015151415611429573373ffffffffffffffffffffffffffffffffffffffff166000809054906101000a900473ffffffffffffffffffffffffffffffffffffffff1673ffffffffffffffffffffffffffffffffffffffff1663097ee8cd600260008a8152602001908152602001600020600001546040518263ffffffff1660e01b81526004018082815260200191505060206040518083038186803b15801561137d57600080fd5b505afa158015611391573d6000803e3d6000fd5b505050506040513d60208110156113a757600080fd5b810190808051906020019092919050505073ffffffffffffffffffffffffffffffffffffffff1614611424576040517f08c379a000000000000000000000000000000000000000000000000000000000815260040180806020018281038252602f8152602001806134bc602f913960400191505060405180910390fd5b61182b565b600115156000809054906101000a900473ffffffffffffffffffffffffffffffffffffffff1673ffffffffffffffffffffffffffffffffffffffff1663996440c6336040518263ffffffff1660e01b8152600401808273ffffffffffffffffffffffffffffffffffffffff1673ffffffffffffffffffffffffffffffffffffffff16815260200191505060206040518083038186803b1580156114cb57600080fd5b505afa1580156114df573d6000803e3d6000fd5b505050506040513d60208110156114f557600080fd5b8101908080519060200190929190505050151514156116f457600015156000809054906101000a900473ffffffffffffffffffffffffffffffffffffffff1673ffffffffffffffffffffffffffffffffffffffff16634752f9ef6000809054906101000a900473ffffffffffffffffffffffffffffffffffffffff1673ffffffffffffffffffffffffffffffffffffffff1663b9ee6920336040518263ffffffff1660e01b8152600401808273ffffffffffffffffffffffffffffffffffffffff1673ffffffffffffffffffffffffffffffffffffffff16815260200191505060206040518083038186803b1580156115ed57600080fd5b505afa158015611601573d6000803e3d6000fd5b505050506040513d602081101561161757600080fd5b81019080805190602001909291905050506040518263ffffffff1660e01b81526004018082815260200191505060206040518083038186803b15801561165c57600080fd5b505afa158015611670573d6000803e3d6000fd5b505050506040513d602081101561168657600080fd5b81019080805190602001909291905050501515146116ef576040517f08c379a000000000000000000000000000000000000000000000000000000000815260040180806020018281038252602881526020018061337a6028913960400191505060405180910390fd5b61182a565b600115156000809054906101000a900473ffffffffffffffffffffffffffffffffffffffff1673ffffffffffffffffffffffffffffffffffffffff166324d7806c336040518263ffffffff1660e01b8152600401808273ffffffffffffffffffffffffffffffffffffffff1673ffffffffffffffffffffffffffffffffffffffff16815260200191505060206040518083038186803b15801561179657600080fd5b505afa1580156117aa573d6000803e3d6000fd5b505050506040513d60208110156117c057600080fd5b8101908080519060200190929190505050151514611829576040517f08c379a000000000000000000000000000000000000000000000000000000000815260040180806020018281038252602d81526020018061343b602d913960400191505060405180910390fd5b5b5b600260008781526020019081526020016000206000015460026000888152602001908152602001600020600101546002600089815260200190815260200160002060020154600260008a815260200190815260200160002060030154600260008b8152602001908152602001600020600401549450945094509450945091939590929450565b600115156000809054906101000a900473ffffffffffffffffffffffffffffffffffffffff1673ffffffffffffffffffffffffffffffffffffffff1663996440c6336040518263ffffffff1660e01b8152600401808273ffffffffffffffffffffffffffffffffffffffff1673ffffffffffffffffffffffffffffffffffffffff16815260200191505060206040518083038186803b15801561195357600080fd5b505afa158015611967573d6000803e3d6000fd5b505050506040513d602081101561197d57600080fd5b81019080805190602001909291905050501515146119e6576040517f08c379a00000000000000000000000000000000000000000000000000000000081526004018080602001828103825260258152602001806134686025913960400191505060405180910390fd5b600115156000809054906101000a900473ffffffffffffffffffffffffffffffffffffffff1673ffffffffffffffffffffffffffffffffffffffff16634752f9ef6000809054906101000a900473ffffffffffffffffffffffffffffffffffffffff1673ffffffffffffffffffffffffffffffffffffffff1663b9ee6920336040518263ffffffff1660e01b8152600401808273ffffffffffffffffffffffffffffffffffffffff1673ffffffffffffffffffffffffffffffffffffffff16815260200191505060206040518083038186803b158015611ac557600080fd5b505afa158015611ad9573d6000803e3d6000fd5b505050506040513d6020811015611aef57600080fd5b81019080805190602001909291905050506040518263ffffffff1660e01b81526004018082815260200191505060206040518083038186803b158015611b3457600080fd5b505afa158015611b48573d6000803e3d6000fd5b505050506040513d6020811015611b5e57600080fd5b810190808051906020019092919050505015151415611bc8576040517f08c379a000000000000000000000000000000000000000000000000000000000815260040180806020018281038252602881526020018061337a6028913960400191505060405180910390fd5b806000809054906101000a900473ffffffffffffffffffffffffffffffffffffffff1673ffffffffffffffffffffffffffffffffffffffff1663834b5d4760026000848152602001908152602001600020600201546040518263ffffffff1660e01b81526004018082815260200191505060206040518083038186803b158015611c5157600080fd5b505afa158015611c65573d6000803e3d6000fd5b505050506040513d6020811015611c7b57600080fd5b810190808051906020019092919050505073ffffffffffffffffffffffffffffffffffffffff163373ffffffffffffffffffffffffffffffffffffffff161415611d10576040517f08c379a00000000000000000000000000000000000000000000000000000000081526004018080602001828103825260348152602001806133e16034913960400191505060405180910390fd5b6005600660008060009054906101000a900473ffffffffffffffffffffffffffffffffffffffff1673ffffffffffffffffffffffffffffffffffffffff1663b9ee6920336040518263ffffffff1660e01b8152600401808273ffffffffffffffffffffffffffffffffffffffff1673ffffffffffffffffffffffffffffffffffffffff16815260200191505060206040518083038186803b158015611db457600080fd5b505afa158015611dc8573d6000803e3d6000fd5b505050506040513d6020811015611dde57600080fd5b810190808051906020019092919050505081526020019081526020016000206000600260008681526020019081526020016000206002015481526020019081526020016000205410611e7b576040517f08c379a000000000000000000000000000000000000000000000000000000000815260040180806020018281038252603f8152602001806133a2603f913960400191505060405180910390fd5b6002600083815260200190815260200160002060036000848152602001908152602001600020600082015481600001556001820154816001015560028201548160020155600382015481600301556004820154816004015590505060016004600084815260200190815260200160002060006101000a81548160ff0219169083151502179055506001600660008060009054906101000a900473ffffffffffffffffffffffffffffffffffffffff1673ffffffffffffffffffffffffffffffffffffffff1663b9ee6920336040518263ffffffff1660e01b8152600401808273ffffffffffffffffffffffffffffffffffffffff1673ffffffffffffffffffffffffffffffffffffffff16815260200191505060206040518083038186803b158015611fa657600080fd5b505afa158015611fba573d6000803e3d6000fd5b505050506040513d6020811015611fd057600080fd5b81019080805190602001909291905050508152602001908152602001600020600060026000868152602001908152602001600020600201548152602001908152602001600020600082825401925050819055506002806000848152602001908152602001600020600401819055506000809054906101000a900473ffffffffffffffffffffffffffffffffffffffff1673ffffffffffffffffffffffffffffffffffffffff16635cdb52bf6000809054906101000a900473ffffffffffffffffffffffffffffffffffffffff1673ffffffffffffffffffffffffffffffffffffffff1663b9ee6920336040518263ffffffff1660e01b8152600401808273ffffffffffffffffffffffffffffffffffffffff1673ffffffffffffffffffffffffffffffffffffffff16815260200191505060206040518083038186803b15801561211957600080fd5b505afa15801561212d573d6000803e3d6000fd5b505050506040513d602081101561214357600080fd5b81019080805190602001909291905050506040518263ffffffff1660e01b815260040180828152602001915050600060405180830381600087803b15801561218a57600080fd5b505af115801561219e573d6000803e3d6000fd5b505050507ff259268ed2e9f49fcfefb2ee7f0b668fcc57b48c3d0c087388b8957378a4641f826040518082815260200191505060405180910390a15050565b60026020528060005260406000206000915090508060000154908060010154908060020154908060030154908060040154905085565b60046020528060005260406000206000915054906101000a900460ff1681565b606060008090505b60208160ff161080156122865750600060f81b838260ff166020811061225d57fe5b1a60f81b7effffffffffffffffffffffffffffffffffffffffffffffffffffffffffffff191614155b1561229857808060010191505061223b565b60608160ff166040519080825280601f01601f1916602001820160405280156122d05781602001600182028038833980820191505090505b509050600091505b60208260ff161080156123235750600060f81b848360ff16602081106122fa57fe5b1a60f81b7effffffffffffffffffffffffffffffffffffffffffffffffffffffffffffff191614155b1561238657838260ff166020811061233757fe5b1a60f81b818360ff168151811061234a57fe5b60200101907effffffffffffffffffffffffffffffffffffffffffffffffffffffffffffff1916908160001a90535081806001019250506122d8565b8092505050919050565b60036020528060005260406000206000915090508060000154908060010154908060020154908060030154908060040154905085565b6000600154905090565b803373ffffffffffffffffffffffffffffffffffffffff166000809054906101000a900473ffffffffffffffffffffffffffffffffffffffff1673ffffffffffffffffffffffffffffffffffffffff1663097ee8cd60026000858152602001908152602001600020600001546040518263ffffffff1660e01b81526004018082815260200191505060206040518083038186803b15801561247057600080fd5b505afa158015612484573d6000803e3d6000fd5b505050506040513d602081101561249a57600080fd5b810190808051906020019092919050505073ffffffffffffffffffffffffffffffffffffffff1614612517576040517f08c379a000000000000000000000000000000000000000000000000000000000815260040180806020018281038252602f81526020018061348d602f913960400191505060405180910390fd5b600160026000848152602001908152602001600020600301819055507fca0a010228e7c41a47c527c026258668a32604fb6c104bdf002280f9e43a9fbb826040518082815260200191505060405180910390a15050565b6000606082905060008151141561258b576000801b915050612597565b60208301519150819150505b919050565b600115156000809054906101000a900473ffffffffffffffffffffffffffffffffffffffff1673ffffffffffffffffffffffffffffffffffffffff166324d7806c336040518263ffffffff1660e01b8152600401808273ffffffffffffffffffffffffffffffffffffffff1673ffffffffffffffffffffffffffffffffffffffff16815260200191505060206040518083038186803b15801561263e57600080fd5b505afa158015612652573d6000803e3d6000fd5b505050506040513d602081101561266857600080fd5b81019080805190602001909291905050501515146126d1576040517f08c379a00000000000000000000000000000000000000000000000000000000081526004018080602001828103825260268152602001806134156026913960400191505060405180910390fd5b81600115156004600083815260200190815260200160002060009054906101000a900460ff1615151461276c576040517f08c379a000000000000000000000000000000000000000000000000000000000815260040180806020018281038252601c8152602001807f5265636f7264206973206e6f74206120666c6167676564206f6e652e0000000081525060200191505060405180910390fd5b600360008481526020019081526020016000206005600085815260200190815260200160002060008201548160000155600182015481600101556002820154816002015560038201548160030155600482015481600401559050506000809054906101000a900473ffffffffffffffffffffffffffffffffffffffff1673ffffffffffffffffffffffffffffffffffffffff1663762049306002600086815260200190815260200160002060020154846040518363ffffffff1660e01b81526004018083815260200182815260200192505050600060405180830381600087803b15801561285957600080fd5b505af115801561286d573d6000803e3d6000fd5b50505050600a6000809054906101000a900473ffffffffffffffffffffffffffffffffffffffff1673ffffffffffffffffffffffffffffffffffffffff1663cf901aed60026000878152602001908152602001600020600201546040518263ffffffff1660e01b81526004018082815260200191505060206040518083038186803b1580156128fb57600080fd5b505afa15801561290f573d6000803e3d6000fd5b505050506040513d602081101561292557600080fd5b810190808051906020019092919050505011156129df576000809054906101000a900473ffffffffffffffffffffffffffffffffffffffff1673ffffffffffffffffffffffffffffffffffffffff1663458333c260026000868152602001908152602001600020600201546040518263ffffffff1660e01b815260040180828152602001915050600060405180830381600087803b1580156129c657600080fd5b505af11580156129da573d6000803e3d6000fd5b505050505b60036000848152602001908152602001600020600080820160009055600182016000905560028201600090556003820160009055600482016000905550506004600084815260200190815260200160002060006101000a81549060ff02191690557f8e647fb511ea0ff7c1f0e305cd738aebd9ace745987d43cc05d1b41c2eae90e2836040518082815260200191505060405180910390a1505050565b600115156000809054906101000a900473ffffffffffffffffffffffffffffffffffffffff1673ffffffffffffffffffffffffffffffffffffffff1663996440c6336040518263ffffffff1660e01b8152600401808273ffffffffffffffffffffffffffffffffffffffff1673ffffffffffffffffffffffffffffffffffffffff16815260200191505060206040518083038186803b158015612b1e57600080fd5b505afa158015612b32573d6000803e3d6000fd5b505050506040513d6020811015612b4857600080fd5b8101908080519060200190929190505050151514612bb1576040517f08c379a00000000000000000000000000000000000000000000000000000000081526004018080602001828103825260258152602001806134686025913960400191505060405180910390fd5b600115156000809054906101000a900473ffffffffffffffffffffffffffffffffffffffff1673ffffffffffffffffffffffffffffffffffffffff16634752f9ef6000809054906101000a900473ffffffffffffffffffffffffffffffffffffffff1673ffffffffffffffffffffffffffffffffffffffff1663b9ee6920336040518263ffffffff1660e01b8152600401808273ffffffffffffffffffffffffffffffffffffffff1673ffffffffffffffffffffffffffffffffffffffff16815260200191505060206040518083038186803b158015612c9057600080fd5b505afa158015612ca4573d6000803e3d6000fd5b505050506040513d6020811015612cba57600080fd5b81019080805190602001909291905050506040518263ffffffff1660e01b81526004018082815260200191505060206040518083038186803b158015612cff57600080fd5b505afa158015612d13573d6000803e3d6000fd5b505050506040513d6020811015612d2957600080fd5b810190808051906020019092919050505015151415612d93576040517f08c379a000000000000000000000000000000000000000000000000000000000815260040180806020018281038252602881526020018061337a6028913960400191505060405180910390fd5b806000809054906101000a900473ffffffffffffffffffffffffffffffffffffffff1673ffffffffffffffffffffffffffffffffffffffff1663834b5d4760026000848152602001908152602001600020600201546040518263ffffffff1660e01b81526004018082815260200191505060206040518083038186803b158015612e1c57600080fd5b505afa158015612e30573d6000803e3d6000fd5b505050506040513d6020811015612e4657600080fd5b810190808051906020019092919050505073ffffffffffffffffffffffffffffffffffffffff163373ffffffffffffffffffffffffffffffffffffffff161415612edb576040517f08c379a00000000000000000000000000000000000000000000000000000000081526004018080602001828103825260348152602001806133e16034913960400191505060405180910390fd5b6005600660008060009054906101000a900473ffffffffffffffffffffffffffffffffffffffff1673ffffffffffffffffffffffffffffffffffffffff1663b9ee6920336040518263ffffffff1660e01b8152600401808273ffffffffffffffffffffffffffffffffffffffff1673ffffffffffffffffffffffffffffffffffffffff16815260200191505060206040518083038186803b158015612f7f57600080fd5b505afa158015612f93573d6000803e3d6000fd5b505050506040513d6020811015612fa957600080fd5b810190808051906020019092919050505081526020019081526020016000206000600260008681526020019081526020016000206002015481526020019081526020016000205410613046576040517f08c379a000000000000000000000000000000000000000000000000000000000815260040180806020018281038252603f8152602001806133a2603f913960400191505060405180910390fd5b600160026000848152602001908152602001600020600401819055506001600660008060009054906101000a900473ffffffffffffffffffffffffffffffffffffffff1673ffffffffffffffffffffffffffffffffffffffff1663b9ee6920336040518263ffffffff1660e01b8152600401808273ffffffffffffffffffffffffffffffffffffffff1673ffffffffffffffffffffffffffffffffffffffff16815260200191505060206040518083038186803b15801561310657600080fd5b505afa15801561311a573d6000803e3d6000fd5b505050506040513d602081101561313057600080fd5b81019080805190602001909291905050508152602001908152602001600020600060026000868152602001908152602001600020600201548152602001908152602001600020600082825401925050819055506000809054906101000a900473ffffffffffffffffffffffffffffffffffffffff1673ffffffffffffffffffffffffffffffffffffffff16635cdb52bf6000809054906101000a900473ffffffffffffffffffffffffffffffffffffffff1673ffffffffffffffffffffffffffffffffffffffff1663b9ee6920336040518263ffffffff1660e01b8152600401808273ffffffffffffffffffffffffffffffffffffffff1673ffffffffffffffffffffffffffffffffffffffff16815260200191505060206040518083038186803b15801561325e57600080fd5b505afa158015613272573d6000803e3d6000fd5b505050506040513d602081101561328857600080fd5b81019080805190602001909291905050506040518263ffffffff1660e01b815260040180828152602001915050600060405180830381600087803b1580156132cf57600080fd5b505af11580156132e3573d6000803e3d6000fd5b505050507fedc817e1040d6db4f4664ba8c6d2b3ef756ee4a17f64558a4ee9801550a45722826040518082815260200191505060405180910390a15050565b6006602052816000526040600020602052806000526040600020600091509150505481565b6040518060a001604052806000815260200160008019168152602001600081526020016000815260200160008152509056fe4e6f7420617574686f726973656420617320646f63746f7220697320626c61636b6c69737465642e5468697320646f63746f7220686173206265656e20766572696679696e6720646f63746f7220696e2063686172676520746f6f206d616e792074696d65732e446f63746f7220636865636b696e67206973207468652073616d652061732074686520646f63746f7220696e206368617267652e4f6e6c792061646d696e732063616e206578656375746520746869732066756e6374696f6e2e4e6f742070617469656e742c20646f63746f72206f722061646d696e2c206e6f7420617574686f72697365642e4e6f7420646f63746f722c206e6f7420617574686f726973656420746f207665726966792e4d65646963616c207265636f726420646f6573206e6f742062656c6f6e6720746f207468697320616464726573732e4d65646963616c207265636f726420646f6573206e6f742062656c6f6e6720746f20746869732070617469656e742ea265627a7a7231582019db8ea879553ab28e7f84ee4f69b32c8c71096a1b2c23f489c6d0bcd74b0a9464736f6c63430005100032",
  "source": "// pragma solidity ^0.5.0;\npragma solidity >=0.4.21 <0.7.0; // version 6 is required for truffle build\nimport \"./Users.sol\";\n\ncontract MedicalRecords {\n    Users userContract;\n\n    //constructor for usercontract\n    constructor(Users usersAddress) public {\n        userContract = usersAddress;\n    }\n\n    // medical record structure\n\n    struct medicalRecord {\n        uint256 patient;\n        bytes32 details;\n        uint256 doctorInCharge;\n        uint256 patientVerified;\n        uint256 doctorVerified;\n    }\n\n    uint256 public numMedicalRecords = 0;\n    mapping(uint256 => medicalRecord) public medicalRecords;\n    mapping(uint256 => medicalRecord) public flaggedRecords;\n    mapping(uint256 => bool) public isFlaggedRecords;\n    mapping(uint256 => medicalRecord) public badRecords;\n    mapping(uint256 => mapping(uint256 => uint256)) public doctorVerifications;\n\n    // medical record events\n    event createdMedicalRecord(uint256 medicalRecordId);\n    event patientVerified(uint256 medicalRecordId);\n    event doctorVerified(uint256 medicalRecordId);\n    event patientReported(uint256 medicalRecordId);\n    event doctorReported(uint256 medicalRecordId);\n    event fraudulentReport(uint256 medicalRecordId);\n    event wronglyAccusedReport(uint256 medicalRecordId);\n    event randomFlaggedReport(uint256 MedicalRecordId);\n\n    // medical record modifiers\n    modifier isPatient(uint256 patientId) {\n        require(\n            userContract.isExistingPatient(patientId) == true,\n            \"No such patient exists.\"\n        );\n        _;\n    }\n\n    modifier isPatientFromRecord(uint256 medicalRecordId) {\n        require(\n            userContract.getPatientAddress(\n                medicalRecords[medicalRecordId].patient\n            ) == msg.sender,\n            \"Medical record does not belong to this address.\"\n        );\n        _;\n    }\n\n    modifier isDoctor(uint256 doctorId) {\n        require(\n            userContract.isExistingDoctor(doctorId) == true,\n            \"No such doctor exists.\"\n        );\n        _;\n    }\n\n    modifier isDoctorAddress() {\n        require(\n            userContract.isDoctor(msg.sender) == true,\n            \"Not doctor, not authorised to verify.\"\n        );\n        // SJ thinks that should also ensure this doctor verifying is not the doctor who attended to the patient\n        // keef agrees\n        _;\n    }\n\n    modifier notSameDoctor(uint256 medicalRecordId) {\n        require(\n            msg.sender !=\n                userContract.getDoctorAddress(\n                    medicalRecords[medicalRecordId].doctorInCharge\n                ),\n            \"Doctor checking is the same as the doctor in charge.\"\n        );\n        _;\n    }\n\n    modifier isAdmin() {\n        require(\n            userContract.isAdmin(msg.sender) == true,\n            \"Only admins can execute this function.\"\n        );\n        _;\n    }\n\n    modifier blacklistedId(uint256 doctorId) {\n        require(\n            userContract.isBlacklisted(doctorId) != true,\n            \"Not authorised as doctor is blacklisted.\"\n        );\n        _;\n    }\n\n    modifier blacklistedAddress() {\n        require(\n            userContract.isBlacklisted(userContract.getDoctorId(msg.sender)) !=\n                true,\n            \"Not authorised as doctor is blacklisted.\"\n        );\n        _;\n    }\n\n    modifier flaggedRecord(uint256 medicalRecordId) {\n        require(\n            isFlaggedRecords[medicalRecordId] == true,\n            \"Record is not a flagged one.\"\n        );\n        _;\n    }\n\n    // medical record functions\n    // function to create medical record\n    function createRecord(\n        uint256 patientId,\n        uint256 doctorId,\n        bytes32 details\n    )\n        public\n        isPatient(patientId)\n        isDoctor(doctorId)\n        blacklistedId(doctorId)\n        returns (uint256)\n    {\n        medicalRecord memory newMedicalRecord =\n            medicalRecord(patientId, details, doctorId, 0, 0);\n\n        uint256 newMedicalRecordId = numMedicalRecords++;\n        medicalRecords[newMedicalRecordId] = newMedicalRecord;\n        userContract.addRecordCount(patientId);\n        userContract.addRecordId(patientId, newMedicalRecordId);\n        emit createdMedicalRecord(newMedicalRecordId);\n\n        // randomly adds medical record to flaggedRecords so random spotchecks can be done\n        uint8 randomFlag =\n            (uint8)((block.timestamp * (newMedicalRecordId + 1)) % 10) + 1;\n        if (randomFlag == 10) {\n            flaggedRecords[newMedicalRecordId] = medicalRecords[\n                newMedicalRecordId\n            ];\n            isFlaggedRecords[newMedicalRecordId] = true;\n            emit randomFlaggedReport(newMedicalRecordId);\n        }\n\n        return newMedicalRecordId;\n    }\n\n    // function to view medical record\n    function viewRecord(uint256 medicalRecordId)\n        public\n        view\n        returns (\n            uint256,\n            bytes32,\n            uint256,\n            uint256,\n            uint256\n        )\n    {\n        require(\n            medicalRecordId <= numMedicalRecords,\n            \"Medical record does not exist.\"\n        );\n\n        // requirement that only patient can view this record if the msg.sender is a patient\n        if (userContract.isPatient(msg.sender) == true) {\n            require(\n                userContract.getPatientAddress(\n                    medicalRecords[medicalRecordId].patient\n                ) == msg.sender,\n                \"Medical record does not belong to this patient.\"\n            );\n        } else if (userContract.isDoctor(msg.sender) == true) {\n            require(\n                userContract.isBlacklisted(\n                    userContract.getDoctorId(msg.sender)\n                ) == false,\n                \"Not authorised as doctor is blacklisted.\"\n            );\n        } else {\n            require(\n                userContract.isAdmin(msg.sender) == true,\n                \"Not patient, doctor or admin, not authorised.\"\n            );\n        }\n\n        return (\n            medicalRecords[medicalRecordId].patient,\n            medicalRecords[medicalRecordId].details,\n            medicalRecords[medicalRecordId].doctorInCharge,\n            medicalRecords[medicalRecordId].patientVerified,\n            medicalRecords[medicalRecordId].doctorVerified\n        );\n    }\n\n    // function for patient to verify that medical record has no problems\n    function patientVerify(uint256 medicalRecordId)\n        public\n        isPatientFromRecord(medicalRecordId)\n    {\n        medicalRecords[medicalRecordId].patientVerified = 1;\n        emit patientVerified(medicalRecordId);\n    }\n\n    // function for doctor to verify that medical record has no problems\n    function doctorVerify(uint256 medicalRecordId)\n        public\n        isDoctorAddress()\n        blacklistedAddress()\n        notSameDoctor(medicalRecordId)\n    {\n        require(\n            doctorVerifications[userContract.getDoctorId(msg.sender)][\n                medicalRecords[medicalRecordId].doctorInCharge\n            ] < 5,\n            \"This doctor has been verifying doctor in charge too many times.\"\n        );\n\n        medicalRecords[medicalRecordId].doctorVerified = 1;\n        doctorVerifications[userContract.getDoctorId(msg.sender)][\n            medicalRecords[medicalRecordId].doctorInCharge\n        ] += 1;\n        userContract.addAppraisalScore(userContract.getDoctorId(msg.sender));\n        emit doctorVerified(medicalRecordId);\n    }\n\n    // function for patient to whistleblow\n    function patientReport(uint256 medicalRecordId)\n        public\n        isPatientFromRecord(medicalRecordId)\n    {\n        flaggedRecords[medicalRecordId] = medicalRecords[medicalRecordId];\n        isFlaggedRecords[medicalRecordId] = true;\n        medicalRecords[medicalRecordId].patientVerified = 2;\n        emit patientReported(medicalRecordId);\n    }\n\n    // function for verifying doctor to whistleblow\n    function doctorReport(uint256 medicalRecordId)\n        public\n        isDoctorAddress()\n        blacklistedAddress()\n        notSameDoctor(medicalRecordId)\n    {\n        require(\n            doctorVerifications[userContract.getDoctorId(msg.sender)][\n                medicalRecords[medicalRecordId].doctorInCharge\n            ] < 5,\n            \"This doctor has been verifying doctor in charge too many times.\"\n        );\n\n        flaggedRecords[medicalRecordId] = medicalRecords[medicalRecordId];\n        isFlaggedRecords[medicalRecordId] = true;\n        doctorVerifications[userContract.getDoctorId(msg.sender)][\n            medicalRecords[medicalRecordId].doctorInCharge\n        ] += 1;\n        medicalRecords[medicalRecordId].doctorVerified = 2;\n        userContract.addAppraisalScore(userContract.getDoctorId(msg.sender));\n        emit doctorReported(medicalRecordId);\n    }\n\n    // function for admin to classify flagged record as bad record\n    function punish(uint256 medicalRecordId, uint256 score)\n        public\n        isAdmin()\n        flaggedRecord(medicalRecordId)\n    {\n        badRecords[medicalRecordId] = flaggedRecords[medicalRecordId];\n        userContract.addPenaltyScore(\n            medicalRecords[medicalRecordId].doctorInCharge,\n            score\n        );\n        // TODO: might have to change threshold\n        if (\n            userContract.getPenaltyScore(\n                medicalRecords[medicalRecordId].doctorInCharge\n            ) > 10\n        ) {\n            userContract.blacklistDoctor(\n                medicalRecords[medicalRecordId].doctorInCharge\n            );\n        }\n        delete flaggedRecords[medicalRecordId];\n        delete isFlaggedRecords[medicalRecordId];\n        emit fraudulentReport(medicalRecordId);\n    }\n\n    // function for admin to waive wrongly accused flagged record\n    function waive(uint256 medicalRecordId)\n        public\n        isAdmin()\n        flaggedRecord(medicalRecordId)\n    {\n        delete flaggedRecords[medicalRecordId];\n        delete isFlaggedRecords[medicalRecordId];\n        medicalRecords[medicalRecordId].patientVerified = 1;\n        medicalRecords[medicalRecordId].doctorVerified = 1;\n        emit wronglyAccusedReport(medicalRecordId);\n    }\n\n    // function to convert string to bytes32 (to store details)\n    function stringToBytes32(string memory source)\n        public\n        pure\n        returns (bytes32 result)\n    {\n        bytes memory tempEmptyStringTest = bytes(source);\n        if (tempEmptyStringTest.length == 0) {\n            return 0x0;\n        }\n\n        assembly {\n            result := mload(add(source, 32))\n        }\n        return bytes32(result);\n    }\n\n    // function to convert bytes32 to string (to read details)\n    function bytes32ToString(bytes32 _bytes32)\n        public\n        pure\n        returns (string memory)\n    {\n        uint8 i = 0;\n        while (i < 32 && _bytes32[i] != 0) {\n            i++;\n        }\n\n        bytes memory bytesArray = new bytes(i);\n        for (i = 0; i < 32 && _bytes32[i] != 0; i++) {\n            bytesArray[i] = _bytes32[i];\n        }\n\n        return string(bytesArray);\n    }\n\n    // function to get number of medical records\n    function getNumMedicalRecords() \n        public \n        view \n        returns (uint256) \n    {\n        return numMedicalRecords;\n    }\n\n}\n",
  "sourcePath": "/Users/yeeqinghew/Desktop/is4302/contracts/MedicalRecords.sol",
  "compiler": {
    "name": "solc",
    "version": "0.5.16+commit.9c3226ce.Emscripten.clang"
  },
  "schemaVersion": "3.3.3",
  "updatedAt": "2021-04-08T15:25:57.354Z",
  "networkType": "ethereum",
  "devdoc": {
    "methods": {}
  },
  "userdoc": {
    "methods": {}
  }
}