{
  "contractName": "MedicalRecords",
  "abi": [
    {
      "inputs": [
        {
          "internalType": "contract Users",
          "name": "usersAddress",
          "type": "address"
        }
      ],
      "payable": false,
      "stateMutability": "nonpayable",
      "type": "constructor"
    },
    {
      "anonymous": false,
      "inputs": [
        {
          "indexed": false,
          "internalType": "uint256",
          "name": "medicalRecordId",
          "type": "uint256"
        }
      ],
      "name": "createdMedicalRecord",
      "type": "event"
    },
    {
      "anonymous": false,
      "inputs": [
        {
          "indexed": false,
          "internalType": "uint256",
          "name": "medicalRecordId",
          "type": "uint256"
        }
      ],
      "name": "doctorReported",
      "type": "event"
    },
    {
      "anonymous": false,
      "inputs": [
        {
          "indexed": false,
          "internalType": "uint256",
          "name": "medicalRecordId",
          "type": "uint256"
        }
      ],
      "name": "doctorVerified",
      "type": "event"
    },
    {
      "anonymous": false,
      "inputs": [
        {
          "indexed": false,
          "internalType": "uint256",
          "name": "medicalRecordId",
          "type": "uint256"
        }
      ],
      "name": "fraudulentReport",
      "type": "event"
    },
    {
      "anonymous": false,
      "inputs": [
        {
          "indexed": false,
          "internalType": "uint256",
          "name": "medicalRecordId",
          "type": "uint256"
        }
      ],
      "name": "patientReported",
      "type": "event"
    },
    {
      "anonymous": false,
      "inputs": [
        {
          "indexed": false,
          "internalType": "uint256",
          "name": "medicalRecordId",
          "type": "uint256"
        }
      ],
      "name": "patientVerified",
      "type": "event"
    },
    {
      "anonymous": false,
      "inputs": [
        {
          "indexed": false,
          "internalType": "uint256",
          "name": "MedicalRecordId",
          "type": "uint256"
        }
      ],
      "name": "randomFlaggedReport",
      "type": "event"
    },
    {
      "anonymous": false,
      "inputs": [
        {
          "indexed": false,
          "internalType": "uint256",
          "name": "medicalRecordId",
          "type": "uint256"
        }
      ],
      "name": "wronglyAccusedReport",
      "type": "event"
    },
    {
      "constant": true,
      "inputs": [
        {
          "internalType": "uint256",
          "name": "",
          "type": "uint256"
        }
      ],
      "name": "badRecords",
      "outputs": [
        {
          "internalType": "uint256",
          "name": "patient",
          "type": "uint256"
        },
        {
          "internalType": "bytes32",
          "name": "details",
          "type": "bytes32"
        },
        {
          "internalType": "uint256",
          "name": "doctorInCharge",
          "type": "uint256"
        },
        {
          "internalType": "uint256",
          "name": "patientVerified",
          "type": "uint256"
        },
        {
          "internalType": "uint256",
          "name": "doctorVerified",
          "type": "uint256"
        }
      ],
      "payable": false,
      "stateMutability": "view",
      "type": "function"
    },
    {
      "constant": true,
      "inputs": [
        {
          "internalType": "uint256",
          "name": "",
          "type": "uint256"
        },
        {
          "internalType": "uint256",
          "name": "",
          "type": "uint256"
        }
      ],
      "name": "doctorVerifications",
      "outputs": [
        {
          "internalType": "uint256",
          "name": "",
          "type": "uint256"
        }
      ],
      "payable": false,
      "stateMutability": "view",
      "type": "function"
    },
    {
      "constant": true,
      "inputs": [
        {
          "internalType": "uint256",
          "name": "",
          "type": "uint256"
        }
      ],
      "name": "flaggedRecords",
      "outputs": [
        {
          "internalType": "uint256",
          "name": "patient",
          "type": "uint256"
        },
        {
          "internalType": "bytes32",
          "name": "details",
          "type": "bytes32"
        },
        {
          "internalType": "uint256",
          "name": "doctorInCharge",
          "type": "uint256"
        },
        {
          "internalType": "uint256",
          "name": "patientVerified",
          "type": "uint256"
        },
        {
          "internalType": "uint256",
          "name": "doctorVerified",
          "type": "uint256"
        }
      ],
      "payable": false,
      "stateMutability": "view",
      "type": "function"
    },
    {
      "constant": true,
      "inputs": [
        {
          "internalType": "uint256",
          "name": "",
          "type": "uint256"
        }
      ],
      "name": "isFlaggedRecords",
      "outputs": [
        {
          "internalType": "bool",
          "name": "",
          "type": "bool"
        }
      ],
      "payable": false,
      "stateMutability": "view",
      "type": "function"
    },
    {
      "constant": true,
      "inputs": [
        {
          "internalType": "uint256",
          "name": "",
          "type": "uint256"
        }
      ],
      "name": "medicalRecords",
      "outputs": [
        {
          "internalType": "uint256",
          "name": "patient",
          "type": "uint256"
        },
        {
          "internalType": "bytes32",
          "name": "details",
          "type": "bytes32"
        },
        {
          "internalType": "uint256",
          "name": "doctorInCharge",
          "type": "uint256"
        },
        {
          "internalType": "uint256",
          "name": "patientVerified",
          "type": "uint256"
        },
        {
          "internalType": "uint256",
          "name": "doctorVerified",
          "type": "uint256"
        }
      ],
      "payable": false,
      "stateMutability": "view",
      "type": "function"
    },
    {
      "constant": true,
      "inputs": [],
      "name": "numMedicalRecords",
      "outputs": [
        {
          "internalType": "uint256",
          "name": "",
          "type": "uint256"
        }
      ],
      "payable": false,
      "stateMutability": "view",
      "type": "function"
    },
    {
      "constant": false,
      "inputs": [
        {
          "internalType": "uint256",
          "name": "patientId",
          "type": "uint256"
        },
        {
          "internalType": "uint256",
          "name": "doctorId",
          "type": "uint256"
        },
        {
          "internalType": "bytes32",
          "name": "details",
          "type": "bytes32"
        }
      ],
      "name": "createRecord",
      "outputs": [
        {
          "internalType": "uint256",
          "name": "",
          "type": "uint256"
        }
      ],
      "payable": false,
      "stateMutability": "nonpayable",
      "type": "function"
    },
    {
      "constant": true,
      "inputs": [
        {
          "internalType": "uint256",
          "name": "medicalRecordId",
          "type": "uint256"
        }
      ],
      "name": "viewRecord",
      "outputs": [
        {
          "internalType": "uint256",
          "name": "",
          "type": "uint256"
        },
        {
          "internalType": "bytes32",
          "name": "",
          "type": "bytes32"
        },
        {
          "internalType": "uint256",
          "name": "",
          "type": "uint256"
        },
        {
          "internalType": "uint256",
          "name": "",
          "type": "uint256"
        }
      ],
      "payable": false,
      "stateMutability": "view",
      "type": "function"
    },
    {
      "constant": true,
      "inputs": [
        {
          "internalType": "uint256",
          "name": "medicalRecordId",
          "type": "uint256"
        }
      ],
      "name": "viewRecordAdmin",
      "outputs": [
        {
          "internalType": "uint256",
          "name": "",
          "type": "uint256"
        },
        {
          "internalType": "bytes32",
          "name": "",
          "type": "bytes32"
        },
        {
          "internalType": "uint256",
          "name": "",
          "type": "uint256"
        },
        {
          "internalType": "uint256",
          "name": "",
          "type": "uint256"
        },
        {
          "internalType": "uint256",
          "name": "",
          "type": "uint256"
        }
      ],
      "payable": false,
      "stateMutability": "view",
      "type": "function"
    },
    {
      "constant": false,
      "inputs": [
        {
          "internalType": "uint256",
          "name": "medicalRecordId",
          "type": "uint256"
        }
      ],
      "name": "patientVerify",
      "outputs": [],
      "payable": false,
      "stateMutability": "nonpayable",
      "type": "function"
    },
    {
      "constant": false,
      "inputs": [
        {
          "internalType": "uint256",
          "name": "medicalRecordId",
          "type": "uint256"
        }
      ],
      "name": "doctorVerify",
      "outputs": [],
      "payable": false,
      "stateMutability": "nonpayable",
      "type": "function"
    },
    {
      "constant": false,
      "inputs": [
        {
          "internalType": "uint256",
          "name": "medicalRecordId",
          "type": "uint256"
        }
      ],
      "name": "patientReport",
      "outputs": [],
      "payable": false,
      "stateMutability": "nonpayable",
      "type": "function"
    },
    {
      "constant": false,
      "inputs": [
        {
          "internalType": "uint256",
          "name": "medicalRecordId",
          "type": "uint256"
        }
      ],
      "name": "doctorReport",
      "outputs": [],
      "payable": false,
      "stateMutability": "nonpayable",
      "type": "function"
    },
    {
      "constant": false,
      "inputs": [
        {
          "internalType": "uint256",
          "name": "medicalRecordId",
          "type": "uint256"
        },
        {
          "internalType": "uint256",
          "name": "score",
          "type": "uint256"
        }
      ],
      "name": "punish",
      "outputs": [],
      "payable": false,
      "stateMutability": "nonpayable",
      "type": "function"
    },
    {
      "constant": false,
      "inputs": [
        {
          "internalType": "uint256",
          "name": "medicalRecordId",
          "type": "uint256"
        }
      ],
      "name": "waive",
      "outputs": [],
      "payable": false,
      "stateMutability": "nonpayable",
      "type": "function"
    },
    {
      "constant": true,
      "inputs": [
        {
          "internalType": "string",
          "name": "source",
          "type": "string"
        }
      ],
      "name": "stringToBytes32",
      "outputs": [
        {
          "internalType": "bytes32",
          "name": "result",
          "type": "bytes32"
        }
      ],
      "payable": false,
      "stateMutability": "pure",
      "type": "function"
    },
    {
      "constant": true,
      "inputs": [
        {
          "internalType": "bytes32",
          "name": "_bytes32",
          "type": "bytes32"
        }
      ],
      "name": "bytes32ToString",
      "outputs": [
        {
          "internalType": "string",
          "name": "",
          "type": "string"
        }
      ],
      "payable": false,
      "stateMutability": "pure",
      "type": "function"
    },
    {
      "constant": true,
      "inputs": [],
      "name": "getNumMedicalRecords",
      "outputs": [
        {
          "internalType": "uint256",
          "name": "",
          "type": "uint256"
        }
      ],
      "payable": false,
      "stateMutability": "view",
      "type": "function"
    }
  ],
  "bytecode": "0x6080604052600060015534801561001557600080fd5b50604051613d35380380613d358339818101604052602081101561003857600080fd5b8101908080519060200190929190505050806000806101000a81548173ffffffffffffffffffffffffffffffffffffffff021916908373ffffffffffffffffffffffffffffffffffffffff16021790555050613c9c806100996000396000f3fe608060405234801561001057600080fd5b50600436106101165760003560e01c80638acd4e9f116100a2578063b047574911610071578063b0475749146104f3578063cfb5192814610521578063d70080cc146105f0578063db6e1b0614610628578063e35a77ba1461065657610116565b80638acd4e9f1461038a5780639201de55146103d0578063a8a3b1c114610477578063ab481058146104d557610116565b8063411dc350116100e9578063411dc3501461025b57806360e0c49c1461027957806364b5a925146102a75780636b82d174146102fe5780637564a13c1461032c57610116565b8063025583581461011b5780630e7a104d1461017957806312ef586f146101d75780632c5f62ee14610205575b600080fd5b6101476004803603602081101561013157600080fd5b81019080803590602001909291905050506106a2565b604051808681526020018581526020018481526020018381526020018281526020019550505050505060405180910390f35b6101a56004803603602081101561018f57600080fd5b8101908080359060200190929190505050610dda565b604051808681526020018581526020018481526020018381526020018281526020019550505050505060405180910390f35b610203600480360360208110156101ed57600080fd5b8101908080359060200190929190505050610e10565b005b6102456004803603606081101561021b57600080fd5b81019080803590602001909291908035906020019092919080359060200190929190505050611034565b6040518082815260200191505060405180910390f35b610263611669565b6040518082815260200191505060405180910390f35b6102a56004803603602081101561028f57600080fd5b810190808035906020019092919050505061166f565b005b6102d3600480360360208110156102bd57600080fd5b8101908080359060200190929190505050611913565b6040518085815260200184815260200183815260200182815260200194505050505060405180910390f35b61032a6004803603602081101561031457600080fd5b810190808035906020019092919050505061202e565b005b6103586004803603602081101561034257600080fd5b810190808035906020019092919050505061295a565b604051808681526020018581526020018481526020018381526020018281526020019550505050505060405180910390f35b6103b6600480360360208110156103a057600080fd5b8101908080359060200190929190505050612990565b604051808215151515815260200191505060405180910390f35b6103fc600480360360208110156103e657600080fd5b81019080803590602001909291905050506129b0565b6040518080602001828103825283818151815260200191508051906020019080838360005b8381101561043c578082015181840152602081019050610421565b50505050905090810190601f1680156104695780820380516001836020036101000a031916815260200191505b509250505060405180910390f35b6104a36004803603602081101561048d57600080fd5b8101908080359060200190929190505050612b0d565b604051808681526020018581526020018481526020018381526020018281526020019550505050505060405180910390f35b6104dd612b43565b6040518082815260200191505060405180910390f35b61051f6004803603602081101561050957600080fd5b8101908080359060200190929190505050612b4d565b005b6105da6004803603602081101561053757600080fd5b810190808035906020019064010000000081111561055457600080fd5b82018360208201111561056657600080fd5b8035906020019184600183028401116401000000008311171561058857600080fd5b91908080601f016020809104026020016040519081016040528093929190818152602001838380828437600081840152601f19601f820116905080830192505050505050509192919290505050612ceb565b6040518082815260200191505060405180910390f35b6106266004803603604081101561060657600080fd5b810190808035906020019092919080359060200190929190505050612d19565b005b6106546004803603602081101561063e57600080fd5b81019080803590602001909291905050506131f9565b005b61068c6004803603604081101561066c57600080fd5b810190808035906020019092919080359060200190929190505050613a9f565b6040518082815260200191505060405180910390f35b6000806000806000600154861115610722576040517f08c379a000000000000000000000000000000000000000000000000000000000815260040180806020018281038252601e8152602001807f4d65646963616c207265636f726420646f6573206e6f742065786973742e000081525060200191505060405180910390fd5b600115156000809054906101000a900473ffffffffffffffffffffffffffffffffffffffff1673ffffffffffffffffffffffffffffffffffffffff16638f9c79ed336040518263ffffffff1660e01b8152600401808273ffffffffffffffffffffffffffffffffffffffff1673ffffffffffffffffffffffffffffffffffffffff16815260200191505060206040518083038186803b1580156107c457600080fd5b505afa1580156107d8573d6000803e3d6000fd5b505050506040513d60208110156107ee57600080fd5b810190808051906020019092919050505015151415610952573373ffffffffffffffffffffffffffffffffffffffff166000809054906101000a900473ffffffffffffffffffffffffffffffffffffffff1673ffffffffffffffffffffffffffffffffffffffff1663097ee8cd600260008a8152602001908152602001600020600001546040518263ffffffff1660e01b81526004018082815260200191505060206040518083038186803b1580156108a657600080fd5b505afa1580156108ba573d6000803e3d6000fd5b505050506040513d60208110156108d057600080fd5b810190808051906020019092919050505073ffffffffffffffffffffffffffffffffffffffff161461094d576040517f08c379a000000000000000000000000000000000000000000000000000000000815260040180806020018281038252602f815260200180613c39602f913960400191505060405180910390fd5b610d54565b600115156000809054906101000a900473ffffffffffffffffffffffffffffffffffffffff1673ffffffffffffffffffffffffffffffffffffffff1663996440c6336040518263ffffffff1660e01b8152600401808273ffffffffffffffffffffffffffffffffffffffff1673ffffffffffffffffffffffffffffffffffffffff16815260200191505060206040518083038186803b1580156109f457600080fd5b505afa158015610a08573d6000803e3d6000fd5b505050506040513d6020811015610a1e57600080fd5b810190808051906020019092919050505015151415610c1d57600015156000809054906101000a900473ffffffffffffffffffffffffffffffffffffffff1673ffffffffffffffffffffffffffffffffffffffff16634752f9ef6000809054906101000a900473ffffffffffffffffffffffffffffffffffffffff1673ffffffffffffffffffffffffffffffffffffffff1663b9ee6920336040518263ffffffff1660e01b8152600401808273ffffffffffffffffffffffffffffffffffffffff1673ffffffffffffffffffffffffffffffffffffffff16815260200191505060206040518083038186803b158015610b1657600080fd5b505afa158015610b2a573d6000803e3d6000fd5b505050506040513d6020811015610b4057600080fd5b81019080805190602001909291905050506040518263ffffffff1660e01b81526004018082815260200191505060206040518083038186803b158015610b8557600080fd5b505afa158015610b99573d6000803e3d6000fd5b505050506040513d6020811015610baf57600080fd5b8101908080519060200190929190505050151514610c18576040517f08c379a0000000000000000000000000000000000000000000000000000000008152600401808060200182810382526028815260200180613af76028913960400191505060405180910390fd5b610d53565b600115156000809054906101000a900473ffffffffffffffffffffffffffffffffffffffff1673ffffffffffffffffffffffffffffffffffffffff166324d7806c336040518263ffffffff1660e01b8152600401808273ffffffffffffffffffffffffffffffffffffffff1673ffffffffffffffffffffffffffffffffffffffff16815260200191505060206040518083038186803b158015610cbf57600080fd5b505afa158015610cd3573d6000803e3d6000fd5b505050506040513d6020811015610ce957600080fd5b8101908080519060200190929190505050151514610d52576040517f08c379a000000000000000000000000000000000000000000000000000000000815260040180806020018281038252602d815260200180613bb8602d913960400191505060405180910390fd5b5b5b600260008781526020019081526020016000206000015460026000888152602001908152602001600020600101546002600089815260200190815260200160002060020154600260008a815260200190815260200160002060030154600260008b8152602001908152602001600020600401549450945094509450945091939590929450565b60056020528060005260406000206000915090508060000154908060010154908060020154908060030154908060040154905085565b803373ffffffffffffffffffffffffffffffffffffffff166000809054906101000a900473ffffffffffffffffffffffffffffffffffffffff1673ffffffffffffffffffffffffffffffffffffffff1663097ee8cd60026000858152602001908152602001600020600001546040518263ffffffff1660e01b81526004018082815260200191505060206040518083038186803b158015610eb057600080fd5b505afa158015610ec4573d6000803e3d6000fd5b505050506040513d6020811015610eda57600080fd5b810190808051906020019092919050505073ffffffffffffffffffffffffffffffffffffffff1614610f57576040517f08c379a000000000000000000000000000000000000000000000000000000000815260040180806020018281038252602f815260200180613c0a602f913960400191505060405180910390fd5b6002600083815260200190815260200160002060036000848152602001908152602001600020600082015481600001556001820154816001015560028201548160020155600382015481600301556004820154816004015590505060016004600084815260200190815260200160002060006101000a81548160ff0219169083151502179055506002806000848152602001908152602001600020600301819055507faa9d7bf55980aee56d42c9874be884d5c7500b2656ef75fc2a2bb76aac1a4815826040518082815260200191505060405180910390a15050565b600083600115156000809054906101000a900473ffffffffffffffffffffffffffffffffffffffff1673ffffffffffffffffffffffffffffffffffffffff16639f7af8c5836040518263ffffffff1660e01b81526004018082815260200191505060206040518083038186803b1580156110ad57600080fd5b505afa1580156110c1573d6000803e3d6000fd5b505050506040513d60208110156110d757600080fd5b810190808051906020019092919050505015151461115d576040517f08c379a00000000000000000000000000000000000000000000000000000000081526004018080602001828103825260178152602001807f4e6f20737563682070617469656e74206578697374732e00000000000000000081525060200191505060405180910390fd5b83600115156000809054906101000a900473ffffffffffffffffffffffffffffffffffffffff1673ffffffffffffffffffffffffffffffffffffffff166396eeaf76836040518263ffffffff1660e01b81526004018082815260200191505060206040518083038186803b1580156111d457600080fd5b505afa1580156111e8573d6000803e3d6000fd5b505050506040513d60208110156111fe57600080fd5b8101908080519060200190929190505050151514611284576040517f08c379a00000000000000000000000000000000000000000000000000000000081526004018080602001828103825260168152602001807f4e6f207375636820646f63746f72206578697374732e0000000000000000000081525060200191505060405180910390fd5b84600115156000809054906101000a900473ffffffffffffffffffffffffffffffffffffffff1673ffffffffffffffffffffffffffffffffffffffff16634752f9ef836040518263ffffffff1660e01b81526004018082815260200191505060206040518083038186803b1580156112fb57600080fd5b505afa15801561130f573d6000803e3d6000fd5b505050506040513d602081101561132557600080fd5b81019080805190602001909291905050501515141561138f576040517f08c379a0000000000000000000000000000000000000000000000000000000008152600401808060200182810382526028815260200180613af76028913960400191505060405180910390fd5b611397613ac4565b6040518060a001604052808981526020018781526020018881526020016000815260200160008152509050600060016000815480929190600101919050559050816002600083815260200190815260200160002060008201518160000155602082015181600101556040820151816002015560608201518160030155608082015181600401559050506000809054906101000a900473ffffffffffffffffffffffffffffffffffffffff1673ffffffffffffffffffffffffffffffffffffffff1663d8a4ae0a8a6040518263ffffffff1660e01b815260040180828152602001915050600060405180830381600087803b15801561149457600080fd5b505af11580156114a8573d6000803e3d6000fd5b505050506000809054906101000a900473ffffffffffffffffffffffffffffffffffffffff1673ffffffffffffffffffffffffffffffffffffffff1663bda1b5f38a836040518363ffffffff1660e01b81526004018083815260200182815260200192505050600060405180830381600087803b15801561152857600080fd5b505af115801561153c573d6000803e3d6000fd5b505050507f8bb2cae37873d04f164e954d608fa5f214e1718857fe5b3f0b34e38148501a2d816040518082815260200191505060405180910390a160006001600a6001840142028161158a57fe5b06019050600a8160ff161415611659576002600083815260200190815260200160002060036000848152602001908152602001600020600082015481600001556001820154816001015560028201548160020155600382015481600301556004820154816004015590505060016004600084815260200190815260200160002060006101000a81548160ff0219169083151502179055507fa013bd9b3c6a3bb3e65ab74fe251d0f82f71b3ab61849fb6230a7ba55b4c33f8826040518082815260200191505060405180910390a15b8196505050505050509392505050565b60015481565b600115156000809054906101000a900473ffffffffffffffffffffffffffffffffffffffff1673ffffffffffffffffffffffffffffffffffffffff166324d7806c336040518263ffffffff1660e01b8152600401808273ffffffffffffffffffffffffffffffffffffffff1673ffffffffffffffffffffffffffffffffffffffff16815260200191505060206040518083038186803b15801561171157600080fd5b505afa158015611725573d6000803e3d6000fd5b505050506040513d602081101561173b57600080fd5b81019080805190602001909291905050501515146117a4576040517f08c379a0000000000000000000000000000000000000000000000000000000008152600401808060200182810382526026815260200180613b926026913960400191505060405180910390fd5b80600115156004600083815260200190815260200160002060009054906101000a900460ff1615151461183f576040517f08c379a000000000000000000000000000000000000000000000000000000000815260040180806020018281038252601c8152602001807f5265636f7264206973206e6f74206120666c6167676564206f6e652e0000000081525060200191505060405180910390fd5b60036000838152602001908152602001600020600080820160009055600182016000905560028201600090556003820160009055600482016000905550506004600083815260200190815260200160002060006101000a81549060ff021916905560016002600084815260200190815260200160002060030181905550600160026000848152602001908152602001600020600401819055507ff6b652f019a197d5f2dcd5811fb69eb6b95670a7b0654c39e7232fab1df3f8b0826040518082815260200191505060405180910390a15050565b600080600080600154851115611991576040517f08c379a000000000000000000000000000000000000000000000000000000000815260040180806020018281038252601e8152602001807f4d65646963616c207265636f726420646f6573206e6f742065786973742e000081525060200191505060405180910390fd5b600115156000809054906101000a900473ffffffffffffffffffffffffffffffffffffffff1673ffffffffffffffffffffffffffffffffffffffff16638f9c79ed336040518263ffffffff1660e01b8152600401808273ffffffffffffffffffffffffffffffffffffffff1673ffffffffffffffffffffffffffffffffffffffff16815260200191505060206040518083038186803b158015611a3357600080fd5b505afa158015611a47573d6000803e3d6000fd5b505050506040513d6020811015611a5d57600080fd5b810190808051906020019092919050505015151415611bc1573373ffffffffffffffffffffffffffffffffffffffff166000809054906101000a900473ffffffffffffffffffffffffffffffffffffffff1673ffffffffffffffffffffffffffffffffffffffff1663097ee8cd60026000898152602001908152602001600020600001546040518263ffffffff1660e01b81526004018082815260200191505060206040518083038186803b158015611b1557600080fd5b505afa158015611b29573d6000803e3d6000fd5b505050506040513d6020811015611b3f57600080fd5b810190808051906020019092919050505073ffffffffffffffffffffffffffffffffffffffff1614611bbc576040517f08c379a000000000000000000000000000000000000000000000000000000000815260040180806020018281038252602f815260200180613c39602f913960400191505060405180910390fd5b611fc3565b600115156000809054906101000a900473ffffffffffffffffffffffffffffffffffffffff1673ffffffffffffffffffffffffffffffffffffffff1663996440c6336040518263ffffffff1660e01b8152600401808273ffffffffffffffffffffffffffffffffffffffff1673ffffffffffffffffffffffffffffffffffffffff16815260200191505060206040518083038186803b158015611c6357600080fd5b505afa158015611c77573d6000803e3d6000fd5b505050506040513d6020811015611c8d57600080fd5b810190808051906020019092919050505015151415611e8c57600015156000809054906101000a900473ffffffffffffffffffffffffffffffffffffffff1673ffffffffffffffffffffffffffffffffffffffff16634752f9ef6000809054906101000a900473ffffffffffffffffffffffffffffffffffffffff1673ffffffffffffffffffffffffffffffffffffffff1663b9ee6920336040518263ffffffff1660e01b8152600401808273ffffffffffffffffffffffffffffffffffffffff1673ffffffffffffffffffffffffffffffffffffffff16815260200191505060206040518083038186803b158015611d8557600080fd5b505afa158015611d99573d6000803e3d6000fd5b505050506040513d6020811015611daf57600080fd5b81019080805190602001909291905050506040518263ffffffff1660e01b81526004018082815260200191505060206040518083038186803b158015611df457600080fd5b505afa158015611e08573d6000803e3d6000fd5b505050506040513d6020811015611e1e57600080fd5b8101908080519060200190929190505050151514611e87576040517f08c379a0000000000000000000000000000000000000000000000000000000008152600401808060200182810382526028815260200180613af76028913960400191505060405180910390fd5b611fc2565b600115156000809054906101000a900473ffffffffffffffffffffffffffffffffffffffff1673ffffffffffffffffffffffffffffffffffffffff166324d7806c336040518263ffffffff1660e01b8152600401808273ffffffffffffffffffffffffffffffffffffffff1673ffffffffffffffffffffffffffffffffffffffff16815260200191505060206040518083038186803b158015611f2e57600080fd5b505afa158015611f42573d6000803e3d6000fd5b505050506040513d6020811015611f5857600080fd5b8101908080519060200190929190505050151514611fc1576040517f08c379a000000000000000000000000000000000000000000000000000000000815260040180806020018281038252602d815260200180613bb8602d913960400191505060405180910390fd5b5b5b600260008681526020019081526020016000206000015460026000878152602001908152602001600020600101546002600088815260200190815260200160002060030154600260008981526020019081526020016000206004015493509350935093509193509193565b600115156000809054906101000a900473ffffffffffffffffffffffffffffffffffffffff1673ffffffffffffffffffffffffffffffffffffffff1663996440c6336040518263ffffffff1660e01b8152600401808273ffffffffffffffffffffffffffffffffffffffff1673ffffffffffffffffffffffffffffffffffffffff16815260200191505060206040518083038186803b1580156120d057600080fd5b505afa1580156120e4573d6000803e3d6000fd5b505050506040513d60208110156120fa57600080fd5b8101908080519060200190929190505050151514612163576040517f08c379a0000000000000000000000000000000000000000000000000000000008152600401808060200182810382526025815260200180613be56025913960400191505060405180910390fd5b600115156000809054906101000a900473ffffffffffffffffffffffffffffffffffffffff1673ffffffffffffffffffffffffffffffffffffffff16634752f9ef6000809054906101000a900473ffffffffffffffffffffffffffffffffffffffff1673ffffffffffffffffffffffffffffffffffffffff1663b9ee6920336040518263ffffffff1660e01b8152600401808273ffffffffffffffffffffffffffffffffffffffff1673ffffffffffffffffffffffffffffffffffffffff16815260200191505060206040518083038186803b15801561224257600080fd5b505afa158015612256573d6000803e3d6000fd5b505050506040513d602081101561226c57600080fd5b81019080805190602001909291905050506040518263ffffffff1660e01b81526004018082815260200191505060206040518083038186803b1580156122b157600080fd5b505afa1580156122c5573d6000803e3d6000fd5b505050506040513d60208110156122db57600080fd5b810190808051906020019092919050505015151415612345576040517f08c379a0000000000000000000000000000000000000000000000000000000008152600401808060200182810382526028815260200180613af76028913960400191505060405180910390fd5b806000809054906101000a900473ffffffffffffffffffffffffffffffffffffffff1673ffffffffffffffffffffffffffffffffffffffff1663834b5d4760026000848152602001908152602001600020600201546040518263ffffffff1660e01b81526004018082815260200191505060206040518083038186803b1580156123ce57600080fd5b505afa1580156123e2573d6000803e3d6000fd5b505050506040513d60208110156123f857600080fd5b810190808051906020019092919050505073ffffffffffffffffffffffffffffffffffffffff163373ffffffffffffffffffffffffffffffffffffffff16141561248d576040517f08c379a0000000000000000000000000000000000000000000000000000000008152600401808060200182810382526034815260200180613b5e6034913960400191505060405180910390fd5b6005600660008060009054906101000a900473ffffffffffffffffffffffffffffffffffffffff1673ffffffffffffffffffffffffffffffffffffffff1663b9ee6920336040518263ffffffff1660e01b8152600401808273ffffffffffffffffffffffffffffffffffffffff1673ffffffffffffffffffffffffffffffffffffffff16815260200191505060206040518083038186803b15801561253157600080fd5b505afa158015612545573d6000803e3d6000fd5b505050506040513d602081101561255b57600080fd5b8101908080519060200190929190505050815260200190815260200160002060006002600086815260200190815260200160002060020154815260200190815260200160002054106125f8576040517f08c379a000000000000000000000000000000000000000000000000000000000815260040180806020018281038252603f815260200180613b1f603f913960400191505060405180910390fd5b6002600083815260200190815260200160002060036000848152602001908152602001600020600082015481600001556001820154816001015560028201548160020155600382015481600301556004820154816004015590505060016004600084815260200190815260200160002060006101000a81548160ff0219169083151502179055506001600660008060009054906101000a900473ffffffffffffffffffffffffffffffffffffffff1673ffffffffffffffffffffffffffffffffffffffff1663b9ee6920336040518263ffffffff1660e01b8152600401808273ffffffffffffffffffffffffffffffffffffffff1673ffffffffffffffffffffffffffffffffffffffff16815260200191505060206040518083038186803b15801561272357600080fd5b505afa158015612737573d6000803e3d6000fd5b505050506040513d602081101561274d57600080fd5b81019080805190602001909291905050508152602001908152602001600020600060026000868152602001908152602001600020600201548152602001908152602001600020600082825401925050819055506002806000848152602001908152602001600020600401819055506000809054906101000a900473ffffffffffffffffffffffffffffffffffffffff1673ffffffffffffffffffffffffffffffffffffffff16635cdb52bf6000809054906101000a900473ffffffffffffffffffffffffffffffffffffffff1673ffffffffffffffffffffffffffffffffffffffff1663b9ee6920336040518263ffffffff1660e01b8152600401808273ffffffffffffffffffffffffffffffffffffffff1673ffffffffffffffffffffffffffffffffffffffff16815260200191505060206040518083038186803b15801561289657600080fd5b505afa1580156128aa573d6000803e3d6000fd5b505050506040513d60208110156128c057600080fd5b81019080805190602001909291905050506040518263ffffffff1660e01b815260040180828152602001915050600060405180830381600087803b15801561290757600080fd5b505af115801561291b573d6000803e3d6000fd5b505050507ff259268ed2e9f49fcfefb2ee7f0b668fcc57b48c3d0c087388b8957378a4641f826040518082815260200191505060405180910390a15050565b60026020528060005260406000206000915090508060000154908060010154908060020154908060030154908060040154905085565b60046020528060005260406000206000915054906101000a900460ff1681565b606060008090505b60208160ff16108015612a035750600060f81b838260ff16602081106129da57fe5b1a60f81b7effffffffffffffffffffffffffffffffffffffffffffffffffffffffffffff191614155b15612a155780806001019150506129b8565b60608160ff166040519080825280601f01601f191660200182016040528015612a4d5781602001600182028038833980820191505090505b509050600091505b60208260ff16108015612aa05750600060f81b848360ff1660208110612a7757fe5b1a60f81b7effffffffffffffffffffffffffffffffffffffffffffffffffffffffffffff191614155b15612b0357838260ff1660208110612ab457fe5b1a60f81b818360ff1681518110612ac757fe5b60200101907effffffffffffffffffffffffffffffffffffffffffffffffffffffffffffff1916908160001a9053508180600101925050612a55565b8092505050919050565b60036020528060005260406000206000915090508060000154908060010154908060020154908060030154908060040154905085565b6000600154905090565b803373ffffffffffffffffffffffffffffffffffffffff166000809054906101000a900473ffffffffffffffffffffffffffffffffffffffff1673ffffffffffffffffffffffffffffffffffffffff1663097ee8cd60026000858152602001908152602001600020600001546040518263ffffffff1660e01b81526004018082815260200191505060206040518083038186803b158015612bed57600080fd5b505afa158015612c01573d6000803e3d6000fd5b505050506040513d6020811015612c1757600080fd5b810190808051906020019092919050505073ffffffffffffffffffffffffffffffffffffffff1614612c94576040517f08c379a000000000000000000000000000000000000000000000000000000000815260040180806020018281038252602f815260200180613c0a602f913960400191505060405180910390fd5b600160026000848152602001908152602001600020600301819055507fca0a010228e7c41a47c527c026258668a32604fb6c104bdf002280f9e43a9fbb826040518082815260200191505060405180910390a15050565b60006060829050600081511415612d08576000801b915050612d14565b60208301519150819150505b919050565b600115156000809054906101000a900473ffffffffffffffffffffffffffffffffffffffff1673ffffffffffffffffffffffffffffffffffffffff166324d7806c336040518263ffffffff1660e01b8152600401808273ffffffffffffffffffffffffffffffffffffffff1673ffffffffffffffffffffffffffffffffffffffff16815260200191505060206040518083038186803b158015612dbb57600080fd5b505afa158015612dcf573d6000803e3d6000fd5b505050506040513d6020811015612de557600080fd5b8101908080519060200190929190505050151514612e4e576040517f08c379a0000000000000000000000000000000000000000000000000000000008152600401808060200182810382526026815260200180613b926026913960400191505060405180910390fd5b81600115156004600083815260200190815260200160002060009054906101000a900460ff16151514612ee9576040517f08c379a000000000000000000000000000000000000000000000000000000000815260040180806020018281038252601c8152602001807f5265636f7264206973206e6f74206120666c6167676564206f6e652e0000000081525060200191505060405180910390fd5b600360008481526020019081526020016000206005600085815260200190815260200160002060008201548160000155600182015481600101556002820154816002015560038201548160030155600482015481600401559050506000809054906101000a900473ffffffffffffffffffffffffffffffffffffffff1673ffffffffffffffffffffffffffffffffffffffff1663762049306002600086815260200190815260200160002060020154846040518363ffffffff1660e01b81526004018083815260200182815260200192505050600060405180830381600087803b158015612fd657600080fd5b505af1158015612fea573d6000803e3d6000fd5b50505050600a6000809054906101000a900473ffffffffffffffffffffffffffffffffffffffff1673ffffffffffffffffffffffffffffffffffffffff1663cf901aed60026000878152602001908152602001600020600201546040518263ffffffff1660e01b81526004018082815260200191505060206040518083038186803b15801561307857600080fd5b505afa15801561308c573d6000803e3d6000fd5b505050506040513d60208110156130a257600080fd5b8101908080519060200190929190505050111561315c576000809054906101000a900473ffffffffffffffffffffffffffffffffffffffff1673ffffffffffffffffffffffffffffffffffffffff1663458333c260026000868152602001908152602001600020600201546040518263ffffffff1660e01b815260040180828152602001915050600060405180830381600087803b15801561314357600080fd5b505af1158015613157573d6000803e3d6000fd5b505050505b60036000848152602001908152602001600020600080820160009055600182016000905560028201600090556003820160009055600482016000905550506004600084815260200190815260200160002060006101000a81549060ff02191690557f8e647fb511ea0ff7c1f0e305cd738aebd9ace745987d43cc05d1b41c2eae90e2836040518082815260200191505060405180910390a1505050565b600115156000809054906101000a900473ffffffffffffffffffffffffffffffffffffffff1673ffffffffffffffffffffffffffffffffffffffff1663996440c6336040518263ffffffff1660e01b8152600401808273ffffffffffffffffffffffffffffffffffffffff1673ffffffffffffffffffffffffffffffffffffffff16815260200191505060206040518083038186803b15801561329b57600080fd5b505afa1580156132af573d6000803e3d6000fd5b505050506040513d60208110156132c557600080fd5b810190808051906020019092919050505015151461332e576040517f08c379a0000000000000000000000000000000000000000000000000000000008152600401808060200182810382526025815260200180613be56025913960400191505060405180910390fd5b600115156000809054906101000a900473ffffffffffffffffffffffffffffffffffffffff1673ffffffffffffffffffffffffffffffffffffffff16634752f9ef6000809054906101000a900473ffffffffffffffffffffffffffffffffffffffff1673ffffffffffffffffffffffffffffffffffffffff1663b9ee6920336040518263ffffffff1660e01b8152600401808273ffffffffffffffffffffffffffffffffffffffff1673ffffffffffffffffffffffffffffffffffffffff16815260200191505060206040518083038186803b15801561340d57600080fd5b505afa158015613421573d6000803e3d6000fd5b505050506040513d602081101561343757600080fd5b81019080805190602001909291905050506040518263ffffffff1660e01b81526004018082815260200191505060206040518083038186803b15801561347c57600080fd5b505afa158015613490573d6000803e3d6000fd5b505050506040513d60208110156134a657600080fd5b810190808051906020019092919050505015151415613510576040517f08c379a0000000000000000000000000000000000000000000000000000000008152600401808060200182810382526028815260200180613af76028913960400191505060405180910390fd5b806000809054906101000a900473ffffffffffffffffffffffffffffffffffffffff1673ffffffffffffffffffffffffffffffffffffffff1663834b5d4760026000848152602001908152602001600020600201546040518263ffffffff1660e01b81526004018082815260200191505060206040518083038186803b15801561359957600080fd5b505afa1580156135ad573d6000803e3d6000fd5b505050506040513d60208110156135c357600080fd5b810190808051906020019092919050505073ffffffffffffffffffffffffffffffffffffffff163373ffffffffffffffffffffffffffffffffffffffff161415613658576040517f08c379a0000000000000000000000000000000000000000000000000000000008152600401808060200182810382526034815260200180613b5e6034913960400191505060405180910390fd5b6005600660008060009054906101000a900473ffffffffffffffffffffffffffffffffffffffff1673ffffffffffffffffffffffffffffffffffffffff1663b9ee6920336040518263ffffffff1660e01b8152600401808273ffffffffffffffffffffffffffffffffffffffff1673ffffffffffffffffffffffffffffffffffffffff16815260200191505060206040518083038186803b1580156136fc57600080fd5b505afa158015613710573d6000803e3d6000fd5b505050506040513d602081101561372657600080fd5b8101908080519060200190929190505050815260200190815260200160002060006002600086815260200190815260200160002060020154815260200190815260200160002054106137c3576040517f08c379a000000000000000000000000000000000000000000000000000000000815260040180806020018281038252603f815260200180613b1f603f913960400191505060405180910390fd5b600160026000848152602001908152602001600020600401819055506001600660008060009054906101000a900473ffffffffffffffffffffffffffffffffffffffff1673ffffffffffffffffffffffffffffffffffffffff1663b9ee6920336040518263ffffffff1660e01b8152600401808273ffffffffffffffffffffffffffffffffffffffff1673ffffffffffffffffffffffffffffffffffffffff16815260200191505060206040518083038186803b15801561388357600080fd5b505afa158015613897573d6000803e3d6000fd5b505050506040513d60208110156138ad57600080fd5b81019080805190602001909291905050508152602001908152602001600020600060026000868152602001908152602001600020600201548152602001908152602001600020600082825401925050819055506000809054906101000a900473ffffffffffffffffffffffffffffffffffffffff1673ffffffffffffffffffffffffffffffffffffffff16635cdb52bf6000809054906101000a900473ffffffffffffffffffffffffffffffffffffffff1673ffffffffffffffffffffffffffffffffffffffff1663b9ee6920336040518263ffffffff1660e01b8152600401808273ffffffffffffffffffffffffffffffffffffffff1673ffffffffffffffffffffffffffffffffffffffff16815260200191505060206040518083038186803b1580156139db57600080fd5b505afa1580156139ef573d6000803e3d6000fd5b505050506040513d6020811015613a0557600080fd5b81019080805190602001909291905050506040518263ffffffff1660e01b815260040180828152602001915050600060405180830381600087803b158015613a4c57600080fd5b505af1158015613a60573d6000803e3d6000fd5b505050507fedc817e1040d6db4f4664ba8c6d2b3ef756ee4a17f64558a4ee9801550a45722826040518082815260200191505060405180910390a15050565b6006602052816000526040600020602052806000526040600020600091509150505481565b6040518060a001604052806000815260200160008019168152602001600081526020016000815260200160008152509056fe4e6f7420617574686f726973656420617320646f63746f7220697320626c61636b6c69737465642e5468697320646f63746f7220686173206265656e20766572696679696e6720646f63746f7220696e2063686172676520746f6f206d616e792074696d65732e446f63746f7220636865636b696e67206973207468652073616d652061732074686520646f63746f7220696e206368617267652e4f6e6c792061646d696e732063616e206578656375746520746869732066756e6374696f6e2e4e6f742070617469656e742c20646f63746f72206f722061646d696e2c206e6f7420617574686f72697365642e4e6f7420646f63746f722c206e6f7420617574686f726973656420746f207665726966792e4d65646963616c207265636f726420646f6573206e6f742062656c6f6e6720746f207468697320616464726573732e4d65646963616c207265636f726420646f6573206e6f742062656c6f6e6720746f20746869732070617469656e742ea265627a7a72315820283ababbaceed887861b6be3245023c3bb226a80b2b4df4a8aa1198fc2df929f64736f6c63430005100032",
  "source": "// pragma solidity ^0.5.0;\n//pragma solidity >=0.4.21 <0.7.0; // version 6 is required for truffle build\nimport \"./Users.sol\";\n\ncontract MedicalRecords {\n    Users userContract;\n\n    //constructor for usercontract\n    constructor(Users usersAddress) public {\n        userContract = usersAddress;\n    }\n\n    // medical record structure\n\n    struct medicalRecord {\n        uint256 patient;\n        bytes32 details;\n        uint256 doctorInCharge;\n        uint256 patientVerified;\n        uint256 doctorVerified;\n    }\n\n    uint256 public numMedicalRecords = 0;\n    mapping(uint256 => medicalRecord) public medicalRecords;\n    mapping(uint256 => medicalRecord) public flaggedRecords;\n    mapping(uint256 => bool) public isFlaggedRecords;\n    mapping(uint256 => medicalRecord) public badRecords;\n    mapping(uint256 => mapping(uint256 => uint256)) public doctorVerifications;\n\n    // medical record events\n    event createdMedicalRecord(uint256 medicalRecordId);\n    event patientVerified(uint256 medicalRecordId);\n    event doctorVerified(uint256 medicalRecordId);\n    event patientReported(uint256 medicalRecordId);\n    event doctorReported(uint256 medicalRecordId);\n    event fraudulentReport(uint256 medicalRecordId);\n    event wronglyAccusedReport(uint256 medicalRecordId);\n    event randomFlaggedReport(uint256 MedicalRecordId);\n\n    // medical record modifiers\n    modifier isPatient(uint256 patientId) {\n        require(\n            userContract.isExistingPatient(patientId) == true,\n            \"No such patient exists.\"\n        );\n        _;\n    }\n\n    modifier isPatientFromRecord(uint256 medicalRecordId) {\n        require(\n            userContract.getPatientAddress(\n                medicalRecords[medicalRecordId].patient\n            ) == msg.sender,\n            \"Medical record does not belong to this address.\"\n        );\n        _;\n    }\n\n    modifier isDoctor(uint256 doctorId) {\n        require(\n            userContract.isExistingDoctor(doctorId) == true,\n            \"No such doctor exists.\"\n        );\n        _;\n    }\n\n    modifier isDoctorAddress() {\n        require(\n            userContract.isDoctor(msg.sender) == true,\n            \"Not doctor, not authorised to verify.\"\n        );\n        // SJ thinks that should also ensure this doctor verifying is not the doctor who attended to the patient\n        // keef agrees\n        _;\n    }\n\n    modifier notSameDoctor(uint256 medicalRecordId) {\n        require(\n            msg.sender !=\n                userContract.getDoctorAddress(\n                    medicalRecords[medicalRecordId].doctorInCharge\n                ),\n            \"Doctor checking is the same as the doctor in charge.\"\n        );\n        _;\n    }\n\n    modifier isAdmin() {\n        require(\n            userContract.isAdmin(msg.sender) == true,\n            \"Only admins can execute this function.\"\n        );\n        _;\n    }\n\n    modifier blacklistedId(uint256 doctorId) {\n        require(\n            userContract.isBlacklisted(doctorId) != true,\n            \"Not authorised as doctor is blacklisted.\"\n        );\n        _;\n    }\n\n    modifier blacklistedAddress() {\n        require(\n            userContract.isBlacklisted(userContract.getDoctorId(msg.sender)) !=\n                true,\n            \"Not authorised as doctor is blacklisted.\"\n        );\n        _;\n    }\n\n    modifier flaggedRecord(uint256 medicalRecordId) {\n        require(\n            isFlaggedRecords[medicalRecordId] == true,\n            \"Record is not a flagged one.\"\n        );\n        _;\n    }\n\n    // medical record functions\n    // function to create medical record\n    function createRecord(\n        uint256 patientId,\n        uint256 doctorId,\n        bytes32 details\n    )\n        public\n        isPatient(patientId)\n        isDoctor(doctorId)\n        blacklistedId(doctorId)\n        returns (uint256)\n    {\n        medicalRecord memory newMedicalRecord =\n            medicalRecord(patientId, details, doctorId, 0, 0);\n\n        uint256 newMedicalRecordId = numMedicalRecords++;\n        medicalRecords[newMedicalRecordId] = newMedicalRecord;\n        userContract.addRecordCount(patientId);\n        userContract.addRecordId(patientId, newMedicalRecordId);\n        emit createdMedicalRecord(newMedicalRecordId);\n\n        // randomly adds medical record to flaggedRecords so random spotchecks can be done\n        uint8 randomFlag =\n            (uint8)((block.timestamp * (newMedicalRecordId + 1)) % 10) + 1;\n        if (randomFlag == 10) {\n            flaggedRecords[newMedicalRecordId] = medicalRecords[\n                newMedicalRecordId\n            ];\n            isFlaggedRecords[newMedicalRecordId] = true;\n            emit randomFlaggedReport(newMedicalRecordId);\n        }\n\n        return newMedicalRecordId;\n    }\n\n    // function to view medical record\n    function viewRecord(uint256 medicalRecordId)\n        public\n        view\n        returns (\n            uint256,\n            bytes32,\n            uint256,\n            uint256\n        )\n    {\n        require(\n            medicalRecordId <= numMedicalRecords,\n            \"Medical record does not exist.\"\n        );\n\n        // requirement that only patient can view this record if the msg.sender is a patient\n        if (userContract.isPatient(msg.sender) == true) {\n            require(\n                userContract.getPatientAddress(\n                    medicalRecords[medicalRecordId].patient\n                ) == msg.sender,\n                \"Medical record does not belong to this patient.\"\n            );\n        } else if (userContract.isDoctor(msg.sender) == true) {\n            require(\n                userContract.isBlacklisted(\n                    userContract.getDoctorId(msg.sender)\n                ) == false,\n                \"Not authorised as doctor is blacklisted.\"\n            );\n        } else {\n            require(\n                userContract.isAdmin(msg.sender) == true,\n                \"Not patient, doctor or admin, not authorised.\"\n            );\n        }\n\n        return (\n            medicalRecords[medicalRecordId].patient,\n            medicalRecords[medicalRecordId].details,\n            medicalRecords[medicalRecordId].patientVerified,\n            medicalRecords[medicalRecordId].doctorVerified\n        );\n    }\n\n\n// function to view medical record (for admins)\n    function viewRecordAdmin(uint256 medicalRecordId)\n        public\n        view\n        returns (\n            uint256,\n            bytes32,\n            uint256,\n            uint256,\n            uint256\n        )\n    {\n        require(\n            medicalRecordId <= numMedicalRecords,\n            \"Medical record does not exist.\"\n        );\n\n        // requirement that only patient can view this record if the msg.sender is a patient\n        if (userContract.isPatient(msg.sender) == true) {\n            require(\n                userContract.getPatientAddress(\n                    medicalRecords[medicalRecordId].patient\n                ) == msg.sender,\n                \"Medical record does not belong to this patient.\"\n            );\n        } else if (userContract.isDoctor(msg.sender) == true) {\n            require(\n                userContract.isBlacklisted(\n                    userContract.getDoctorId(msg.sender)\n                ) == false,\n                \"Not authorised as doctor is blacklisted.\"\n            );\n        } else {\n            require(\n                userContract.isAdmin(msg.sender) == true,\n                \"Not patient, doctor or admin, not authorised.\"\n            );\n        }\n\n        return (\n            medicalRecords[medicalRecordId].patient,\n            medicalRecords[medicalRecordId].details,\n            medicalRecords[medicalRecordId].doctorInCharge,\n            medicalRecords[medicalRecordId].patientVerified,\n            medicalRecords[medicalRecordId].doctorVerified\n        );\n    }\n\n\n    // function for patient to verify that medical record has no problems\n    function patientVerify(uint256 medicalRecordId)\n        public\n        isPatientFromRecord(medicalRecordId)\n    {\n        medicalRecords[medicalRecordId].patientVerified = 1;\n        emit patientVerified(medicalRecordId);\n    }\n\n    // function for doctor to verify that medical record has no problems\n    function doctorVerify(uint256 medicalRecordId)\n        public\n        isDoctorAddress()\n        blacklistedAddress()\n        notSameDoctor(medicalRecordId)\n    {\n        require(\n            doctorVerifications[userContract.getDoctorId(msg.sender)][\n                medicalRecords[medicalRecordId].doctorInCharge\n            ] < 5,\n            \"This doctor has been verifying doctor in charge too many times.\"\n        );\n\n        medicalRecords[medicalRecordId].doctorVerified = 1;\n        doctorVerifications[userContract.getDoctorId(msg.sender)][\n            medicalRecords[medicalRecordId].doctorInCharge\n        ] += 1;\n        userContract.addAppraisalScore(userContract.getDoctorId(msg.sender));\n        emit doctorVerified(medicalRecordId);\n    }\n\n    // function for patient to whistleblow\n    function patientReport(uint256 medicalRecordId)\n        public\n        isPatientFromRecord(medicalRecordId)\n    {\n        flaggedRecords[medicalRecordId] = medicalRecords[medicalRecordId];\n        isFlaggedRecords[medicalRecordId] = true;\n        medicalRecords[medicalRecordId].patientVerified = 2;\n        emit patientReported(medicalRecordId);\n    }\n\n    // function for verifying doctor to whistleblow\n    function doctorReport(uint256 medicalRecordId)\n        public\n        isDoctorAddress()\n        blacklistedAddress()\n        notSameDoctor(medicalRecordId)\n    {\n        require(\n            doctorVerifications[userContract.getDoctorId(msg.sender)][\n                medicalRecords[medicalRecordId].doctorInCharge\n            ] < 5,\n            \"This doctor has been verifying doctor in charge too many times.\"\n        );\n\n        flaggedRecords[medicalRecordId] = medicalRecords[medicalRecordId];\n        isFlaggedRecords[medicalRecordId] = true;\n        doctorVerifications[userContract.getDoctorId(msg.sender)][\n            medicalRecords[medicalRecordId].doctorInCharge\n        ] += 1;\n        medicalRecords[medicalRecordId].doctorVerified = 2;\n        userContract.addAppraisalScore(userContract.getDoctorId(msg.sender));\n        emit doctorReported(medicalRecordId);\n    }\n\n    // function for admin to classify flagged record as bad record\n    function punish(uint256 medicalRecordId, uint256 score)\n        public\n        isAdmin()\n        flaggedRecord(medicalRecordId)\n    {\n        badRecords[medicalRecordId] = flaggedRecords[medicalRecordId];\n        userContract.addPenaltyScore(\n            medicalRecords[medicalRecordId].doctorInCharge,\n            score\n        );\n        // TODO: might have to change threshold\n        if (\n            userContract.getPenaltyScore(\n                medicalRecords[medicalRecordId].doctorInCharge\n            ) > 10\n        ) {\n            userContract.blacklistDoctor(\n                medicalRecords[medicalRecordId].doctorInCharge\n            );\n        }\n        delete flaggedRecords[medicalRecordId];\n        delete isFlaggedRecords[medicalRecordId];\n        emit fraudulentReport(medicalRecordId);\n    }\n\n    // function for admin to waive wrongly accused flagged record\n    function waive(uint256 medicalRecordId)\n        public\n        isAdmin()\n        flaggedRecord(medicalRecordId)\n    {\n        delete flaggedRecords[medicalRecordId];\n        delete isFlaggedRecords[medicalRecordId];\n        medicalRecords[medicalRecordId].patientVerified = 1;\n        medicalRecords[medicalRecordId].doctorVerified = 1;\n        emit wronglyAccusedReport(medicalRecordId);\n    }\n\n    // function to convert string to bytes32 (to store details)\n    function stringToBytes32(string memory source)\n        public\n        pure\n        returns (bytes32 result)\n    {\n        bytes memory tempEmptyStringTest = bytes(source);\n        if (tempEmptyStringTest.length == 0) {\n            return 0x0;\n        }\n\n        assembly {\n            result := mload(add(source, 32))\n        }\n        return bytes32(result);\n    }\n\n    // function to convert bytes32 to string (to read details)\n    function bytes32ToString(bytes32 _bytes32)\n        public\n        pure\n        returns (string memory)\n    {\n        uint8 i = 0;\n        while (i < 32 && _bytes32[i] != 0) {\n            i++;\n        }\n\n        bytes memory bytesArray = new bytes(i);\n        for (i = 0; i < 32 && _bytes32[i] != 0; i++) {\n            bytesArray[i] = _bytes32[i];\n        }\n\n        return string(bytesArray);\n    }\n\n    // function to get number of medical records\n    function getNumMedicalRecords() \n        public \n        view \n        returns (uint256) \n    {\n        return numMedicalRecords;\n    }\n\n}\n",
  "sourcePath": "/Users/zihua/Desktop/NUS/Files/3.2/IS4302/Project/is4302proj/contracts/MedicalRecords.sol",
  "compiler": {
    "name": "solc",
    "version": "0.5.16+commit.9c3226ce.Emscripten.clang"
  },
  "schemaVersion": "3.3.3",
  "updatedAt": "2021-04-10T15:05:18.438Z",
  "networkType": "ethereum",
  "devdoc": {
    "methods": {}
  },
  "userdoc": {
    "methods": {}
  }
}