{
  "contractName": "MedicalRecords",
  "abi": [
    {
      "inputs": [
        {
          "internalType": "contract Users",
          "name": "usersAddress",
          "type": "address"
        }
      ],
      "payable": false,
      "stateMutability": "nonpayable",
      "type": "constructor"
    },
    {
      "anonymous": false,
      "inputs": [
        {
          "indexed": false,
          "internalType": "uint256",
          "name": "medicalRecordId",
          "type": "uint256"
        }
      ],
      "name": "createdMedicalRecord",
      "type": "event"
    },
    {
      "anonymous": false,
      "inputs": [
        {
          "indexed": false,
          "internalType": "uint256",
          "name": "medicalRecordId",
          "type": "uint256"
        }
      ],
      "name": "doctorReported",
      "type": "event"
    },
    {
      "anonymous": false,
      "inputs": [
        {
          "indexed": false,
          "internalType": "uint256",
          "name": "medicalRecordId",
          "type": "uint256"
        }
      ],
      "name": "doctorVerified",
      "type": "event"
    },
    {
      "anonymous": false,
      "inputs": [
        {
          "indexed": false,
          "internalType": "uint256",
          "name": "medicalRecordId",
          "type": "uint256"
        }
      ],
      "name": "fraudulentReport",
      "type": "event"
    },
    {
      "anonymous": false,
      "inputs": [
        {
          "indexed": false,
          "internalType": "uint256",
          "name": "medicalRecordId",
          "type": "uint256"
        }
      ],
      "name": "patientReported",
      "type": "event"
    },
    {
      "anonymous": false,
      "inputs": [
        {
          "indexed": false,
          "internalType": "uint256",
          "name": "medicalRecordId",
          "type": "uint256"
        }
      ],
      "name": "patientVerified",
      "type": "event"
    },
    {
      "anonymous": false,
      "inputs": [
        {
          "indexed": false,
          "internalType": "uint256",
          "name": "MedicalRecordId",
          "type": "uint256"
        }
      ],
      "name": "randomFlaggedReport",
      "type": "event"
    },
    {
      "anonymous": false,
      "inputs": [
        {
          "indexed": false,
          "internalType": "uint256",
          "name": "medicalRecordId",
          "type": "uint256"
        }
      ],
      "name": "wronglyAccusedReport",
      "type": "event"
    },
    {
      "constant": true,
      "inputs": [
        {
          "internalType": "uint256",
          "name": "",
          "type": "uint256"
        }
      ],
      "name": "badRecords",
      "outputs": [
        {
          "internalType": "uint256",
          "name": "patient",
          "type": "uint256"
        },
        {
          "internalType": "bytes32",
          "name": "details",
          "type": "bytes32"
        },
        {
          "internalType": "uint256",
          "name": "doctorInCharge",
          "type": "uint256"
        },
        {
          "internalType": "uint256",
          "name": "patientVerified",
          "type": "uint256"
        },
        {
          "internalType": "uint256",
          "name": "doctorVerified",
          "type": "uint256"
        }
      ],
      "payable": false,
      "stateMutability": "view",
      "type": "function"
    },
    {
      "constant": true,
      "inputs": [
        {
          "internalType": "uint256",
          "name": "",
          "type": "uint256"
        },
        {
          "internalType": "uint256",
          "name": "",
          "type": "uint256"
        }
      ],
      "name": "doctorVerifications",
      "outputs": [
        {
          "internalType": "uint256",
          "name": "",
          "type": "uint256"
        }
      ],
      "payable": false,
      "stateMutability": "view",
      "type": "function"
    },
    {
      "constant": true,
      "inputs": [
        {
          "internalType": "uint256",
          "name": "",
          "type": "uint256"
        }
      ],
      "name": "flaggedRecords",
      "outputs": [
        {
          "internalType": "uint256",
          "name": "patient",
          "type": "uint256"
        },
        {
          "internalType": "bytes32",
          "name": "details",
          "type": "bytes32"
        },
        {
          "internalType": "uint256",
          "name": "doctorInCharge",
          "type": "uint256"
        },
        {
          "internalType": "uint256",
          "name": "patientVerified",
          "type": "uint256"
        },
        {
          "internalType": "uint256",
          "name": "doctorVerified",
          "type": "uint256"
        }
      ],
      "payable": false,
      "stateMutability": "view",
      "type": "function"
    },
    {
      "constant": true,
      "inputs": [
        {
          "internalType": "uint256",
          "name": "",
          "type": "uint256"
        }
      ],
      "name": "isFlaggedRecords",
      "outputs": [
        {
          "internalType": "bool",
          "name": "",
          "type": "bool"
        }
      ],
      "payable": false,
      "stateMutability": "view",
      "type": "function"
    },
    {
      "constant": true,
      "inputs": [
        {
          "internalType": "uint256",
          "name": "",
          "type": "uint256"
        }
      ],
      "name": "medicalRecords",
      "outputs": [
        {
          "internalType": "uint256",
          "name": "patient",
          "type": "uint256"
        },
        {
          "internalType": "bytes32",
          "name": "details",
          "type": "bytes32"
        },
        {
          "internalType": "uint256",
          "name": "doctorInCharge",
          "type": "uint256"
        },
        {
          "internalType": "uint256",
          "name": "patientVerified",
          "type": "uint256"
        },
        {
          "internalType": "uint256",
          "name": "doctorVerified",
          "type": "uint256"
        }
      ],
      "payable": false,
      "stateMutability": "view",
      "type": "function"
    },
    {
      "constant": true,
      "inputs": [],
      "name": "numMedicalRecords",
      "outputs": [
        {
          "internalType": "uint256",
          "name": "",
          "type": "uint256"
        }
      ],
      "payable": false,
      "stateMutability": "view",
      "type": "function"
    },
    {
      "constant": false,
      "inputs": [
        {
          "internalType": "uint256",
          "name": "patientId",
          "type": "uint256"
        },
        {
          "internalType": "uint256",
          "name": "doctorId",
          "type": "uint256"
        },
        {
          "internalType": "bytes32",
          "name": "details",
          "type": "bytes32"
        }
      ],
      "name": "createRecord",
      "outputs": [
        {
          "internalType": "uint256",
          "name": "",
          "type": "uint256"
        }
      ],
      "payable": false,
      "stateMutability": "nonpayable",
      "type": "function"
    },
    {
      "constant": true,
      "inputs": [
        {
          "internalType": "uint256",
          "name": "medicalRecordId",
          "type": "uint256"
        }
      ],
      "name": "viewRecord",
      "outputs": [
        {
          "internalType": "uint256",
          "name": "",
          "type": "uint256"
        },
        {
          "internalType": "bytes32",
          "name": "",
          "type": "bytes32"
        },
        {
          "internalType": "uint256",
          "name": "",
          "type": "uint256"
        },
        {
          "internalType": "uint256",
          "name": "",
          "type": "uint256"
        },
        {
          "internalType": "uint256",
          "name": "",
          "type": "uint256"
        }
      ],
      "payable": false,
      "stateMutability": "view",
      "type": "function"
    },
    {
      "constant": false,
      "inputs": [
        {
          "internalType": "uint256",
          "name": "medicalRecordId",
          "type": "uint256"
        }
      ],
      "name": "patientVerify",
      "outputs": [],
      "payable": false,
      "stateMutability": "nonpayable",
      "type": "function"
    },
    {
      "constant": false,
      "inputs": [
        {
          "internalType": "uint256",
          "name": "medicalRecordId",
          "type": "uint256"
        }
      ],
      "name": "doctorVerify",
      "outputs": [],
      "payable": false,
      "stateMutability": "nonpayable",
      "type": "function"
    },
    {
      "constant": false,
      "inputs": [
        {
          "internalType": "uint256",
          "name": "medicalRecordId",
          "type": "uint256"
        }
      ],
      "name": "patientReport",
      "outputs": [],
      "payable": false,
      "stateMutability": "nonpayable",
      "type": "function"
    },
    {
      "constant": false,
      "inputs": [
        {
          "internalType": "uint256",
          "name": "medicalRecordId",
          "type": "uint256"
        }
      ],
      "name": "doctorReport",
      "outputs": [],
      "payable": false,
      "stateMutability": "nonpayable",
      "type": "function"
    },
    {
      "constant": false,
      "inputs": [
        {
          "internalType": "uint256",
          "name": "medicalRecordId",
          "type": "uint256"
        },
        {
          "internalType": "uint256",
          "name": "score",
          "type": "uint256"
        }
      ],
      "name": "punish",
      "outputs": [],
      "payable": false,
      "stateMutability": "nonpayable",
      "type": "function"
    },
    {
      "constant": false,
      "inputs": [
        {
          "internalType": "uint256",
          "name": "medicalRecordId",
          "type": "uint256"
        }
      ],
      "name": "waive",
      "outputs": [],
      "payable": false,
      "stateMutability": "nonpayable",
      "type": "function"
    },
    {
      "constant": true,
      "inputs": [
        {
          "internalType": "string",
          "name": "source",
          "type": "string"
        }
      ],
      "name": "stringToBytes32",
      "outputs": [
        {
          "internalType": "bytes32",
          "name": "result",
          "type": "bytes32"
        }
      ],
      "payable": false,
      "stateMutability": "pure",
      "type": "function"
    },
    {
      "constant": true,
      "inputs": [
        {
          "internalType": "bytes32",
          "name": "_bytes32",
          "type": "bytes32"
        }
      ],
      "name": "bytes32ToString",
      "outputs": [
        {
          "internalType": "string",
          "name": "",
          "type": "string"
        }
      ],
      "payable": false,
      "stateMutability": "pure",
      "type": "function"
    }
  ],
  "bytecode": "0x6080604052600060015534801561001557600080fd5b506040516135843803806135848339818101604052602081101561003857600080fd5b8101908080519060200190929190505050806000806101000a81548173ffffffffffffffffffffffffffffffffffffffff021916908373ffffffffffffffffffffffffffffffffffffffff160217905550506134eb806100996000396000f3fe608060405234801561001057600080fd5b50600436106101005760003560e01c80638acd4e9f11610097578063cfb5192811610066578063cfb5192814610496578063d70080cc14610565578063db6e1b061461059d578063e35a77ba146105cb57610100565b80638acd4e9f1461031d5780639201de5514610363578063a8a3b1c11461040a578063b04757491461046857610100565b806360e0c49c116100d357806360e0c49c1461020557806364b5a925146102335780636b82d174146102915780637564a13c146102bf57610100565b80630e7a104d1461010557806312ef586f146101635780632c5f62ee14610191578063411dc350146101e7575b600080fd5b6101316004803603602081101561011b57600080fd5b8101908080359060200190929190505050610617565b604051808681526020018581526020018481526020018381526020018281526020019550505050505060405180910390f35b61018f6004803603602081101561017957600080fd5b810190808035906020019092919050505061064d565b005b6101d1600480360360608110156101a757600080fd5b81019080803590602001909291908035906020019092919080359060200190929190505050610871565b6040518082815260200191505060405180910390f35b6101ef610ea6565b6040518082815260200191505060405180910390f35b6102316004803603602081101561021b57600080fd5b8101908080359060200190929190505050610eac565b005b61025f6004803603602081101561024957600080fd5b8101908080359060200190929190505050611153565b604051808681526020018581526020018481526020018381526020018281526020019550505050505060405180910390f35b6102bd600480360360208110156102a757600080fd5b8101908080359060200190929190505050611884565b005b6102eb600480360360208110156102d557600080fd5b81019080803590602001909291905050506121b0565b604051808681526020018581526020018481526020018381526020018281526020019550505050505060405180910390f35b6103496004803603602081101561033357600080fd5b81019080803590602001909291905050506121e6565b604051808215151515815260200191505060405180910390f35b61038f6004803603602081101561037957600080fd5b8101908080359060200190929190505050612206565b6040518080602001828103825283818151815260200191508051906020019080838360005b838110156103cf5780820151818401526020810190506103b4565b50505050905090810190601f1680156103fc5780820380516001836020036101000a031916815260200191505b509250505060405180910390f35b6104366004803603602081101561042057600080fd5b8101908080359060200190929190505050612363565b604051808681526020018581526020018481526020018381526020018281526020019550505050505060405180910390f35b6104946004803603602081101561047e57600080fd5b8101908080359060200190929190505050612399565b005b61054f600480360360208110156104ac57600080fd5b81019080803590602001906401000000008111156104c957600080fd5b8201836020820111156104db57600080fd5b803590602001918460018302840111640100000000831117156104fd57600080fd5b91908080601f016020809104026020016040519081016040528093929190818152602001838380828437600081840152601f19601f820116905080830192505050505050509192919290505050612537565b6040518082815260200191505060405180910390f35b61059b6004803603604081101561057b57600080fd5b810190808035906020019092919080359060200190929190505050612565565b005b6105c9600480360360208110156105b357600080fd5b8101908080359060200190929190505050612a48565b005b610601600480360360408110156105e157600080fd5b8101908080359060200190929190803590602001909291905050506132ee565b6040518082815260200191505060405180910390f35b60056020528060005260406000206000915090508060000154908060010154908060020154908060030154908060040154905085565b803373ffffffffffffffffffffffffffffffffffffffff166000809054906101000a900473ffffffffffffffffffffffffffffffffffffffff1673ffffffffffffffffffffffffffffffffffffffff1663097ee8cd60026000858152602001908152602001600020600001546040518263ffffffff1660e01b81526004018082815260200191505060206040518083038186803b1580156106ed57600080fd5b505afa158015610701573d6000803e3d6000fd5b505050506040513d602081101561071757600080fd5b810190808051906020019092919050505073ffffffffffffffffffffffffffffffffffffffff1614610794576040517f08c379a000000000000000000000000000000000000000000000000000000000815260040180806020018281038252602f815260200180613459602f913960400191505060405180910390fd5b6002600083815260200190815260200160002060036000848152602001908152602001600020600082015481600001556001820154816001015560028201548160020155600382015481600301556004820154816004015590505060016004600084815260200190815260200160002060006101000a81548160ff0219169083151502179055506002806000848152602001908152602001600020600301819055507faa9d7bf55980aee56d42c9874be884d5c7500b2656ef75fc2a2bb76aac1a4815826040518082815260200191505060405180910390a15050565b600083600115156000809054906101000a900473ffffffffffffffffffffffffffffffffffffffff1673ffffffffffffffffffffffffffffffffffffffff16639f7af8c5836040518263ffffffff1660e01b81526004018082815260200191505060206040518083038186803b1580156108ea57600080fd5b505afa1580156108fe573d6000803e3d6000fd5b505050506040513d602081101561091457600080fd5b810190808051906020019092919050505015151461099a576040517f08c379a00000000000000000000000000000000000000000000000000000000081526004018080602001828103825260178152602001807f4e6f20737563682070617469656e74206578697374732e00000000000000000081525060200191505060405180910390fd5b83600115156000809054906101000a900473ffffffffffffffffffffffffffffffffffffffff1673ffffffffffffffffffffffffffffffffffffffff166396eeaf76836040518263ffffffff1660e01b81526004018082815260200191505060206040518083038186803b158015610a1157600080fd5b505afa158015610a25573d6000803e3d6000fd5b505050506040513d6020811015610a3b57600080fd5b8101908080519060200190929190505050151514610ac1576040517f08c379a00000000000000000000000000000000000000000000000000000000081526004018080602001828103825260168152602001807f4e6f207375636820646f63746f72206578697374732e0000000000000000000081525060200191505060405180910390fd5b84600115156000809054906101000a900473ffffffffffffffffffffffffffffffffffffffff1673ffffffffffffffffffffffffffffffffffffffff16634752f9ef836040518263ffffffff1660e01b81526004018082815260200191505060206040518083038186803b158015610b3857600080fd5b505afa158015610b4c573d6000803e3d6000fd5b505050506040513d6020811015610b6257600080fd5b810190808051906020019092919050505015151415610bcc576040517f08c379a00000000000000000000000000000000000000000000000000000000081526004018080602001828103825260288152602001806133466028913960400191505060405180910390fd5b610bd4613313565b6040518060a001604052808981526020018781526020018881526020016000815260200160008152509050600060016000815480929190600101919050559050816002600083815260200190815260200160002060008201518160000155602082015181600101556040820151816002015560608201518160030155608082015181600401559050506000809054906101000a900473ffffffffffffffffffffffffffffffffffffffff1673ffffffffffffffffffffffffffffffffffffffff1663d8a4ae0a8a6040518263ffffffff1660e01b815260040180828152602001915050600060405180830381600087803b158015610cd157600080fd5b505af1158015610ce5573d6000803e3d6000fd5b505050506000809054906101000a900473ffffffffffffffffffffffffffffffffffffffff1673ffffffffffffffffffffffffffffffffffffffff1663bda1b5f38a836040518363ffffffff1660e01b81526004018083815260200182815260200192505050600060405180830381600087803b158015610d6557600080fd5b505af1158015610d79573d6000803e3d6000fd5b505050507f8bb2cae37873d04f164e954d608fa5f214e1718857fe5b3f0b34e38148501a2d816040518082815260200191505060405180910390a160006001600a60018401420281610dc757fe5b06019050600a8160ff161415610e96576002600083815260200190815260200160002060036000848152602001908152602001600020600082015481600001556001820154816001015560028201548160020155600382015481600301556004820154816004015590505060016004600084815260200190815260200160002060006101000a81548160ff0219169083151502179055507fa013bd9b3c6a3bb3e65ab74fe251d0f82f71b3ab61849fb6230a7ba55b4c33f8826040518082815260200191505060405180910390a15b8196505050505050509392505050565b60015481565b600115156000809054906101000a900473ffffffffffffffffffffffffffffffffffffffff1673ffffffffffffffffffffffffffffffffffffffff166324d7806c336040518263ffffffff1660e01b8152600401808273ffffffffffffffffffffffffffffffffffffffff1673ffffffffffffffffffffffffffffffffffffffff16815260200191505060206040518083038186803b158015610f4e57600080fd5b505afa158015610f62573d6000803e3d6000fd5b505050506040513d6020811015610f7857600080fd5b8101908080519060200190929190505050151514610fe1576040517f08c379a00000000000000000000000000000000000000000000000000000000081526004018080602001828103825260268152602001806133e16026913960400191505060405180910390fd5b8060016004600083815260200190815260200160002060006101000a81548160ff021916908315150217905561107f576040517f08c379a000000000000000000000000000000000000000000000000000000000815260040180806020018281038252601c8152602001807f5265636f7264206973206e6f74206120666c6167676564206f6e652e0000000081525060200191505060405180910390fd5b60036000838152602001908152602001600020600080820160009055600182016000905560028201600090556003820160009055600482016000905550506004600083815260200190815260200160002060006101000a81549060ff021916905560016002600084815260200190815260200160002060030181905550600160026000848152602001908152602001600020600401819055507ff6b652f019a197d5f2dcd5811fb69eb6b95670a7b0654c39e7232fab1df3f8b0826040518082815260200191505060405180910390a15050565b60008060008060006001548611156111d3576040517f08c379a000000000000000000000000000000000000000000000000000000000815260040180806020018281038252601e8152602001807f4d65646963616c207265636f726420646f6573206e6f742065786973742e000081525060200191505060405180910390fd5b600115156000809054906101000a900473ffffffffffffffffffffffffffffffffffffffff1673ffffffffffffffffffffffffffffffffffffffff16638f9c79ed336040518263ffffffff1660e01b8152600401808273ffffffffffffffffffffffffffffffffffffffff1673ffffffffffffffffffffffffffffffffffffffff16815260200191505060206040518083038186803b15801561127557600080fd5b505afa158015611289573d6000803e3d6000fd5b505050506040513d602081101561129f57600080fd5b810190808051906020019092919050505015151415611403573373ffffffffffffffffffffffffffffffffffffffff166000809054906101000a900473ffffffffffffffffffffffffffffffffffffffff1673ffffffffffffffffffffffffffffffffffffffff1663097ee8cd600260008a8152602001908152602001600020600001546040518263ffffffff1660e01b81526004018082815260200191505060206040518083038186803b15801561135757600080fd5b505afa15801561136b573d6000803e3d6000fd5b505050506040513d602081101561138157600080fd5b810190808051906020019092919050505073ffffffffffffffffffffffffffffffffffffffff16146113fe576040517f08c379a000000000000000000000000000000000000000000000000000000000815260040180806020018281038252602f815260200180613488602f913960400191505060405180910390fd5b6117fe565b600115156000809054906101000a900473ffffffffffffffffffffffffffffffffffffffff1673ffffffffffffffffffffffffffffffffffffffff1663996440c6336040518263ffffffff1660e01b8152600401808273ffffffffffffffffffffffffffffffffffffffff1673ffffffffffffffffffffffffffffffffffffffff16815260200191505060206040518083038186803b1580156114a557600080fd5b505afa1580156114b9573d6000803e3d6000fd5b505050506040513d60208110156114cf57600080fd5b8101908080519060200190929190505050151514156116c7576000809054906101000a900473ffffffffffffffffffffffffffffffffffffffff1673ffffffffffffffffffffffffffffffffffffffff16634752f9ef6000809054906101000a900473ffffffffffffffffffffffffffffffffffffffff1673ffffffffffffffffffffffffffffffffffffffff1663b9ee6920336040518263ffffffff1660e01b8152600401808273ffffffffffffffffffffffffffffffffffffffff1673ffffffffffffffffffffffffffffffffffffffff16815260200191505060206040518083038186803b1580156115c357600080fd5b505afa1580156115d7573d6000803e3d6000fd5b505050506040513d60208110156115ed57600080fd5b81019080805190602001909291905050506040518263ffffffff1660e01b81526004018082815260200191505060206040518083038186803b15801561163257600080fd5b505afa158015611646573d6000803e3d6000fd5b505050506040513d602081101561165c57600080fd5b81019080805190602001909291905050506116c2576040517f08c379a00000000000000000000000000000000000000000000000000000000081526004018080602001828103825260288152602001806133466028913960400191505060405180910390fd5b6117fd565b600115156000809054906101000a900473ffffffffffffffffffffffffffffffffffffffff1673ffffffffffffffffffffffffffffffffffffffff166324d7806c336040518263ffffffff1660e01b8152600401808273ffffffffffffffffffffffffffffffffffffffff1673ffffffffffffffffffffffffffffffffffffffff16815260200191505060206040518083038186803b15801561176957600080fd5b505afa15801561177d573d6000803e3d6000fd5b505050506040513d602081101561179357600080fd5b81019080805190602001909291905050501515146117fc576040517f08c379a000000000000000000000000000000000000000000000000000000000815260040180806020018281038252602d815260200180613407602d913960400191505060405180910390fd5b5b5b600260008781526020019081526020016000206000015460026000888152602001908152602001600020600101546002600089815260200190815260200160002060020154600260008a815260200190815260200160002060030154600260008b8152602001908152602001600020600401549450945094509450945091939590929450565b600115156000809054906101000a900473ffffffffffffffffffffffffffffffffffffffff1673ffffffffffffffffffffffffffffffffffffffff1663996440c6336040518263ffffffff1660e01b8152600401808273ffffffffffffffffffffffffffffffffffffffff1673ffffffffffffffffffffffffffffffffffffffff16815260200191505060206040518083038186803b15801561192657600080fd5b505afa15801561193a573d6000803e3d6000fd5b505050506040513d602081101561195057600080fd5b81019080805190602001909291905050501515146119b9576040517f08c379a00000000000000000000000000000000000000000000000000000000081526004018080602001828103825260258152602001806134346025913960400191505060405180910390fd5b600115156000809054906101000a900473ffffffffffffffffffffffffffffffffffffffff1673ffffffffffffffffffffffffffffffffffffffff16634752f9ef6000809054906101000a900473ffffffffffffffffffffffffffffffffffffffff1673ffffffffffffffffffffffffffffffffffffffff1663b9ee6920336040518263ffffffff1660e01b8152600401808273ffffffffffffffffffffffffffffffffffffffff1673ffffffffffffffffffffffffffffffffffffffff16815260200191505060206040518083038186803b158015611a9857600080fd5b505afa158015611aac573d6000803e3d6000fd5b505050506040513d6020811015611ac257600080fd5b81019080805190602001909291905050506040518263ffffffff1660e01b81526004018082815260200191505060206040518083038186803b158015611b0757600080fd5b505afa158015611b1b573d6000803e3d6000fd5b505050506040513d6020811015611b3157600080fd5b810190808051906020019092919050505015151415611b9b576040517f08c379a00000000000000000000000000000000000000000000000000000000081526004018080602001828103825260288152602001806133466028913960400191505060405180910390fd5b806000809054906101000a900473ffffffffffffffffffffffffffffffffffffffff1673ffffffffffffffffffffffffffffffffffffffff1663834b5d4760026000848152602001908152602001600020600201546040518263ffffffff1660e01b81526004018082815260200191505060206040518083038186803b158015611c2457600080fd5b505afa158015611c38573d6000803e3d6000fd5b505050506040513d6020811015611c4e57600080fd5b810190808051906020019092919050505073ffffffffffffffffffffffffffffffffffffffff163373ffffffffffffffffffffffffffffffffffffffff161415611ce3576040517f08c379a00000000000000000000000000000000000000000000000000000000081526004018080602001828103825260348152602001806133ad6034913960400191505060405180910390fd5b6005600660008060009054906101000a900473ffffffffffffffffffffffffffffffffffffffff1673ffffffffffffffffffffffffffffffffffffffff1663b9ee6920336040518263ffffffff1660e01b8152600401808273ffffffffffffffffffffffffffffffffffffffff1673ffffffffffffffffffffffffffffffffffffffff16815260200191505060206040518083038186803b158015611d8757600080fd5b505afa158015611d9b573d6000803e3d6000fd5b505050506040513d6020811015611db157600080fd5b810190808051906020019092919050505081526020019081526020016000206000600260008681526020019081526020016000206002015481526020019081526020016000205410611e4e576040517f08c379a000000000000000000000000000000000000000000000000000000000815260040180806020018281038252603f81526020018061336e603f913960400191505060405180910390fd5b6002600083815260200190815260200160002060036000848152602001908152602001600020600082015481600001556001820154816001015560028201548160020155600382015481600301556004820154816004015590505060016004600084815260200190815260200160002060006101000a81548160ff0219169083151502179055506001600660008060009054906101000a900473ffffffffffffffffffffffffffffffffffffffff1673ffffffffffffffffffffffffffffffffffffffff1663b9ee6920336040518263ffffffff1660e01b8152600401808273ffffffffffffffffffffffffffffffffffffffff1673ffffffffffffffffffffffffffffffffffffffff16815260200191505060206040518083038186803b158015611f7957600080fd5b505afa158015611f8d573d6000803e3d6000fd5b505050506040513d6020811015611fa357600080fd5b81019080805190602001909291905050508152602001908152602001600020600060026000868152602001908152602001600020600201548152602001908152602001600020600082825401925050819055506002806000848152602001908152602001600020600401819055506000809054906101000a900473ffffffffffffffffffffffffffffffffffffffff1673ffffffffffffffffffffffffffffffffffffffff16635cdb52bf6000809054906101000a900473ffffffffffffffffffffffffffffffffffffffff1673ffffffffffffffffffffffffffffffffffffffff1663b9ee6920336040518263ffffffff1660e01b8152600401808273ffffffffffffffffffffffffffffffffffffffff1673ffffffffffffffffffffffffffffffffffffffff16815260200191505060206040518083038186803b1580156120ec57600080fd5b505afa158015612100573d6000803e3d6000fd5b505050506040513d602081101561211657600080fd5b81019080805190602001909291905050506040518263ffffffff1660e01b815260040180828152602001915050600060405180830381600087803b15801561215d57600080fd5b505af1158015612171573d6000803e3d6000fd5b505050507ff259268ed2e9f49fcfefb2ee7f0b668fcc57b48c3d0c087388b8957378a4641f826040518082815260200191505060405180910390a15050565b60026020528060005260406000206000915090508060000154908060010154908060020154908060030154908060040154905085565b60046020528060005260406000206000915054906101000a900460ff1681565b606060008090505b60208160ff161080156122595750600060f81b838260ff166020811061223057fe5b1a60f81b7effffffffffffffffffffffffffffffffffffffffffffffffffffffffffffff191614155b1561226b57808060010191505061220e565b60608160ff166040519080825280601f01601f1916602001820160405280156122a35781602001600182028038833980820191505090505b509050600091505b60208260ff161080156122f65750600060f81b848360ff16602081106122cd57fe5b1a60f81b7effffffffffffffffffffffffffffffffffffffffffffffffffffffffffffff191614155b1561235957838260ff166020811061230a57fe5b1a60f81b818360ff168151811061231d57fe5b60200101907effffffffffffffffffffffffffffffffffffffffffffffffffffffffffffff1916908160001a90535081806001019250506122ab565b8092505050919050565b60036020528060005260406000206000915090508060000154908060010154908060020154908060030154908060040154905085565b803373ffffffffffffffffffffffffffffffffffffffff166000809054906101000a900473ffffffffffffffffffffffffffffffffffffffff1673ffffffffffffffffffffffffffffffffffffffff1663097ee8cd60026000858152602001908152602001600020600001546040518263ffffffff1660e01b81526004018082815260200191505060206040518083038186803b15801561243957600080fd5b505afa15801561244d573d6000803e3d6000fd5b505050506040513d602081101561246357600080fd5b810190808051906020019092919050505073ffffffffffffffffffffffffffffffffffffffff16146124e0576040517f08c379a000000000000000000000000000000000000000000000000000000000815260040180806020018281038252602f815260200180613459602f913960400191505060405180910390fd5b600160026000848152602001908152602001600020600301819055507fca0a010228e7c41a47c527c026258668a32604fb6c104bdf002280f9e43a9fbb826040518082815260200191505060405180910390a15050565b60006060829050600081511415612554576000801b915050612560565b60208301519150819150505b919050565b600115156000809054906101000a900473ffffffffffffffffffffffffffffffffffffffff1673ffffffffffffffffffffffffffffffffffffffff166324d7806c336040518263ffffffff1660e01b8152600401808273ffffffffffffffffffffffffffffffffffffffff1673ffffffffffffffffffffffffffffffffffffffff16815260200191505060206040518083038186803b15801561260757600080fd5b505afa15801561261b573d6000803e3d6000fd5b505050506040513d602081101561263157600080fd5b810190808051906020019092919050505015151461269a576040517f08c379a00000000000000000000000000000000000000000000000000000000081526004018080602001828103825260268152602001806133e16026913960400191505060405180910390fd5b8160016004600083815260200190815260200160002060006101000a81548160ff0219169083151502179055612738576040517f08c379a000000000000000000000000000000000000000000000000000000000815260040180806020018281038252601c8152602001807f5265636f7264206973206e6f74206120666c6167676564206f6e652e0000000081525060200191505060405180910390fd5b600360008481526020019081526020016000206005600085815260200190815260200160002060008201548160000155600182015481600101556002820154816002015560038201548160030155600482015481600401559050506000809054906101000a900473ffffffffffffffffffffffffffffffffffffffff1673ffffffffffffffffffffffffffffffffffffffff1663762049306002600086815260200190815260200160002060020154846040518363ffffffff1660e01b81526004018083815260200182815260200192505050600060405180830381600087803b15801561282557600080fd5b505af1158015612839573d6000803e3d6000fd5b50505050600a6000809054906101000a900473ffffffffffffffffffffffffffffffffffffffff1673ffffffffffffffffffffffffffffffffffffffff1663cf901aed60026000878152602001908152602001600020600201546040518263ffffffff1660e01b81526004018082815260200191505060206040518083038186803b1580156128c757600080fd5b505afa1580156128db573d6000803e3d6000fd5b505050506040513d60208110156128f157600080fd5b810190808051906020019092919050505011156129ab576000809054906101000a900473ffffffffffffffffffffffffffffffffffffffff1673ffffffffffffffffffffffffffffffffffffffff1663458333c260026000868152602001908152602001600020600201546040518263ffffffff1660e01b815260040180828152602001915050600060405180830381600087803b15801561299257600080fd5b505af11580156129a6573d6000803e3d6000fd5b505050505b60036000848152602001908152602001600020600080820160009055600182016000905560028201600090556003820160009055600482016000905550506004600084815260200190815260200160002060006101000a81549060ff02191690557f8e647fb511ea0ff7c1f0e305cd738aebd9ace745987d43cc05d1b41c2eae90e2836040518082815260200191505060405180910390a1505050565b600115156000809054906101000a900473ffffffffffffffffffffffffffffffffffffffff1673ffffffffffffffffffffffffffffffffffffffff1663996440c6336040518263ffffffff1660e01b8152600401808273ffffffffffffffffffffffffffffffffffffffff1673ffffffffffffffffffffffffffffffffffffffff16815260200191505060206040518083038186803b158015612aea57600080fd5b505afa158015612afe573d6000803e3d6000fd5b505050506040513d6020811015612b1457600080fd5b8101908080519060200190929190505050151514612b7d576040517f08c379a00000000000000000000000000000000000000000000000000000000081526004018080602001828103825260258152602001806134346025913960400191505060405180910390fd5b600115156000809054906101000a900473ffffffffffffffffffffffffffffffffffffffff1673ffffffffffffffffffffffffffffffffffffffff16634752f9ef6000809054906101000a900473ffffffffffffffffffffffffffffffffffffffff1673ffffffffffffffffffffffffffffffffffffffff1663b9ee6920336040518263ffffffff1660e01b8152600401808273ffffffffffffffffffffffffffffffffffffffff1673ffffffffffffffffffffffffffffffffffffffff16815260200191505060206040518083038186803b158015612c5c57600080fd5b505afa158015612c70573d6000803e3d6000fd5b505050506040513d6020811015612c8657600080fd5b81019080805190602001909291905050506040518263ffffffff1660e01b81526004018082815260200191505060206040518083038186803b158015612ccb57600080fd5b505afa158015612cdf573d6000803e3d6000fd5b505050506040513d6020811015612cf557600080fd5b810190808051906020019092919050505015151415612d5f576040517f08c379a00000000000000000000000000000000000000000000000000000000081526004018080602001828103825260288152602001806133466028913960400191505060405180910390fd5b806000809054906101000a900473ffffffffffffffffffffffffffffffffffffffff1673ffffffffffffffffffffffffffffffffffffffff1663834b5d4760026000848152602001908152602001600020600201546040518263ffffffff1660e01b81526004018082815260200191505060206040518083038186803b158015612de857600080fd5b505afa158015612dfc573d6000803e3d6000fd5b505050506040513d6020811015612e1257600080fd5b810190808051906020019092919050505073ffffffffffffffffffffffffffffffffffffffff163373ffffffffffffffffffffffffffffffffffffffff161415612ea7576040517f08c379a00000000000000000000000000000000000000000000000000000000081526004018080602001828103825260348152602001806133ad6034913960400191505060405180910390fd5b6005600660008060009054906101000a900473ffffffffffffffffffffffffffffffffffffffff1673ffffffffffffffffffffffffffffffffffffffff1663b9ee6920336040518263ffffffff1660e01b8152600401808273ffffffffffffffffffffffffffffffffffffffff1673ffffffffffffffffffffffffffffffffffffffff16815260200191505060206040518083038186803b158015612f4b57600080fd5b505afa158015612f5f573d6000803e3d6000fd5b505050506040513d6020811015612f7557600080fd5b810190808051906020019092919050505081526020019081526020016000206000600260008681526020019081526020016000206002015481526020019081526020016000205410613012576040517f08c379a000000000000000000000000000000000000000000000000000000000815260040180806020018281038252603f81526020018061336e603f913960400191505060405180910390fd5b600160026000848152602001908152602001600020600401819055506001600660008060009054906101000a900473ffffffffffffffffffffffffffffffffffffffff1673ffffffffffffffffffffffffffffffffffffffff1663b9ee6920336040518263ffffffff1660e01b8152600401808273ffffffffffffffffffffffffffffffffffffffff1673ffffffffffffffffffffffffffffffffffffffff16815260200191505060206040518083038186803b1580156130d257600080fd5b505afa1580156130e6573d6000803e3d6000fd5b505050506040513d60208110156130fc57600080fd5b81019080805190602001909291905050508152602001908152602001600020600060026000868152602001908152602001600020600201548152602001908152602001600020600082825401925050819055506000809054906101000a900473ffffffffffffffffffffffffffffffffffffffff1673ffffffffffffffffffffffffffffffffffffffff16635cdb52bf6000809054906101000a900473ffffffffffffffffffffffffffffffffffffffff1673ffffffffffffffffffffffffffffffffffffffff1663b9ee6920336040518263ffffffff1660e01b8152600401808273ffffffffffffffffffffffffffffffffffffffff1673ffffffffffffffffffffffffffffffffffffffff16815260200191505060206040518083038186803b15801561322a57600080fd5b505afa15801561323e573d6000803e3d6000fd5b505050506040513d602081101561325457600080fd5b81019080805190602001909291905050506040518263ffffffff1660e01b815260040180828152602001915050600060405180830381600087803b15801561329b57600080fd5b505af11580156132af573d6000803e3d6000fd5b505050507fedc817e1040d6db4f4664ba8c6d2b3ef756ee4a17f64558a4ee9801550a45722826040518082815260200191505060405180910390a15050565b6006602052816000526040600020602052806000526040600020600091509150505481565b6040518060a001604052806000815260200160008019168152602001600081526020016000815260200160008152509056fe4e6f7420617574686f726973656420617320646f63746f7220697320626c61636b6c69737465642e5468697320646f63746f7220686173206265656e20766572696679696e6720646f63746f7220696e2063686172676520746f6f206d616e792074696d65732e446f63746f7220636865636b696e67206973207468652073616d652061732074686520646f63746f7220696e206368617267652e4f6e6c792061646d696e732063616e206578656375746520746869732066756e6374696f6e2e4e6f742070617469656e742c20646f63746f72206f722061646d696e2c206e6f7420617574686f72697365642e4e6f7420646f63746f722c206e6f7420617574686f726973656420746f207665726966792e4d65646963616c207265636f726420646f6573206e6f742062656c6f6e6720746f207468697320616464726573732e4d65646963616c207265636f726420646f6573206e6f742062656c6f6e6720746f20746869732070617469656e742ea265627a7a723158204d99b6fa6cbd54b0fbd6d523561a108507af757b70c255f0176804e62278d17e64736f6c63430005100032",
  "source": "// pragma solidity ^0.5.0;\r\npragma solidity >=0.4.21 <0.7.0; // version 6 is required for truffle build\r\nimport \"./Users.sol\";\r\n\r\ncontract MedicalRecords {\r\n    Users userContract;\r\n\r\n    //constructor for usercontract\r\n    constructor(Users usersAddress) public {\r\n        userContract = usersAddress;\r\n    }\r\n\r\n    // medical record structure\r\n\r\n    struct medicalRecord {\r\n        uint256 patient;\r\n        bytes32 details;\r\n        uint256 doctorInCharge;\r\n        uint256 patientVerified;\r\n        uint256 doctorVerified;\r\n    }\r\n\r\n    uint256 public numMedicalRecords = 0;\r\n    mapping(uint256 => medicalRecord) public medicalRecords;\r\n    mapping(uint256 => medicalRecord) public flaggedRecords;\r\n    mapping(uint256 => bool) public isFlaggedRecords;\r\n    mapping(uint256 => medicalRecord) public badRecords;\r\n    mapping(uint256 => mapping(uint256 => uint256)) public doctorVerifications;\r\n\r\n    // medical record events\r\n    event createdMedicalRecord(uint256 medicalRecordId);\r\n    event patientVerified(uint256 medicalRecordId);\r\n    event doctorVerified(uint256 medicalRecordId);\r\n    event patientReported(uint256 medicalRecordId);\r\n    event doctorReported(uint256 medicalRecordId);\r\n    event fraudulentReport(uint256 medicalRecordId);\r\n    event wronglyAccusedReport(uint256 medicalRecordId);\r\n    event randomFlaggedReport(uint256 MedicalRecordId);\r\n\r\n    // medical record modifiers\r\n    modifier isPatient(uint256 patientId) {\r\n        require(\r\n            userContract.isExistingPatient(patientId) == true,\r\n            \"No such patient exists.\"\r\n        );\r\n        _;\r\n    }\r\n\r\n    modifier isPatientFromRecord(uint256 medicalRecordId) {\r\n        require(\r\n            userContract.getPatientAddress(\r\n                medicalRecords[medicalRecordId].patient\r\n            ) == msg.sender,\r\n            \"Medical record does not belong to this address.\"\r\n        );\r\n        _;\r\n    }\r\n\r\n    modifier isDoctor(uint256 doctorId) {\r\n        require(\r\n            userContract.isExistingDoctor(doctorId) == true,\r\n            \"No such doctor exists.\"\r\n        );\r\n        _;\r\n    }\r\n\r\n    modifier isDoctorAddress() {\r\n        require(\r\n            userContract.isDoctor(msg.sender) == true,\r\n            \"Not doctor, not authorised to verify.\"\r\n        );\r\n        // SJ thinks that should also ensure this doctor verifying is not the doctor who attended to the patient\r\n        // keef agrees\r\n        _;\r\n    }\r\n\r\n    modifier notSameDoctor(uint256 medicalRecordId) {\r\n        require(\r\n            msg.sender !=\r\n                userContract.getDoctorAddress(\r\n                    medicalRecords[medicalRecordId].doctorInCharge\r\n                ),\r\n            \"Doctor checking is the same as the doctor in charge.\"\r\n        );\r\n        _;\r\n    }\r\n\r\n    modifier isAdmin() {\r\n        require(\r\n            userContract.isAdmin(msg.sender) == true,\r\n            \"Only admins can execute this function.\"\r\n        );\r\n        _;\r\n    }\r\n\r\n    modifier blacklistedId(uint256 doctorId) {\r\n        require(\r\n            userContract.isBlacklisted(doctorId) != true,\r\n            \"Not authorised as doctor is blacklisted.\"\r\n        );\r\n        _;\r\n    }\r\n\r\n    modifier blacklistedAddress() {\r\n        require(\r\n            userContract.isBlacklisted(userContract.getDoctorId(msg.sender)) !=\r\n                true,\r\n            \"Not authorised as doctor is blacklisted.\"\r\n        );\r\n        _;\r\n    }\r\n\r\n    modifier flaggedRecord(uint256 medicalRecordId) {\r\n        require(\r\n            isFlaggedRecords[medicalRecordId] = true,\r\n            \"Record is not a flagged one.\"\r\n        );\r\n        _;\r\n    }\r\n\r\n    // medical record functions\r\n    // function to create medical record\r\n    function createRecord(\r\n        uint256 patientId,\r\n        uint256 doctorId,\r\n        bytes32 details\r\n    )\r\n        public\r\n        isPatient(patientId)\r\n        isDoctor(doctorId)\r\n        blacklistedId(doctorId)\r\n        returns (uint256)\r\n    {\r\n        medicalRecord memory newMedicalRecord =\r\n            medicalRecord(patientId, details, doctorId, 0, 0);\r\n\r\n        uint256 newMedicalRecordId = numMedicalRecords++;\r\n        medicalRecords[newMedicalRecordId] = newMedicalRecord;\r\n        userContract.addRecordCount(patientId);\r\n        userContract.addRecordId(patientId, newMedicalRecordId);\r\n        emit createdMedicalRecord(newMedicalRecordId);\r\n\r\n        // randomly adds medical record to flaggedRecords so random spotchecks can be done\r\n        uint8 randomFlag =\r\n            (uint8)((block.timestamp * (newMedicalRecordId + 1)) % 10) + 1;\r\n        if (randomFlag == 10) {\r\n            flaggedRecords[newMedicalRecordId] = medicalRecords[\r\n                newMedicalRecordId\r\n            ];\r\n            isFlaggedRecords[newMedicalRecordId] = true;\r\n            emit randomFlaggedReport(newMedicalRecordId);\r\n        }\r\n\r\n        return newMedicalRecordId;\r\n    }\r\n\r\n    // function to view medical record\r\n    function viewRecord(uint256 medicalRecordId)\r\n        public\r\n        view\r\n        returns (\r\n            uint256,\r\n            bytes32,\r\n            uint256,\r\n            uint256,\r\n            uint256\r\n        )\r\n    {\r\n        require(\r\n            medicalRecordId <= numMedicalRecords,\r\n            \"Medical record does not exist.\"\r\n        );\r\n\r\n        // requirement that only patient can view this record if the msg.sender is a patient\r\n        if (userContract.isPatient(msg.sender) == true) {\r\n            require(\r\n                userContract.getPatientAddress(\r\n                    medicalRecords[medicalRecordId].patient\r\n                ) == msg.sender,\r\n                \"Medical record does not belong to this patient.\"\r\n            );\r\n        } else if (userContract.isDoctor(msg.sender) == true) {\r\n            require(\r\n                userContract.isBlacklisted(\r\n                    userContract.getDoctorId(msg.sender)\r\n                ),\r\n                \"Not authorised as doctor is blacklisted.\"\r\n            );\r\n        } else {\r\n            require(\r\n                userContract.isAdmin(msg.sender) == true,\r\n                \"Not patient, doctor or admin, not authorised.\"\r\n            );\r\n        }\r\n\r\n        return (\r\n            medicalRecords[medicalRecordId].patient,\r\n            medicalRecords[medicalRecordId].details,\r\n            medicalRecords[medicalRecordId].doctorInCharge,\r\n            medicalRecords[medicalRecordId].patientVerified,\r\n            medicalRecords[medicalRecordId].doctorVerified\r\n        );\r\n    }\r\n\r\n    // function for patient to verify that medical record has no problems\r\n    function patientVerify(uint256 medicalRecordId)\r\n        public\r\n        isPatientFromRecord(medicalRecordId)\r\n    {\r\n        medicalRecords[medicalRecordId].patientVerified = 1;\r\n        emit patientVerified(medicalRecordId);\r\n    }\r\n\r\n    // function for doctor to verify that medical record has no problems\r\n    function doctorVerify(uint256 medicalRecordId)\r\n        public\r\n        isDoctorAddress()\r\n        blacklistedAddress()\r\n        notSameDoctor(medicalRecordId)\r\n    {\r\n        require(\r\n            doctorVerifications[userContract.getDoctorId(msg.sender)][\r\n                medicalRecords[medicalRecordId].doctorInCharge\r\n            ] < 5,\r\n            \"This doctor has been verifying doctor in charge too many times.\"\r\n        );\r\n\r\n        medicalRecords[medicalRecordId].doctorVerified = 1;\r\n        doctorVerifications[userContract.getDoctorId(msg.sender)][\r\n            medicalRecords[medicalRecordId].doctorInCharge\r\n        ] += 1;\r\n        userContract.addAppraisalScore(userContract.getDoctorId(msg.sender));\r\n        emit doctorVerified(medicalRecordId);\r\n    }\r\n\r\n    // function for patient to whistleblow\r\n    function patientReport(uint256 medicalRecordId)\r\n        public\r\n        isPatientFromRecord(medicalRecordId)\r\n    {\r\n        flaggedRecords[medicalRecordId] = medicalRecords[medicalRecordId];\r\n        isFlaggedRecords[medicalRecordId] = true;\r\n        medicalRecords[medicalRecordId].patientVerified = 2;\r\n        emit patientReported(medicalRecordId);\r\n    }\r\n\r\n    // function for verifying doctor to whistleblow\r\n    function doctorReport(uint256 medicalRecordId)\r\n        public\r\n        isDoctorAddress()\r\n        blacklistedAddress()\r\n        notSameDoctor(medicalRecordId)\r\n    {\r\n        require(\r\n            doctorVerifications[userContract.getDoctorId(msg.sender)][\r\n                medicalRecords[medicalRecordId].doctorInCharge\r\n            ] < 5,\r\n            \"This doctor has been verifying doctor in charge too many times.\"\r\n        );\r\n\r\n        flaggedRecords[medicalRecordId] = medicalRecords[medicalRecordId];\r\n        isFlaggedRecords[medicalRecordId] = true;\r\n        doctorVerifications[userContract.getDoctorId(msg.sender)][\r\n            medicalRecords[medicalRecordId].doctorInCharge\r\n        ] += 1;\r\n        medicalRecords[medicalRecordId].doctorVerified = 2;\r\n        userContract.addAppraisalScore(userContract.getDoctorId(msg.sender));\r\n        emit doctorReported(medicalRecordId);\r\n    }\r\n\r\n    // function for admin to classify flagged record as bad record\r\n    function punish(uint256 medicalRecordId, uint256 score)\r\n        public\r\n        isAdmin()\r\n        flaggedRecord(medicalRecordId)\r\n    {\r\n        badRecords[medicalRecordId] = flaggedRecords[medicalRecordId];\r\n        userContract.addPenaltyScore(\r\n            medicalRecords[medicalRecordId].doctorInCharge,\r\n            score\r\n        );\r\n        // TODO: might have to change threshold\r\n        if (\r\n            userContract.getPenaltyScore(\r\n                medicalRecords[medicalRecordId].doctorInCharge\r\n            ) > 10\r\n        ) {\r\n            userContract.blacklistDoctor(\r\n                medicalRecords[medicalRecordId].doctorInCharge\r\n            );\r\n        }\r\n        delete flaggedRecords[medicalRecordId];\r\n        delete isFlaggedRecords[medicalRecordId];\r\n        emit fraudulentReport(medicalRecordId);\r\n    }\r\n\r\n    // function for admin to waive wrongly accused flagged record\r\n    function waive(uint256 medicalRecordId)\r\n        public\r\n        isAdmin()\r\n        flaggedRecord(medicalRecordId)\r\n    {\r\n        delete flaggedRecords[medicalRecordId];\r\n        delete isFlaggedRecords[medicalRecordId];\r\n        medicalRecords[medicalRecordId].patientVerified = 1;\r\n        medicalRecords[medicalRecordId].doctorVerified = 1;\r\n        emit wronglyAccusedReport(medicalRecordId);\r\n    }\r\n\r\n    // function to convert string to bytes32 (to store details)\r\n    function stringToBytes32(string memory source)\r\n        public\r\n        pure\r\n        returns (bytes32 result)\r\n    {\r\n        bytes memory tempEmptyStringTest = bytes(source);\r\n        if (tempEmptyStringTest.length == 0) {\r\n            return 0x0;\r\n        }\r\n\r\n        assembly {\r\n            result := mload(add(source, 32))\r\n        }\r\n        return bytes32(result);\r\n    }\r\n\r\n    // function to convert bytes32 to string (to read details)\r\n    function bytes32ToString(bytes32 _bytes32)\r\n        public\r\n        pure\r\n        returns (string memory)\r\n    {\r\n        uint8 i = 0;\r\n        while (i < 32 && _bytes32[i] != 0) {\r\n            i++;\r\n        }\r\n\r\n        bytes memory bytesArray = new bytes(i);\r\n        for (i = 0; i < 32 && _bytes32[i] != 0; i++) {\r\n            bytesArray[i] = _bytes32[i];\r\n        }\r\n\r\n        return string(bytesArray);\r\n    }\r\n}\r\n",
  "sourcePath": "C:/Users/jiebei/Documents/NUS/Y3S2/IS4302/Project/contracts/MedicalRecords.sol",
  "compiler": {
    "name": "solc",
    "version": "0.5.16+commit.9c3226ce.Emscripten.clang"
  },
  "schemaVersion": "3.3.3",
  "updatedAt": "2021-04-07T06:52:20.561Z",
  "networkType": "ethereum",
  "devdoc": {
    "methods": {}
  },
  "userdoc": {
    "methods": {}
  }
}