{
  "contractName": "Users",
  "abi": [
    {
      "inputs": [],
      "payable": false,
      "stateMutability": "nonpayable",
      "type": "constructor"
    },
    {
      "anonymous": false,
      "inputs": [
        {
          "indexed": false,
          "internalType": "address",
          "name": "admin",
          "type": "address"
        }
      ],
      "name": "registeredAdmin",
      "type": "event"
    },
    {
      "anonymous": false,
      "inputs": [
        {
          "indexed": false,
          "internalType": "address",
          "name": "doctor",
          "type": "address"
        }
      ],
      "name": "registeredDoctor",
      "type": "event"
    },
    {
      "anonymous": false,
      "inputs": [
        {
          "indexed": false,
          "internalType": "address",
          "name": "patient",
          "type": "address"
        }
      ],
      "name": "registeredPatient",
      "type": "event"
    },
    {
      "constant": true,
      "inputs": [
        {
          "internalType": "address",
          "name": "",
          "type": "address"
        }
      ],
      "name": "adminExists",
      "outputs": [
        {
          "internalType": "bool",
          "name": "",
          "type": "bool"
        }
      ],
      "payable": false,
      "stateMutability": "view",
      "type": "function"
    },
    {
      "constant": true,
      "inputs": [
        {
          "internalType": "uint256",
          "name": "",
          "type": "uint256"
        }
      ],
      "name": "admins",
      "outputs": [
        {
          "internalType": "uint256",
          "name": "adminId",
          "type": "uint256"
        },
        {
          "internalType": "address",
          "name": "adminAddress",
          "type": "address"
        }
      ],
      "payable": false,
      "stateMutability": "view",
      "type": "function"
    },
    {
      "constant": true,
      "inputs": [
        {
          "internalType": "address",
          "name": "",
          "type": "address"
        }
      ],
      "name": "doctorExists",
      "outputs": [
        {
          "internalType": "bool",
          "name": "",
          "type": "bool"
        }
      ],
      "payable": false,
      "stateMutability": "view",
      "type": "function"
    },
    {
      "constant": true,
      "inputs": [
        {
          "internalType": "uint256",
          "name": "",
          "type": "uint256"
        }
      ],
      "name": "doctors",
      "outputs": [
        {
          "internalType": "uint256",
          "name": "doctorId",
          "type": "uint256"
        },
        {
          "internalType": "address",
          "name": "doctorAddress",
          "type": "address"
        },
        {
          "internalType": "uint256",
          "name": "penaltyScore",
          "type": "uint256"
        },
        {
          "internalType": "uint256",
          "name": "appraisalScore",
          "type": "uint256"
        },
        {
          "internalType": "bool",
          "name": "blacklisted",
          "type": "bool"
        }
      ],
      "payable": false,
      "stateMutability": "view",
      "type": "function"
    },
    {
      "constant": true,
      "inputs": [
        {
          "internalType": "address",
          "name": "",
          "type": "address"
        }
      ],
      "name": "doctorsByAddress",
      "outputs": [
        {
          "internalType": "uint256",
          "name": "doctorId",
          "type": "uint256"
        },
        {
          "internalType": "address",
          "name": "doctorAddress",
          "type": "address"
        },
        {
          "internalType": "uint256",
          "name": "penaltyScore",
          "type": "uint256"
        },
        {
          "internalType": "uint256",
          "name": "appraisalScore",
          "type": "uint256"
        },
        {
          "internalType": "bool",
          "name": "blacklisted",
          "type": "bool"
        }
      ],
      "payable": false,
      "stateMutability": "view",
      "type": "function"
    },
    {
      "constant": true,
      "inputs": [],
      "name": "numAdmins",
      "outputs": [
        {
          "internalType": "uint256",
          "name": "",
          "type": "uint256"
        }
      ],
      "payable": false,
      "stateMutability": "view",
      "type": "function"
    },
    {
      "constant": true,
      "inputs": [],
      "name": "numDoctors",
      "outputs": [
        {
          "internalType": "uint256",
          "name": "",
          "type": "uint256"
        }
      ],
      "payable": false,
      "stateMutability": "view",
      "type": "function"
    },
    {
      "constant": true,
      "inputs": [],
      "name": "numPatients",
      "outputs": [
        {
          "internalType": "uint256",
          "name": "",
          "type": "uint256"
        }
      ],
      "payable": false,
      "stateMutability": "view",
      "type": "function"
    },
    {
      "constant": true,
      "inputs": [
        {
          "internalType": "address",
          "name": "",
          "type": "address"
        }
      ],
      "name": "patientExists",
      "outputs": [
        {
          "internalType": "bool",
          "name": "",
          "type": "bool"
        }
      ],
      "payable": false,
      "stateMutability": "view",
      "type": "function"
    },
    {
      "constant": true,
      "inputs": [
        {
          "internalType": "uint256",
          "name": "",
          "type": "uint256"
        }
      ],
      "name": "patients",
      "outputs": [
        {
          "internalType": "uint256",
          "name": "patientId",
          "type": "uint256"
        },
        {
          "internalType": "address",
          "name": "patientAddress",
          "type": "address"
        },
        {
          "internalType": "uint256",
          "name": "recordNumber",
          "type": "uint256"
        }
      ],
      "payable": false,
      "stateMutability": "view",
      "type": "function"
    },
    {
      "constant": false,
      "inputs": [],
      "name": "registerPatient",
      "outputs": [
        {
          "internalType": "uint256",
          "name": "",
          "type": "uint256"
        }
      ],
      "payable": false,
      "stateMutability": "nonpayable",
      "type": "function"
    },
    {
      "constant": false,
      "inputs": [
        {
          "internalType": "address",
          "name": "doctorAddress",
          "type": "address"
        }
      ],
      "name": "registerDoctor",
      "outputs": [
        {
          "internalType": "uint256",
          "name": "",
          "type": "uint256"
        }
      ],
      "payable": false,
      "stateMutability": "nonpayable",
      "type": "function"
    },
    {
      "constant": false,
      "inputs": [
        {
          "internalType": "address",
          "name": "adminAddress",
          "type": "address"
        }
      ],
      "name": "registerAdmin",
      "outputs": [
        {
          "internalType": "uint256",
          "name": "",
          "type": "uint256"
        }
      ],
      "payable": false,
      "stateMutability": "nonpayable",
      "type": "function"
    },
    {
      "constant": true,
      "inputs": [
        {
          "internalType": "address",
          "name": "user",
          "type": "address"
        }
      ],
      "name": "isPatient",
      "outputs": [
        {
          "internalType": "bool",
          "name": "",
          "type": "bool"
        }
      ],
      "payable": false,
      "stateMutability": "view",
      "type": "function"
    },
    {
      "constant": true,
      "inputs": [
        {
          "internalType": "address",
          "name": "user",
          "type": "address"
        }
      ],
      "name": "isDoctor",
      "outputs": [
        {
          "internalType": "bool",
          "name": "",
          "type": "bool"
        }
      ],
      "payable": false,
      "stateMutability": "view",
      "type": "function"
    },
    {
      "constant": true,
      "inputs": [
        {
          "internalType": "address",
          "name": "user",
          "type": "address"
        }
      ],
      "name": "isAdmin",
      "outputs": [
        {
          "internalType": "bool",
          "name": "",
          "type": "bool"
        }
      ],
      "payable": false,
      "stateMutability": "view",
      "type": "function"
    },
    {
      "constant": true,
      "inputs": [
        {
          "internalType": "uint256",
          "name": "patientId",
          "type": "uint256"
        }
      ],
      "name": "isExistingPatient",
      "outputs": [
        {
          "internalType": "bool",
          "name": "",
          "type": "bool"
        }
      ],
      "payable": false,
      "stateMutability": "view",
      "type": "function"
    },
    {
      "constant": true,
      "inputs": [
        {
          "internalType": "uint256",
          "name": "doctorId",
          "type": "uint256"
        }
      ],
      "name": "isExistingDoctor",
      "outputs": [
        {
          "internalType": "bool",
          "name": "",
          "type": "bool"
        }
      ],
      "payable": false,
      "stateMutability": "view",
      "type": "function"
    },
    {
      "constant": true,
      "inputs": [
        {
          "internalType": "uint256",
          "name": "patientId",
          "type": "uint256"
        }
      ],
      "name": "getPatientAddress",
      "outputs": [
        {
          "internalType": "address",
          "name": "",
          "type": "address"
        }
      ],
      "payable": false,
      "stateMutability": "view",
      "type": "function"
    },
    {
      "constant": true,
      "inputs": [
        {
          "internalType": "uint256",
          "name": "doctorId",
          "type": "uint256"
        }
      ],
      "name": "getDoctorAddress",
      "outputs": [
        {
          "internalType": "address",
          "name": "",
          "type": "address"
        }
      ],
      "payable": false,
      "stateMutability": "view",
      "type": "function"
    },
    {
      "constant": true,
      "inputs": [
        {
          "internalType": "address",
          "name": "user",
          "type": "address"
        }
      ],
      "name": "getDoctorId",
      "outputs": [
        {
          "internalType": "uint256",
          "name": "",
          "type": "uint256"
        }
      ],
      "payable": false,
      "stateMutability": "view",
      "type": "function"
    },
    {
      "constant": true,
      "inputs": [
        {
          "internalType": "uint256",
          "name": "patientId",
          "type": "uint256"
        }
      ],
      "name": "getRecordNumber",
      "outputs": [
        {
          "internalType": "uint256",
          "name": "",
          "type": "uint256"
        }
      ],
      "payable": false,
      "stateMutability": "view",
      "type": "function"
    },
    {
      "constant": true,
      "inputs": [
        {
          "internalType": "uint256",
          "name": "patientId",
          "type": "uint256"
        }
      ],
      "name": "getRecordIds",
      "outputs": [
        {
          "internalType": "uint256[]",
          "name": "",
          "type": "uint256[]"
        }
      ],
      "payable": false,
      "stateMutability": "view",
      "type": "function"
    },
    {
      "constant": true,
      "inputs": [
        {
          "internalType": "uint256",
          "name": "doctorId",
          "type": "uint256"
        }
      ],
      "name": "getPenaltyScore",
      "outputs": [
        {
          "internalType": "uint256",
          "name": "",
          "type": "uint256"
        }
      ],
      "payable": false,
      "stateMutability": "view",
      "type": "function"
    },
    {
      "constant": true,
      "inputs": [
        {
          "internalType": "uint256",
          "name": "doctorId",
          "type": "uint256"
        }
      ],
      "name": "getAppraisalScore",
      "outputs": [
        {
          "internalType": "uint256",
          "name": "",
          "type": "uint256"
        }
      ],
      "payable": false,
      "stateMutability": "view",
      "type": "function"
    },
    {
      "constant": false,
      "inputs": [
        {
          "internalType": "uint256",
          "name": "patientId",
          "type": "uint256"
        },
        {
          "internalType": "uint256",
          "name": "medicalRecordId",
          "type": "uint256"
        }
      ],
      "name": "addRecordId",
      "outputs": [],
      "payable": false,
      "stateMutability": "nonpayable",
      "type": "function"
    },
    {
      "constant": false,
      "inputs": [
        {
          "internalType": "uint256",
          "name": "patientId",
          "type": "uint256"
        }
      ],
      "name": "addRecordCount",
      "outputs": [],
      "payable": false,
      "stateMutability": "nonpayable",
      "type": "function"
    },
    {
      "constant": false,
      "inputs": [
        {
          "internalType": "uint256",
          "name": "doctorId",
          "type": "uint256"
        },
        {
          "internalType": "uint256",
          "name": "score",
          "type": "uint256"
        }
      ],
      "name": "addPenaltyScore",
      "outputs": [],
      "payable": false,
      "stateMutability": "nonpayable",
      "type": "function"
    },
    {
      "constant": false,
      "inputs": [
        {
          "internalType": "uint256",
          "name": "doctorId",
          "type": "uint256"
        }
      ],
      "name": "addAppraisalScore",
      "outputs": [],
      "payable": false,
      "stateMutability": "nonpayable",
      "type": "function"
    },
    {
      "constant": false,
      "inputs": [
        {
          "internalType": "uint256",
          "name": "doctorId",
          "type": "uint256"
        }
      ],
      "name": "blacklistDoctor",
      "outputs": [],
      "payable": false,
      "stateMutability": "nonpayable",
      "type": "function"
    },
    {
      "constant": true,
      "inputs": [
        {
          "internalType": "uint256",
          "name": "doctorId",
          "type": "uint256"
        }
      ],
      "name": "isBlacklisted",
      "outputs": [
        {
          "internalType": "bool",
          "name": "",
          "type": "bool"
        }
      ],
      "payable": false,
      "stateMutability": "view",
      "type": "function"
    }
  ],
  "bytecode": "0x608060405260006001556000600255600060035534801561001f57600080fd5b50336000806101000a81548173ffffffffffffffffffffffffffffffffffffffff021916908373ffffffffffffffffffffffffffffffffffffffff16021790555061241d8061006f6000396000f3fe608060405234801561001057600080fd5b50600436106101e55760003560e01c8063822d38851161010f5780639f7af8c5116100a2578063c38c581311610071578063c38c581314610ac0578063cf901aed14610b18578063d8a4ae0a14610b5a578063fb3bf34814610b88576101e5565b80639f7af8c5146109a8578063aea7dd2e146109ee578063b9ee692014610a30578063bda1b5f314610a88576101e5565b806396eeaf76116100de57806396eeaf7614610827578063996440c61461086d5780639be2d095146108c95780639bf2476e14610925576101e5565b8063822d3885146106c3578063834b5d47146106e15780638f9c79ed1461074f57806393119a83146107ab576101e5565b8063458333c2116101875780635cdb52bf116101565780635cdb52bf14610577578063699ca998146105a55780636efb1b84146105fd578063762049301461068b576101e5565b8063458333c2146104895780634752f9ef146104b757806351710f03146104fd5780635c6a5bb114610559576101e5565b806314bfd6d0116101c357806314bfd6d0146102b857806324d7806c1461032d578063259fd8a3146103895780632ad230a91461042d576101e5565b8063035cc22b146101ea578063097ee8cd1461022c5780630efd49891461029a575b600080fd5b6102166004803603602081101561020057600080fd5b8101908080359060200190929190505050610ba6565b6040518082815260200191505060405180910390f35b6102586004803603602081101561024257600080fd5b8101908080359060200190929190505050610d1e565b604051808273ffffffffffffffffffffffffffffffffffffffff1673ffffffffffffffffffffffffffffffffffffffff16815260200191505060405180910390f35b6102a2610ddf565b6040518082815260200191505060405180910390f35b6102e4600480360360208110156102ce57600080fd5b8101908080359060200190929190505050610de5565b604051808381526020018273ffffffffffffffffffffffffffffffffffffffff1673ffffffffffffffffffffffffffffffffffffffff1681526020019250505060405180910390f35b61036f6004803603602081101561034357600080fd5b81019080803573ffffffffffffffffffffffffffffffffffffffff169060200190929190505050610e29565b604051808215151515815260200191505060405180910390f35b6103cb6004803603602081101561039f57600080fd5b81019080803573ffffffffffffffffffffffffffffffffffffffff169060200190929190505050610ede565b604051808681526020018573ffffffffffffffffffffffffffffffffffffffff1673ffffffffffffffffffffffffffffffffffffffff168152602001848152602001838152602001821515151581526020019550505050505060405180910390f35b61046f6004803603602081101561044357600080fd5b81019080803573ffffffffffffffffffffffffffffffffffffffff169060200190929190505050610f41565b604051808215151515815260200191505060405180910390f35b6104b56004803603602081101561049f57600080fd5b8101908080359060200190929190505050610f61565b005b6104e3600480360360208110156104cd57600080fd5b8101908080359060200190929190505050611014565b604051808215151515815260200191505060405180910390f35b61053f6004803603602081101561051357600080fd5b81019080803573ffffffffffffffffffffffffffffffffffffffff1690602001909291905050506110c2565b604051808215151515815260200191505060405180910390f35b6105616110e2565b6040518082815260200191505060405180910390f35b6105a36004803603602081101561058d57600080fd5b81019080803590602001909291905050506110e8565b005b6105e7600480360360208110156105bb57600080fd5b81019080803573ffffffffffffffffffffffffffffffffffffffff169060200190929190505050611191565b6040518082815260200191505060405180910390f35b6106296004803603602081101561061357600080fd5b810190808035906020019092919050505061151b565b604051808681526020018573ffffffffffffffffffffffffffffffffffffffff1673ffffffffffffffffffffffffffffffffffffffff168152602001848152602001838152602001821515151581526020019550505050505060405180910390f35b6106c1600480360360408110156106a157600080fd5b81019080803590602001909291908035906020019092919050505061157e565b005b6106cb611627565b6040518082815260200191505060405180910390f35b61070d600480360360208110156106f757600080fd5b810190808035906020019092919050505061189a565b604051808273ffffffffffffffffffffffffffffffffffffffff1673ffffffffffffffffffffffffffffffffffffffff16815260200191505060405180910390f35b6107916004803603602081101561076557600080fd5b81019080803573ffffffffffffffffffffffffffffffffffffffff16906020019092919050505061195b565b604051808215151515815260200191505060405180910390f35b6107d7600480360360208110156107c157600080fd5b81019080803590602001909291905050506119b1565b604051808481526020018373ffffffffffffffffffffffffffffffffffffffff1673ffffffffffffffffffffffffffffffffffffffff168152602001828152602001935050505060405180910390f35b6108536004803603602081101561083d57600080fd5b81019080803590602001909291905050506119fb565b604051808215151515815260200191505060405180910390f35b6108af6004803603602081101561088357600080fd5b81019080803573ffffffffffffffffffffffffffffffffffffffff169060200190929190505050611a8b565b604051808215151515815260200191505060405180910390f35b61090b600480360360208110156108df57600080fd5b81019080803573ffffffffffffffffffffffffffffffffffffffff169060200190929190505050611ae1565b604051808215151515815260200191505060405180910390f35b6109516004803603602081101561093b57600080fd5b8101908080359060200190929190505050611b01565b6040518080602001828103825283818151815260200191508051906020019060200280838360005b83811015610994578082015181840152602081019050610979565b505050509050019250505060405180910390f35b6109d4600480360360208110156109be57600080fd5b8101908080359060200190929190505050611ccd565b604051808215151515815260200191505060405180910390f35b610a1a60048036036020811015610a0457600080fd5b8101908080359060200190929190505050611d5d565b6040518082815260200191505060405180910390f35b610a7260048036036020811015610a4657600080fd5b81019080803573ffffffffffffffffffffffffffffffffffffffff169060200190929190505050611dfe565b6040518082815260200191505060405180910390f35b610abe60048036036040811015610a9e57600080fd5b810190808035906020019092919080359060200190929190505050611f10565b005b610b0260048036036020811015610ad657600080fd5b81019080803573ffffffffffffffffffffffffffffffffffffffff169060200190929190505050611f54565b6040518082815260200191505060405180910390f35b610b4460048036036020811015610b2e57600080fd5b81019080803590602001909291905050506121cd565b6040518082815260200191505060405180910390f35b610b8660048036036020811015610b7057600080fd5b810190808035906020019092919050505061226e565b005b610b90612296565b6040518082815260200191505060405180910390f35b60008160011515816001541015151514610c28576040517f08c379a00000000000000000000000000000000000000000000000000000000081526004018080602001828103825260178152602001807f50617469656e7420646f6573206e6f742065786973742e00000000000000000081525060200191505060405180910390fd5b3373ffffffffffffffffffffffffffffffffffffffff166006600085815260200190815260200160002060010160009054906101000a900473ffffffffffffffffffffffffffffffffffffffff1673ffffffffffffffffffffffffffffffffffffffff1614610cff576040517f08c379a00000000000000000000000000000000000000000000000000000000081526004018080602001828103825260178152602001807f4e6f7420617574686f726973656420746f20766965772e00000000000000000081525060200191505060405180910390fd5b6006600084815260200190815260200160002060020154915050919050565b60008160011515816001541015151514610da0576040517f08c379a00000000000000000000000000000000000000000000000000000000081526004018080602001828103825260178152602001807f50617469656e7420646f6573206e6f742065786973742e00000000000000000081525060200191505060405180910390fd5b6006600084815260200190815260200160002060010160009054906101000a900473ffffffffffffffffffffffffffffffffffffffff16915050919050565b60035481565b60046020528060005260406000206000915090508060000154908060010160009054906101000a900473ffffffffffffffffffffffffffffffffffffffff16905082565b60008060009054906101000a900473ffffffffffffffffffffffffffffffffffffffff1673ffffffffffffffffffffffffffffffffffffffff168273ffffffffffffffffffffffffffffffffffffffff161415610e895760019050610ed9565b600560008373ffffffffffffffffffffffffffffffffffffffff1673ffffffffffffffffffffffffffffffffffffffff16815260200190815260200160002060009054906101000a900460ff1690505b919050565b60096020528060005260406000206000915090508060000154908060010160009054906101000a900473ffffffffffffffffffffffffffffffffffffffff16908060020154908060030154908060040160009054906101000a900460ff16905085565b600a6020528060005260406000206000915054906101000a900460ff1681565b8060011515816002541015151514610fe1576040517f08c379a00000000000000000000000000000000000000000000000000000000081526004018080602001828103825260168152602001807f446f63746f7220646f6573206e6f742065786973742e0000000000000000000081525060200191505060405180910390fd5b60016008600084815260200190815260200160002060040160006101000a81548160ff0219169083151502179055505050565b60008160011515816002541015151514611096576040517f08c379a00000000000000000000000000000000000000000000000000000000081526004018080602001828103825260168152602001807f446f63746f7220646f6573206e6f742065786973742e0000000000000000000081525060200191505060405180910390fd5b6008600084815260200190815260200160002060040160009054906101000a900460ff16915050919050565b60076020528060005260406000206000915054906101000a900460ff1681565b60025481565b8060011515816002541015151514611168576040517f08c379a00000000000000000000000000000000000000000000000000000000081526004018080602001828103825260168152602001807f446f63746f7220646f6573206e6f742065786973742e0000000000000000000081525060200191505060405180910390fd5b600160086000848152602001908152602001600020600301600082825401925050819055505050565b600060011515600560003373ffffffffffffffffffffffffffffffffffffffff1673ffffffffffffffffffffffffffffffffffffffff16815260200190815260200160002060009054906101000a900460ff161515148061123e57506000809054906101000a900473ffffffffffffffffffffffffffffffffffffffff1673ffffffffffffffffffffffffffffffffffffffff163373ffffffffffffffffffffffffffffffffffffffff16145b611293576040517f08c379a00000000000000000000000000000000000000000000000000000000081526004018080602001828103825260258152602001806123c46025913960400191505060405180910390fd5b600060026000815460010191905081905590506112ae61229c565b6040518060a001604052808381526020018573ffffffffffffffffffffffffffffffffffffffff168152602001600081526020016000815260200160001515815250905080600860008481526020019081526020016000206000820151816000015560208201518160010160006101000a81548173ffffffffffffffffffffffffffffffffffffffff021916908373ffffffffffffffffffffffffffffffffffffffff160217905550604082015181600201556060820151816003015560808201518160040160006101000a81548160ff0219169083151502179055509050506001600a60008673ffffffffffffffffffffffffffffffffffffffff1673ffffffffffffffffffffffffffffffffffffffff16815260200190815260200160002060006101000a81548160ff02191690831515021790555080600960008673ffffffffffffffffffffffffffffffffffffffff1673ffffffffffffffffffffffffffffffffffffffff1681526020019081526020016000206000820151816000015560208201518160010160006101000a81548173ffffffffffffffffffffffffffffffffffffffff021916908373ffffffffffffffffffffffffffffffffffffffff160217905550604082015181600201556060820151816003015560808201518160040160006101000a81548160ff0219169083151502179055509050507f03de501f354aef75c8d06ec08f31714a24818ac15c8bb0e10b5e846a339d5fac84604051808273ffffffffffffffffffffffffffffffffffffffff1673ffffffffffffffffffffffffffffffffffffffff16815260200191505060405180910390a18192505050919050565b60086020528060005260406000206000915090508060000154908060010160009054906101000a900473ffffffffffffffffffffffffffffffffffffffff16908060020154908060030154908060040160009054906101000a900460ff16905085565b81600115158160025410151515146115fe576040517f08c379a00000000000000000000000000000000000000000000000000000000081526004018080602001828103825260168152602001807f446f63746f7220646f6573206e6f742065786973742e0000000000000000000081525060200191505060405180910390fd5b816008600085815260200190815260200160002060020160008282540192505081905550505050565b600060011515600760003373ffffffffffffffffffffffffffffffffffffffff1673ffffffffffffffffffffffffffffffffffffffff16815260200190815260200160002060009054906101000a900460ff16151514156116f0576040517f08c379a000000000000000000000000000000000000000000000000000000000815260040180806020018281038252601d8152602001807f4164647265737320697320616c726561647920612070617469656e742e00000081525060200191505060405180910390fd5b60006001600081546001019190508190559050606061170d6122e3565b60405180608001604052808481526020013373ffffffffffffffffffffffffffffffffffffffff1681526020016000815260200183815250905080600660008581526020019081526020016000206000820151816000015560208201518160010160006101000a81548173ffffffffffffffffffffffffffffffffffffffff021916908373ffffffffffffffffffffffffffffffffffffffff1602179055506040820151816002015560608201518160030190805190602001906117d2929190612321565b509050506001600760003373ffffffffffffffffffffffffffffffffffffffff1673ffffffffffffffffffffffffffffffffffffffff16815260200190815260200160002060006101000a81548160ff0219169083151502179055507f59ba2fa90869a7d8434091965c193d9c7d736330db80a18bc11c7d60ed14b0cb33604051808273ffffffffffffffffffffffffffffffffffffffff1673ffffffffffffffffffffffffffffffffffffffff16815260200191505060405180910390a182935050505090565b6000816001151581600254101515151461191c576040517f08c379a00000000000000000000000000000000000000000000000000000000081526004018080602001828103825260168152602001807f446f63746f7220646f6573206e6f742065786973742e0000000000000000000081525060200191505060405180910390fd5b6008600084815260200190815260200160002060010160009054906101000a900473ffffffffffffffffffffffffffffffffffffffff16915050919050565b6000600760008373ffffffffffffffffffffffffffffffffffffffff1673ffffffffffffffffffffffffffffffffffffffff16815260200190815260200160002060009054906101000a900460ff169050919050565b60066020528060005260406000206000915090508060000154908060010160009054906101000a900473ffffffffffffffffffffffffffffffffffffffff16908060020154905083565b60008160011515816002541015151514611a7d576040517f08c379a00000000000000000000000000000000000000000000000000000000081526004018080602001828103825260168152602001807f446f63746f7220646f6573206e6f742065786973742e0000000000000000000081525060200191505060405180910390fd5b600254831115915050919050565b6000600a60008373ffffffffffffffffffffffffffffffffffffffff1673ffffffffffffffffffffffffffffffffffffffff16815260200190815260200160002060009054906101000a900460ff169050919050565b60056020528060005260406000206000915054906101000a900460ff1681565b60608160011515816001541015151514611b83576040517f08c379a00000000000000000000000000000000000000000000000000000000081526004018080602001828103825260178152602001807f50617469656e7420646f6573206e6f742065786973742e00000000000000000081525060200191505060405180910390fd5b3373ffffffffffffffffffffffffffffffffffffffff166006600085815260200190815260200160002060010160009054906101000a900473ffffffffffffffffffffffffffffffffffffffff1673ffffffffffffffffffffffffffffffffffffffff1614611c5a576040517f08c379a00000000000000000000000000000000000000000000000000000000081526004018080602001828103825260178152602001807f4e6f7420617574686f726973656420746f20766965772e00000000000000000081525060200191505060405180910390fd5b606060066000858152602001908152602001600020600301805480602002602001604051908101604052809291908181526020018280548015611cbc57602002820191906000526020600020905b815481526020019060010190808311611ca8575b505050505090508092505050919050565b60008160011515816001541015151514611d4f576040517f08c379a00000000000000000000000000000000000000000000000000000000081526004018080602001828103825260178152602001807f50617469656e7420646f6573206e6f742065786973742e00000000000000000081525060200191505060405180910390fd5b600154831115915050919050565b60008160011515816002541015151514611ddf576040517f08c379a00000000000000000000000000000000000000000000000000000000081526004018080602001828103825260168152602001807f446f63746f7220646f6573206e6f742065786973742e0000000000000000000081525060200191505060405180910390fd5b6008600084815260200190815260200160002060030154915050919050565b600060011515600a60008473ffffffffffffffffffffffffffffffffffffffff1673ffffffffffffffffffffffffffffffffffffffff16815260200190815260200160002060009054906101000a900460ff16151514611ec6576040517f08c379a00000000000000000000000000000000000000000000000000000000081526004018080602001828103825260158152602001807f55736572206973206e6f74206120646f63746f722e000000000000000000000081525060200191505060405180910390fd5b600960008373ffffffffffffffffffffffffffffffffffffffff1673ffffffffffffffffffffffffffffffffffffffff168152602001908152602001600020600001549050919050565b600660008381526020019081526020016000206003018190806001815401808255809150509060018203906000526020600020016000909192909190915055505050565b600060011515600560003373ffffffffffffffffffffffffffffffffffffffff1673ffffffffffffffffffffffffffffffffffffffff16815260200190815260200160002060009054906101000a900460ff161515148061200157506000809054906101000a900473ffffffffffffffffffffffffffffffffffffffff1673ffffffffffffffffffffffffffffffffffffffff163373ffffffffffffffffffffffffffffffffffffffff16145b612056576040517f08c379a00000000000000000000000000000000000000000000000000000000081526004018080602001828103825260258152602001806123c46025913960400191505060405180910390fd5b60006003600081548092919060010191905055905061207361236e565b60405180604001604052808381526020018573ffffffffffffffffffffffffffffffffffffffff16815250905080600460008481526020019081526020016000206000820151816000015560208201518160010160006101000a81548173ffffffffffffffffffffffffffffffffffffffff021916908373ffffffffffffffffffffffffffffffffffffffff1602179055509050506001600560008673ffffffffffffffffffffffffffffffffffffffff1673ffffffffffffffffffffffffffffffffffffffff16815260200190815260200160002060006101000a81548160ff0219169083151502179055507f3c36ffaebd73fd051200179ef62bb400c708f4311d1a2e4779a3c2bde936360884604051808273ffffffffffffffffffffffffffffffffffffffff1673ffffffffffffffffffffffffffffffffffffffff16815260200191505060405180910390a18192505050919050565b6000816001151581600254101515151461224f576040517f08c379a00000000000000000000000000000000000000000000000000000000081526004018080602001828103825260168152602001807f446f63746f7220646f6573206e6f742065786973742e0000000000000000000081525060200191505060405180910390fd5b6008600084815260200190815260200160002060020154915050919050565b6001600660008381526020019081526020016000206002016000828254019250508190555050565b60015481565b6040518060a0016040528060008152602001600073ffffffffffffffffffffffffffffffffffffffff16815260200160008152602001600081526020016000151581525090565b604051806080016040528060008152602001600073ffffffffffffffffffffffffffffffffffffffff16815260200160008152602001606081525090565b82805482825590600052602060002090810192821561235d579160200282015b8281111561235c578251825591602001919060010190612341565b5b50905061236a919061239e565b5090565b604051806040016040528060008152602001600073ffffffffffffffffffffffffffffffffffffffff1681525090565b6123c091905b808211156123bc5760008160009055506001016123a4565b5090565b9056fe4f6e6c792061646d696e2063616e20706572666f726d20746869732066756e6374696f6e2ea265627a7a7231582094cfe44e5c2c730e514fdaf47c204148f398f3b62ad8dfeb70f3b2261ade9c0b64736f6c63430005100032",
  "source": "//pragma solidity ^0.5.0;\npragma solidity >=0.4.21 <0.7.0; // version 6 is required for truffle build\n\ncontract Users {\n    address masterAdmin;\n\n    constructor() public {\n        masterAdmin = msg.sender;\n    }\n\n    // patient structure\n    struct patient {\n        uint256 patientId;\n        address patientAddress;\n        uint256 recordNumber;\n        uint256[] recordIds;\n    }\n\n    // doctor structure\n    struct doctor {\n        uint256 doctorId;\n        address doctorAddress;\n        uint256 penaltyScore;\n        uint256 appraisalScore;\n        bool blacklisted;\n    }\n\n    // admin structure\n    struct admin {\n        uint256 adminId;\n        address adminAddress;\n    }\n\n    // user structure\n    uint256 public numPatients = 0;\n    uint256 public numDoctors = 0;\n    uint256 public numAdmins = 0;\n\n    mapping(uint256 => admin) public admins;\n    mapping(address => bool) public adminExists;\n\n    mapping(uint256 => patient) public patients;\n    mapping(address => bool) public patientExists;\n    mapping(uint256 => doctor) public doctors;\n    mapping(address => doctor) public doctorsByAddress;\n    mapping(address => bool) public doctorExists;\n\n    // user events\n    event registeredPatient(address patient);\n    event registeredDoctor(address doctor);\n    event registeredAdmin(address admin);\n\n    // user modifiers\n    modifier adminOnly() {\n        // we might have to add more admins later\n        require(\n            adminExists[msg.sender] == true || msg.sender == masterAdmin,\n            \"Only admin can perform this function.\"\n        );\n        _;\n    }\n\n    modifier doctorExist(uint256 doctorId) {\n        require(numDoctors >= doctorId == true, \"Doctor does not exist.\");\n        _;\n    }\n\n    modifier patientExist(uint256 patientId) {\n        require(numPatients >= patientId == true, \"Patient does not exist.\");\n        _;\n    }\n\n    // user functions\n\n    // function to add and register patient\n    function registerPatient() public returns (uint256) {\n        require(\n            patientExists[msg.sender] != true,\n            \"Address is already a patient.\"\n        );\n        uint256 newPatientId = ++numPatients;\n\n        uint256[] memory init_arr;\n        patient memory newPatient = patient(newPatientId, msg.sender, 0, init_arr);\n\n        patients[newPatientId] = newPatient;\n        patientExists[msg.sender] = true;\n        emit registeredPatient(msg.sender);\n        return newPatientId;\n    }\n\n    // function to add and register doctor\n    function registerDoctor(address doctorAddress)\n        public\n        adminOnly()\n        returns (uint256)\n    {\n        uint256 newDoctorId = ++numDoctors;\n\n        doctor memory newDoctor =\n            doctor(newDoctorId, doctorAddress, 0, 0, false);\n\n        doctors[newDoctorId] = newDoctor;\n        doctorExists[doctorAddress] = true;\n        doctorsByAddress[doctorAddress] = newDoctor;\n        emit registeredDoctor(doctorAddress);\n        return newDoctorId;\n    }\n\n    //function to add and register admin\n    function registerAdmin(address adminAddress)\n        public\n        adminOnly()\n        returns (uint256)\n    {\n        uint256 newAdminId = numAdmins++;\n\n        admin memory newAdmin = admin(newAdminId, adminAddress);\n\n        admins[newAdminId] = newAdmin;\n        adminExists[adminAddress] = true;\n        emit registeredAdmin(adminAddress);\n        return newAdminId;\n    }\n\n    // function to see if address is a patient\n    function isPatient(address user) public view returns (bool) {\n        return patientExists[user];\n    }\n\n    // function to see if address is a doctor\n    function isDoctor(address user) public view returns (bool) {\n        return doctorExists[user];\n    }\n\n    // function to see if address is an admin\n    function isAdmin(address user) public view returns (bool) {\n        if (user == masterAdmin) {\n            return true;\n        }\n        return adminExists[user];\n    }\n\n    // function to see if patient exists\n    function isExistingPatient(uint256 patientId)\n        public\n        view\n        patientExist(patientId)\n        returns (bool)\n    {\n        return patientId <= numPatients;\n    }\n\n    // function to see if doctor exists\n    function isExistingDoctor(uint256 doctorId)\n        public\n        view\n        doctorExist(doctorId)\n        returns (bool)\n    {\n        return doctorId <= numDoctors;\n    }\n\n    // function to get patient\n    function getPatientAddress(uint256 patientId)\n        public\n        view\n        patientExist(patientId)\n        returns (address)\n    {\n        return patients[patientId].patientAddress;\n    }\n\n    // function to get doctor\n    function getDoctorAddress(uint256 doctorId)\n        public\n        view\n        doctorExist(doctorId)\n        returns (address)\n    {\n        return doctors[doctorId].doctorAddress;\n    }\n\n    // function to get doctor id by address\n    function getDoctorId(address user) public view returns (uint256) {\n        require(doctorExists[user] == true, \"User is not a doctor.\");\n        return doctorsByAddress[user].doctorId;\n    }\n\n    // function to check patient's number of records\n    function getRecordNumber(uint256 patientId)\n        public\n        view\n        patientExist(patientId)\n        returns (uint256)\n    {\n        // not sure if this requirement is too strict\n        require(\n            patients[patientId].patientAddress == msg.sender,\n            \"Not authorised to view.\"\n        );\n\n        return patients[patientId].recordNumber;\n    }\n\n    // function to check patient's list of recordIds\n    function getRecordIds(uint256 patientId)\n        public\n        view\n        patientExist(patientId)\n        returns (uint256[] memory)\n    {\n        // not sure if this requirement is too strict\n        require(\n            patients[patientId].patientAddress == msg.sender,\n            \"Not authorised to view.\"\n        );\n\n        uint256[] memory recordIds = patients[patientId].recordIds;\n        return recordIds;\n    }\n\n    // function to check doctor's penalty score\n    function getPenaltyScore(uint256 doctorId)\n        public\n        view\n        doctorExist(doctorId)\n        returns (uint256)\n    {\n        return doctors[doctorId].penaltyScore;\n    }\n\n    // function to check doctor's appraisal score\n    function getAppraisalScore(uint256 doctorId)\n        public\n        view\n        doctorExist(doctorId)\n        returns (uint256)\n    {\n        return doctors[doctorId].appraisalScore;\n    }\n\n    // function to add medical record id to patient's list\n    function addRecordId(uint256 patientId, uint256 medicalRecordId) public {\n        patients[patientId].recordIds.push(medicalRecordId);\n    }\n\n    // function to add medical record count to patient\n    function addRecordCount(uint256 patientId) public {\n        patients[patientId].recordNumber += 1;\n    }\n\n    // function to add penalty score\n    function addPenaltyScore(uint256 doctorId, uint256 score)\n        external\n        doctorExist(doctorId)\n    {\n        doctors[doctorId].penaltyScore += score;\n    }\n\n    // function to add appraisal score\n    function addAppraisalScore(uint256 doctorId)\n        external\n        doctorExist(doctorId)\n    {\n        doctors[doctorId].appraisalScore += 1;\n    }\n\n    // function to blacklist doctor\n    function blacklistDoctor(uint256 doctorId) external doctorExist(doctorId) {\n        doctors[doctorId].blacklisted = true;\n    }\n\n    // function to check if doctor is blacklisted\n    function isBlacklisted(uint256 doctorId)\n        public\n        view\n        doctorExist(doctorId)\n        returns (bool)\n    {\n        return doctors[doctorId].blacklisted;\n    }\n}\n",
  "sourcePath": "/Users/yeeqinghew/Desktop/is4302/contracts/Users.sol",
  "compiler": {
    "name": "solc",
    "version": "0.5.16+commit.9c3226ce.Emscripten.clang"
  },
  "schemaVersion": "3.3.3",
  "updatedAt": "2021-04-08T14:55:56.489Z",
  "networkType": "ethereum",
  "devdoc": {
    "methods": {}
  },
  "userdoc": {
    "methods": {}
  }
}