{
  "contractName": "Users",
  "abi": [
    {
      "inputs": [],
      "payable": false,
      "stateMutability": "nonpayable",
      "type": "constructor"
    },
    {
      "anonymous": false,
      "inputs": [
        {
          "indexed": false,
          "internalType": "address",
          "name": "admin",
          "type": "address"
        }
      ],
      "name": "registeredAdmin",
      "type": "event"
    },
    {
      "anonymous": false,
      "inputs": [
        {
          "indexed": false,
          "internalType": "address",
          "name": "doctor",
          "type": "address"
        }
      ],
      "name": "registeredDoctor",
      "type": "event"
    },
    {
      "anonymous": false,
      "inputs": [
        {
          "indexed": false,
          "internalType": "address",
          "name": "patient",
          "type": "address"
        }
      ],
      "name": "registeredPatient",
      "type": "event"
    },
    {
      "constant": true,
      "inputs": [
        {
          "internalType": "address",
          "name": "",
          "type": "address"
        }
      ],
      "name": "adminExists",
      "outputs": [
        {
          "internalType": "bool",
          "name": "",
          "type": "bool"
        }
      ],
      "payable": false,
      "stateMutability": "view",
      "type": "function"
    },
    {
      "constant": true,
      "inputs": [
        {
          "internalType": "uint256",
          "name": "",
          "type": "uint256"
        }
      ],
      "name": "admins",
      "outputs": [
        {
          "internalType": "uint256",
          "name": "adminId",
          "type": "uint256"
        },
        {
          "internalType": "address",
          "name": "adminAddress",
          "type": "address"
        }
      ],
      "payable": false,
      "stateMutability": "view",
      "type": "function"
    },
    {
      "constant": true,
      "inputs": [
        {
          "internalType": "address",
          "name": "",
          "type": "address"
        }
      ],
      "name": "doctorExists",
      "outputs": [
        {
          "internalType": "bool",
          "name": "",
          "type": "bool"
        }
      ],
      "payable": false,
      "stateMutability": "view",
      "type": "function"
    },
    {
      "constant": true,
      "inputs": [
        {
          "internalType": "uint256",
          "name": "",
          "type": "uint256"
        }
      ],
      "name": "doctors",
      "outputs": [
        {
          "internalType": "uint256",
          "name": "doctorId",
          "type": "uint256"
        },
        {
          "internalType": "address",
          "name": "doctorAddress",
          "type": "address"
        },
        {
          "internalType": "uint256",
          "name": "penaltyScore",
          "type": "uint256"
        },
        {
          "internalType": "uint256",
          "name": "appraisalScore",
          "type": "uint256"
        },
        {
          "internalType": "bool",
          "name": "blacklisted",
          "type": "bool"
        }
      ],
      "payable": false,
      "stateMutability": "view",
      "type": "function"
    },
    {
      "constant": true,
      "inputs": [
        {
          "internalType": "address",
          "name": "",
          "type": "address"
        }
      ],
      "name": "doctorsByAddress",
      "outputs": [
        {
          "internalType": "uint256",
          "name": "doctorId",
          "type": "uint256"
        },
        {
          "internalType": "address",
          "name": "doctorAddress",
          "type": "address"
        },
        {
          "internalType": "uint256",
          "name": "penaltyScore",
          "type": "uint256"
        },
        {
          "internalType": "uint256",
          "name": "appraisalScore",
          "type": "uint256"
        },
        {
          "internalType": "bool",
          "name": "blacklisted",
          "type": "bool"
        }
      ],
      "payable": false,
      "stateMutability": "view",
      "type": "function"
    },
    {
      "constant": true,
      "inputs": [],
      "name": "numAdmins",
      "outputs": [
        {
          "internalType": "uint256",
          "name": "",
          "type": "uint256"
        }
      ],
      "payable": false,
      "stateMutability": "view",
      "type": "function"
    },
    {
      "constant": true,
      "inputs": [],
      "name": "numDoctors",
      "outputs": [
        {
          "internalType": "uint256",
          "name": "",
          "type": "uint256"
        }
      ],
      "payable": false,
      "stateMutability": "view",
      "type": "function"
    },
    {
      "constant": true,
      "inputs": [],
      "name": "numPatients",
      "outputs": [
        {
          "internalType": "uint256",
          "name": "",
          "type": "uint256"
        }
      ],
      "payable": false,
      "stateMutability": "view",
      "type": "function"
    },
    {
      "constant": true,
      "inputs": [
        {
          "internalType": "address",
          "name": "",
          "type": "address"
        }
      ],
      "name": "patientExists",
      "outputs": [
        {
          "internalType": "bool",
          "name": "",
          "type": "bool"
        }
      ],
      "payable": false,
      "stateMutability": "view",
      "type": "function"
    },
    {
      "constant": true,
      "inputs": [
        {
          "internalType": "uint256",
          "name": "",
          "type": "uint256"
        }
      ],
      "name": "patients",
      "outputs": [
        {
          "internalType": "uint256",
          "name": "patientId",
          "type": "uint256"
        },
        {
          "internalType": "address",
          "name": "patientAddress",
          "type": "address"
        },
        {
          "internalType": "uint256",
          "name": "recordNumber",
          "type": "uint256"
        }
      ],
      "payable": false,
      "stateMutability": "view",
      "type": "function"
    },
    {
      "constant": false,
      "inputs": [],
      "name": "registerPatient",
      "outputs": [
        {
          "internalType": "uint256",
          "name": "",
          "type": "uint256"
        }
      ],
      "payable": false,
      "stateMutability": "nonpayable",
      "type": "function"
    },
    {
      "constant": false,
      "inputs": [
        {
          "internalType": "address",
          "name": "doctorAddress",
          "type": "address"
        }
      ],
      "name": "registerDoctor",
      "outputs": [
        {
          "internalType": "uint256",
          "name": "",
          "type": "uint256"
        }
      ],
      "payable": false,
      "stateMutability": "nonpayable",
      "type": "function"
    },
    {
      "constant": false,
      "inputs": [
        {
          "internalType": "address",
          "name": "adminAddress",
          "type": "address"
        }
      ],
      "name": "registerAdmin",
      "outputs": [
        {
          "internalType": "uint256",
          "name": "",
          "type": "uint256"
        }
      ],
      "payable": false,
      "stateMutability": "nonpayable",
      "type": "function"
    },
    {
      "constant": true,
      "inputs": [
        {
          "internalType": "address",
          "name": "user",
          "type": "address"
        }
      ],
      "name": "isPatient",
      "outputs": [
        {
          "internalType": "bool",
          "name": "",
          "type": "bool"
        }
      ],
      "payable": false,
      "stateMutability": "view",
      "type": "function"
    },
    {
      "constant": true,
      "inputs": [
        {
          "internalType": "address",
          "name": "user",
          "type": "address"
        }
      ],
      "name": "isDoctor",
      "outputs": [
        {
          "internalType": "bool",
          "name": "",
          "type": "bool"
        }
      ],
      "payable": false,
      "stateMutability": "view",
      "type": "function"
    },
    {
      "constant": true,
      "inputs": [
        {
          "internalType": "address",
          "name": "user",
          "type": "address"
        }
      ],
      "name": "isAdmin",
      "outputs": [
        {
          "internalType": "bool",
          "name": "",
          "type": "bool"
        }
      ],
      "payable": false,
      "stateMutability": "view",
      "type": "function"
    },
    {
      "constant": true,
      "inputs": [
        {
          "internalType": "uint256",
          "name": "patientId",
          "type": "uint256"
        }
      ],
      "name": "isExistingPatient",
      "outputs": [
        {
          "internalType": "bool",
          "name": "",
          "type": "bool"
        }
      ],
      "payable": false,
      "stateMutability": "view",
      "type": "function"
    },
    {
      "constant": true,
      "inputs": [
        {
          "internalType": "uint256",
          "name": "doctorId",
          "type": "uint256"
        }
      ],
      "name": "isExistingDoctor",
      "outputs": [
        {
          "internalType": "bool",
          "name": "",
          "type": "bool"
        }
      ],
      "payable": false,
      "stateMutability": "view",
      "type": "function"
    },
    {
      "constant": true,
      "inputs": [
        {
          "internalType": "uint256",
          "name": "patientId",
          "type": "uint256"
        }
      ],
      "name": "getPatientAddress",
      "outputs": [
        {
          "internalType": "address",
          "name": "",
          "type": "address"
        }
      ],
      "payable": false,
      "stateMutability": "view",
      "type": "function"
    },
    {
      "constant": true,
      "inputs": [
        {
          "internalType": "uint256",
          "name": "doctorId",
          "type": "uint256"
        }
      ],
      "name": "getDoctorAddress",
      "outputs": [
        {
          "internalType": "address",
          "name": "",
          "type": "address"
        }
      ],
      "payable": false,
      "stateMutability": "view",
      "type": "function"
    },
    {
      "constant": true,
      "inputs": [
        {
          "internalType": "address",
          "name": "user",
          "type": "address"
        }
      ],
      "name": "getDoctorId",
      "outputs": [
        {
          "internalType": "uint256",
          "name": "",
          "type": "uint256"
        }
      ],
      "payable": false,
      "stateMutability": "view",
      "type": "function"
    },
    {
      "constant": true,
      "inputs": [
        {
          "internalType": "uint256",
          "name": "patientId",
          "type": "uint256"
        }
      ],
      "name": "getRecordNumber",
      "outputs": [
        {
          "internalType": "uint256",
          "name": "",
          "type": "uint256"
        }
      ],
      "payable": false,
      "stateMutability": "view",
      "type": "function"
    },
    {
      "constant": true,
      "inputs": [
        {
          "internalType": "uint256",
          "name": "doctorId",
          "type": "uint256"
        }
      ],
      "name": "getPenaltyScore",
      "outputs": [
        {
          "internalType": "uint256",
          "name": "",
          "type": "uint256"
        }
      ],
      "payable": false,
      "stateMutability": "view",
      "type": "function"
    },
    {
      "constant": true,
      "inputs": [
        {
          "internalType": "uint256",
          "name": "doctorId",
          "type": "uint256"
        }
      ],
      "name": "getAppraisalScore",
      "outputs": [
        {
          "internalType": "uint256",
          "name": "",
          "type": "uint256"
        }
      ],
      "payable": false,
      "stateMutability": "view",
      "type": "function"
    },
    {
      "constant": false,
      "inputs": [
        {
          "internalType": "uint256",
          "name": "patientId",
          "type": "uint256"
        }
      ],
      "name": "addRecordCount",
      "outputs": [],
      "payable": false,
      "stateMutability": "nonpayable",
      "type": "function"
    },
    {
      "constant": false,
      "inputs": [
        {
          "internalType": "uint256",
          "name": "doctorId",
          "type": "uint256"
        },
        {
          "internalType": "uint256",
          "name": "score",
          "type": "uint256"
        }
      ],
      "name": "addPenaltyScore",
      "outputs": [],
      "payable": false,
      "stateMutability": "nonpayable",
      "type": "function"
    },
    {
      "constant": false,
      "inputs": [
        {
          "internalType": "uint256",
          "name": "doctorId",
          "type": "uint256"
        }
      ],
      "name": "addAppraisalScore",
      "outputs": [],
      "payable": false,
      "stateMutability": "nonpayable",
      "type": "function"
    },
    {
      "constant": false,
      "inputs": [
        {
          "internalType": "uint256",
          "name": "doctorId",
          "type": "uint256"
        }
      ],
      "name": "blacklistDoctor",
      "outputs": [],
      "payable": false,
      "stateMutability": "nonpayable",
      "type": "function"
    },
    {
      "constant": true,
      "inputs": [
        {
          "internalType": "uint256",
          "name": "doctorId",
          "type": "uint256"
        }
      ],
      "name": "isBlacklisted",
      "outputs": [
        {
          "internalType": "bool",
          "name": "",
          "type": "bool"
        }
      ],
      "payable": false,
      "stateMutability": "view",
      "type": "function"
    }
  ],
  "bytecode": "0x608060405260006001556000600255600060035534801561001f57600080fd5b50336000806101000a81548173ffffffffffffffffffffffffffffffffffffffff021916908373ffffffffffffffffffffffffffffffffffffffff1602179055506120a18061006f6000396000f3fe608060405234801561001057600080fd5b50600436106101cf5760003560e01c806376204930116101045780639be2d095116100a2578063c38c581311610071578063c38c5813146109ef578063cf901aed14610a47578063d8a4ae0a14610a89578063fb3bf34814610ab7576101cf565b80639be2d095146108b35780639f7af8c51461090f578063aea7dd2e14610955578063b9ee692014610997576101cf565b80638f9c79ed116100de5780638f9c79ed1461073957806393119a831461079557806396eeaf7614610811578063996440c614610857576101cf565b80637620493014610675578063822d3885146106ad578063834b5d47146106cb576101cf565b8063458333c2116101715780635c6a5bb11161014b5780635c6a5bb1146105435780635cdb52bf14610561578063699ca9981461058f5780636efb1b84146105e7576101cf565b8063458333c2146104735780634752f9ef146104a157806351710f03146104e7576101cf565b806314bfd6d0116101ad57806314bfd6d0146102a257806324d7806c14610317578063259fd8a3146103735780632ad230a914610417576101cf565b8063035cc22b146101d4578063097ee8cd146102165780630efd498914610284575b600080fd5b610200600480360360208110156101ea57600080fd5b8101908080359060200190929190505050610ad5565b6040518082815260200191505060405180910390f35b6102426004803603602081101561022c57600080fd5b8101908080359060200190929190505050610c4d565b604051808273ffffffffffffffffffffffffffffffffffffffff1673ffffffffffffffffffffffffffffffffffffffff16815260200191505060405180910390f35b61028c610d0e565b6040518082815260200191505060405180910390f35b6102ce600480360360208110156102b857600080fd5b8101908080359060200190929190505050610d14565b604051808381526020018273ffffffffffffffffffffffffffffffffffffffff1673ffffffffffffffffffffffffffffffffffffffff1681526020019250505060405180910390f35b6103596004803603602081101561032d57600080fd5b81019080803573ffffffffffffffffffffffffffffffffffffffff169060200190929190505050610d58565b604051808215151515815260200191505060405180910390f35b6103b56004803603602081101561038957600080fd5b81019080803573ffffffffffffffffffffffffffffffffffffffff169060200190929190505050610e0d565b604051808681526020018573ffffffffffffffffffffffffffffffffffffffff1673ffffffffffffffffffffffffffffffffffffffff168152602001848152602001838152602001821515151581526020019550505050505060405180910390f35b6104596004803603602081101561042d57600080fd5b81019080803573ffffffffffffffffffffffffffffffffffffffff169060200190929190505050610e70565b604051808215151515815260200191505060405180910390f35b61049f6004803603602081101561048957600080fd5b8101908080359060200190929190505050610e90565b005b6104cd600480360360208110156104b757600080fd5b8101908080359060200190929190505050610f43565b604051808215151515815260200191505060405180910390f35b610529600480360360208110156104fd57600080fd5b81019080803573ffffffffffffffffffffffffffffffffffffffff169060200190929190505050610ff1565b604051808215151515815260200191505060405180910390f35b61054b611011565b6040518082815260200191505060405180910390f35b61058d6004803603602081101561057757600080fd5b8101908080359060200190929190505050611017565b005b6105d1600480360360208110156105a557600080fd5b81019080803573ffffffffffffffffffffffffffffffffffffffff1690602001909291905050506110c0565b6040518082815260200191505060405180910390f35b610613600480360360208110156105fd57600080fd5b810190808035906020019092919050505061144c565b604051808681526020018573ffffffffffffffffffffffffffffffffffffffff1673ffffffffffffffffffffffffffffffffffffffff168152602001848152602001838152602001821515151581526020019550505050505060405180910390f35b6106ab6004803603604081101561068b57600080fd5b8101908080359060200190929190803590602001909291905050506114af565b005b6106b5611558565b6040518082815260200191505060405180910390f35b6106f7600480360360208110156106e157600080fd5b81019080803590602001909291905050506117a7565b604051808273ffffffffffffffffffffffffffffffffffffffff1673ffffffffffffffffffffffffffffffffffffffff16815260200191505060405180910390f35b61077b6004803603602081101561074f57600080fd5b81019080803573ffffffffffffffffffffffffffffffffffffffff169060200190929190505050611868565b604051808215151515815260200191505060405180910390f35b6107c1600480360360208110156107ab57600080fd5b81019080803590602001909291905050506118be565b604051808481526020018373ffffffffffffffffffffffffffffffffffffffff1673ffffffffffffffffffffffffffffffffffffffff168152602001828152602001935050505060405180910390f35b61083d6004803603602081101561082757600080fd5b8101908080359060200190929190505050611908565b604051808215151515815260200191505060405180910390f35b6108996004803603602081101561086d57600080fd5b81019080803573ffffffffffffffffffffffffffffffffffffffff169060200190929190505050611998565b604051808215151515815260200191505060405180910390f35b6108f5600480360360208110156108c957600080fd5b81019080803573ffffffffffffffffffffffffffffffffffffffff1690602001909291905050506119ee565b604051808215151515815260200191505060405180910390f35b61093b6004803603602081101561092557600080fd5b8101908080359060200190929190505050611a0e565b604051808215151515815260200191505060405180910390f35b6109816004803603602081101561096b57600080fd5b8101908080359060200190929190505050611a9e565b6040518082815260200191505060405180910390f35b6109d9600480360360208110156109ad57600080fd5b81019080803573ffffffffffffffffffffffffffffffffffffffff169060200190929190505050611b3f565b6040518082815260200191505060405180910390f35b610a3160048036036020811015610a0557600080fd5b81019080803573ffffffffffffffffffffffffffffffffffffffff169060200190929190505050611c51565b6040518082815260200191505060405180910390f35b610a7360048036036020811015610a5d57600080fd5b8101908080359060200190929190505050611eca565b6040518082815260200191505060405180910390f35b610ab560048036036020811015610a9f57600080fd5b8101908080359060200190929190505050611f6b565b005b610abf611f93565b6040518082815260200191505060405180910390f35b60008160011515816001541015151514610b57576040517f08c379a00000000000000000000000000000000000000000000000000000000081526004018080602001828103825260178152602001807f50617469656e7420646f6573206e6f742065786973742e00000000000000000081525060200191505060405180910390fd5b3373ffffffffffffffffffffffffffffffffffffffff166006600085815260200190815260200160002060010160009054906101000a900473ffffffffffffffffffffffffffffffffffffffff1673ffffffffffffffffffffffffffffffffffffffff1614610c2e576040517f08c379a00000000000000000000000000000000000000000000000000000000081526004018080602001828103825260178152602001807f4e6f7420617574686f726973656420746f20766965772e00000000000000000081525060200191505060405180910390fd5b6006600084815260200190815260200160002060020154915050919050565b60008160011515816001541015151514610ccf576040517f08c379a00000000000000000000000000000000000000000000000000000000081526004018080602001828103825260178152602001807f50617469656e7420646f6573206e6f742065786973742e00000000000000000081525060200191505060405180910390fd5b6006600084815260200190815260200160002060010160009054906101000a900473ffffffffffffffffffffffffffffffffffffffff16915050919050565b60035481565b60046020528060005260406000206000915090508060000154908060010160009054906101000a900473ffffffffffffffffffffffffffffffffffffffff16905082565b60008060009054906101000a900473ffffffffffffffffffffffffffffffffffffffff1673ffffffffffffffffffffffffffffffffffffffff168273ffffffffffffffffffffffffffffffffffffffff161415610db85760019050610e08565b600560008373ffffffffffffffffffffffffffffffffffffffff1673ffffffffffffffffffffffffffffffffffffffff16815260200190815260200160002060009054906101000a900460ff1690505b919050565b60096020528060005260406000206000915090508060000154908060010160009054906101000a900473ffffffffffffffffffffffffffffffffffffffff16908060020154908060030154908060040160009054906101000a900460ff16905085565b600a6020528060005260406000206000915054906101000a900460ff1681565b8060011515816002541015151514610f10576040517f08c379a00000000000000000000000000000000000000000000000000000000081526004018080602001828103825260168152602001807f446f63746f7220646f6573206e6f742065786973742e0000000000000000000081525060200191505060405180910390fd5b60016008600084815260200190815260200160002060040160006101000a81548160ff0219169083151502179055505050565b60008160011515816002541015151514610fc5576040517f08c379a00000000000000000000000000000000000000000000000000000000081526004018080602001828103825260168152602001807f446f63746f7220646f6573206e6f742065786973742e0000000000000000000081525060200191505060405180910390fd5b6008600084815260200190815260200160002060040160009054906101000a900460ff16915050919050565b60076020528060005260406000206000915054906101000a900460ff1681565b60025481565b8060011515816002541015151514611097576040517f08c379a00000000000000000000000000000000000000000000000000000000081526004018080602001828103825260168152602001807f446f63746f7220646f6573206e6f742065786973742e0000000000000000000081525060200191505060405180910390fd5b600160086000848152602001908152602001600020600301600082825401925050819055505050565b600060011515600560003373ffffffffffffffffffffffffffffffffffffffff1673ffffffffffffffffffffffffffffffffffffffff16815260200190815260200160002060009054906101000a900460ff161515148061116d57506000809054906101000a900473ffffffffffffffffffffffffffffffffffffffff1673ffffffffffffffffffffffffffffffffffffffff163373ffffffffffffffffffffffffffffffffffffffff16145b6111c2576040517f08c379a00000000000000000000000000000000000000000000000000000000081526004018080602001828103825260258152602001806120486025913960400191505060405180910390fd5b6000600260008154809291906001019190505590506111df611f99565b6040518060a001604052808381526020018573ffffffffffffffffffffffffffffffffffffffff168152602001600081526020016000815260200160001515815250905080600860008481526020019081526020016000206000820151816000015560208201518160010160006101000a81548173ffffffffffffffffffffffffffffffffffffffff021916908373ffffffffffffffffffffffffffffffffffffffff160217905550604082015181600201556060820151816003015560808201518160040160006101000a81548160ff0219169083151502179055509050506001600a60008673ffffffffffffffffffffffffffffffffffffffff1673ffffffffffffffffffffffffffffffffffffffff16815260200190815260200160002060006101000a81548160ff02191690831515021790555080600960008673ffffffffffffffffffffffffffffffffffffffff1673ffffffffffffffffffffffffffffffffffffffff1681526020019081526020016000206000820151816000015560208201518160010160006101000a81548173ffffffffffffffffffffffffffffffffffffffff021916908373ffffffffffffffffffffffffffffffffffffffff160217905550604082015181600201556060820151816003015560808201518160040160006101000a81548160ff0219169083151502179055509050507f03de501f354aef75c8d06ec08f31714a24818ac15c8bb0e10b5e846a339d5fac84604051808273ffffffffffffffffffffffffffffffffffffffff1673ffffffffffffffffffffffffffffffffffffffff16815260200191505060405180910390a18192505050919050565b60086020528060005260406000206000915090508060000154908060010160009054906101000a900473ffffffffffffffffffffffffffffffffffffffff16908060020154908060030154908060040160009054906101000a900460ff16905085565b816001151581600254101515151461152f576040517f08c379a00000000000000000000000000000000000000000000000000000000081526004018080602001828103825260168152602001807f446f63746f7220646f6573206e6f742065786973742e0000000000000000000081525060200191505060405180910390fd5b816008600085815260200190815260200160002060020160008282540192505081905550505050565b600060011515600760003373ffffffffffffffffffffffffffffffffffffffff1673ffffffffffffffffffffffffffffffffffffffff16815260200190815260200160002060009054906101000a900460ff1615151415611621576040517f08c379a000000000000000000000000000000000000000000000000000000000815260040180806020018281038252601d8152602001807f4164647265737320697320616c726561647920612070617469656e742e00000081525060200191505060405180910390fd5b60006001600081548092919060010191905055905061163e611fe0565b60405180606001604052808381526020013373ffffffffffffffffffffffffffffffffffffffff1681526020016000815250905080600660008481526020019081526020016000206000820151816000015560208201518160010160006101000a81548173ffffffffffffffffffffffffffffffffffffffff021916908373ffffffffffffffffffffffffffffffffffffffff160217905550604082015181600201559050506001600760003373ffffffffffffffffffffffffffffffffffffffff1673ffffffffffffffffffffffffffffffffffffffff16815260200190815260200160002060006101000a81548160ff0219169083151502179055507f59ba2fa90869a7d8434091965c193d9c7d736330db80a18bc11c7d60ed14b0cb33604051808273ffffffffffffffffffffffffffffffffffffffff1673ffffffffffffffffffffffffffffffffffffffff16815260200191505060405180910390a1819250505090565b60008160011515816002541015151514611829576040517f08c379a00000000000000000000000000000000000000000000000000000000081526004018080602001828103825260168152602001807f446f63746f7220646f6573206e6f742065786973742e0000000000000000000081525060200191505060405180910390fd5b6008600084815260200190815260200160002060010160009054906101000a900473ffffffffffffffffffffffffffffffffffffffff16915050919050565b6000600760008373ffffffffffffffffffffffffffffffffffffffff1673ffffffffffffffffffffffffffffffffffffffff16815260200190815260200160002060009054906101000a900460ff169050919050565b60066020528060005260406000206000915090508060000154908060010160009054906101000a900473ffffffffffffffffffffffffffffffffffffffff16908060020154905083565b6000816001151581600254101515151461198a576040517f08c379a00000000000000000000000000000000000000000000000000000000081526004018080602001828103825260168152602001807f446f63746f7220646f6573206e6f742065786973742e0000000000000000000081525060200191505060405180910390fd5b600254831115915050919050565b6000600a60008373ffffffffffffffffffffffffffffffffffffffff1673ffffffffffffffffffffffffffffffffffffffff16815260200190815260200160002060009054906101000a900460ff169050919050565b60056020528060005260406000206000915054906101000a900460ff1681565b60008160011515816001541015151514611a90576040517f08c379a00000000000000000000000000000000000000000000000000000000081526004018080602001828103825260178152602001807f50617469656e7420646f6573206e6f742065786973742e00000000000000000081525060200191505060405180910390fd5b600154831115915050919050565b60008160011515816002541015151514611b20576040517f08c379a00000000000000000000000000000000000000000000000000000000081526004018080602001828103825260168152602001807f446f63746f7220646f6573206e6f742065786973742e0000000000000000000081525060200191505060405180910390fd5b6008600084815260200190815260200160002060030154915050919050565b600060011515600a60008473ffffffffffffffffffffffffffffffffffffffff1673ffffffffffffffffffffffffffffffffffffffff16815260200190815260200160002060009054906101000a900460ff16151514611c07576040517f08c379a00000000000000000000000000000000000000000000000000000000081526004018080602001828103825260158152602001807f55736572206973206e6f74206120646f63746f722e000000000000000000000081525060200191505060405180910390fd5b600960008373ffffffffffffffffffffffffffffffffffffffff1673ffffffffffffffffffffffffffffffffffffffff168152602001908152602001600020600001549050919050565b600060011515600560003373ffffffffffffffffffffffffffffffffffffffff1673ffffffffffffffffffffffffffffffffffffffff16815260200190815260200160002060009054906101000a900460ff1615151480611cfe57506000809054906101000a900473ffffffffffffffffffffffffffffffffffffffff1673ffffffffffffffffffffffffffffffffffffffff163373ffffffffffffffffffffffffffffffffffffffff16145b611d53576040517f08c379a00000000000000000000000000000000000000000000000000000000081526004018080602001828103825260258152602001806120486025913960400191505060405180910390fd5b600060036000815480929190600101919050559050611d70612017565b60405180604001604052808381526020018573ffffffffffffffffffffffffffffffffffffffff16815250905080600460008481526020019081526020016000206000820151816000015560208201518160010160006101000a81548173ffffffffffffffffffffffffffffffffffffffff021916908373ffffffffffffffffffffffffffffffffffffffff1602179055509050506001600560008673ffffffffffffffffffffffffffffffffffffffff1673ffffffffffffffffffffffffffffffffffffffff16815260200190815260200160002060006101000a81548160ff0219169083151502179055507f3c36ffaebd73fd051200179ef62bb400c708f4311d1a2e4779a3c2bde936360884604051808273ffffffffffffffffffffffffffffffffffffffff1673ffffffffffffffffffffffffffffffffffffffff16815260200191505060405180910390a18192505050919050565b60008160011515816002541015151514611f4c576040517f08c379a00000000000000000000000000000000000000000000000000000000081526004018080602001828103825260168152602001807f446f63746f7220646f6573206e6f742065786973742e0000000000000000000081525060200191505060405180910390fd5b6008600084815260200190815260200160002060020154915050919050565b6001600660008381526020019081526020016000206002016000828254019250508190555050565b60015481565b6040518060a0016040528060008152602001600073ffffffffffffffffffffffffffffffffffffffff16815260200160008152602001600081526020016000151581525090565b604051806060016040528060008152602001600073ffffffffffffffffffffffffffffffffffffffff168152602001600081525090565b604051806040016040528060008152602001600073ffffffffffffffffffffffffffffffffffffffff168152509056fe4f6e6c792061646d696e2063616e20706572666f726d20746869732066756e6374696f6e2ea265627a7a72315820d0ee98c43d07d62b9340609f1e9ca6cb25721280e93e4e27f5b195031e26940f64736f6c63430005100032",
  "source": "//pragma solidity ^0.5.0;\npragma solidity >=0.4.21 <0.7.0; // version 6 is required for truffle build\n\ncontract Users {\n    address masterAdmin;\n\n    constructor() public {\n        masterAdmin = msg.sender;\n    }\n\n    // patient structure\n    struct patient {\n        uint256 patientId;\n        address patientAddress;\n        uint256 recordNumber;\n    }\n\n    // doctor structure\n    struct doctor {\n        uint256 doctorId;\n        address doctorAddress;\n        uint256 penaltyScore;\n        uint256 appraisalScore;\n        bool blacklisted;\n    }\n\n    // admin structure\n    struct admin {\n        uint256 adminId;\n        address adminAddress;\n    }\n\n    // user structure\n    uint256 public numPatients = 0;\n    uint256 public numDoctors = 0;\n    uint256 public numAdmins = 0;\n\n    mapping(uint256 => admin) public admins;\n    mapping(address => bool) public adminExists;\n\n    mapping(uint256 => patient) public patients;\n    mapping(address => bool) public patientExists;\n    mapping(uint256 => doctor) public doctors;\n    mapping(address => doctor) public doctorsByAddress;\n    mapping(address => bool) public doctorExists;\n\n    // user events\n    event registeredPatient(address patient);\n    event registeredDoctor(address doctor);\n    event registeredAdmin(address admin);\n\n    // user modifiers\n    modifier adminOnly() {\n        // we might have to add more admins later\n        require(\n            adminExists[msg.sender] == true || msg.sender == masterAdmin,\n            \"Only admin can perform this function.\"\n        );\n        _;\n    }\n\n    modifier doctorExist(uint256 doctorId) {\n        require(numDoctors >= doctorId == true, \"Doctor does not exist.\");\n        _;\n    }\n\n    modifier patientExist(uint256 patientId) {\n        require(numPatients >= patientId == true, \"Patient does not exist.\");\n        _;\n    }\n\n    // user functions\n\n    // function to add and register patient\n    function registerPatient() public returns (uint256) {\n        require(\n            patientExists[msg.sender] != true,\n            \"Address is already a patient.\"\n        );\n        uint256 newPatientId = numPatients++;\n\n        patient memory newPatient = patient(newPatientId, msg.sender, 0);\n\n        patients[newPatientId] = newPatient;\n        patientExists[msg.sender] = true;\n        emit registeredPatient(msg.sender);\n        return newPatientId;\n    }\n\n    // function to add and register doctor\n    function registerDoctor(address doctorAddress)\n        public\n        adminOnly()\n        returns (uint256)\n    {\n        uint256 newDoctorId = numDoctors++;\n\n        doctor memory newDoctor =\n            doctor(newDoctorId, doctorAddress, 0, 0, false);\n\n        doctors[newDoctorId] = newDoctor;\n        doctorExists[doctorAddress] = true;\n        doctorsByAddress[doctorAddress] = newDoctor;\n        emit registeredDoctor(doctorAddress);\n        return newDoctorId;\n    }\n\n    //function to add and register admin\n    function registerAdmin(address adminAddress)\n        public\n        adminOnly()\n        returns (uint256)\n    {\n        uint256 newAdminId = numAdmins++;\n\n        admin memory newAdmin = admin(newAdminId, adminAddress);\n\n        admins[newAdminId] = newAdmin;\n        adminExists[adminAddress] = true;\n        emit registeredAdmin(adminAddress);\n        return newAdminId;\n    }\n\n    // function to see if address is a patient\n    function isPatient(address user) public view returns (bool) {\n        return patientExists[user];\n    }\n\n    // function to see if address is a doctor\n    function isDoctor(address user) public view returns (bool) {\n        return doctorExists[user];\n    }\n\n    // function to see if address is an admin\n    function isAdmin(address user) public view returns (bool) {\n        if (user == masterAdmin) {\n            return true;\n        }\n        return adminExists[user];\n    }\n\n    // function to see if patient exists\n    function isExistingPatient(uint256 patientId)\n        public\n        view\n        patientExist(patientId)\n        returns (bool)\n    {\n        return patientId <= numPatients;\n    }\n\n    // function to see if doctor exists\n    function isExistingDoctor(uint256 doctorId)\n        public\n        view\n        doctorExist(doctorId)\n        returns (bool)\n    {\n        return doctorId <= numDoctors;\n    }\n\n    // function to get patient\n    function getPatientAddress(uint256 patientId)\n        public\n        view\n        patientExist(patientId)\n        returns (address)\n    {\n        return patients[patientId].patientAddress;\n    }\n\n    // function to get doctor\n    function getDoctorAddress(uint256 doctorId)\n        public\n        view\n        doctorExist(doctorId)\n        returns (address)\n    {\n        return doctors[doctorId].doctorAddress;\n    }\n\n    // function to get doctor id by address\n    function getDoctorId(address user) public view returns (uint256) {\n        require(doctorExists[user] == true, \"User is not a doctor.\");\n        return doctorsByAddress[user].doctorId;\n    }\n\n    // function to check patient's number of records\n    function getRecordNumber(uint256 patientId)\n        public\n        view\n        patientExist(patientId)\n        returns (uint256)\n    {\n        // not sure if this requirement is too strict\n        require(\n            patients[patientId].patientAddress == msg.sender,\n            \"Not authorised to view.\"\n        );\n\n        return patients[patientId].recordNumber;\n    }\n\n    // function to check doctor's penalty score\n    function getPenaltyScore(uint256 doctorId)\n        public\n        view\n        doctorExist(doctorId)\n        returns (uint256)\n    {\n        return doctors[doctorId].penaltyScore;\n    }\n\n    // function to check doctor's appraisal score\n    function getAppraisalScore(uint256 doctorId)\n        public\n        view\n        doctorExist(doctorId)\n        returns (uint256)\n    {\n        return doctors[doctorId].appraisalScore;\n    }\n\n    // function to add medical record count to patient\n    function addRecordCount(uint256 patientId) public {\n        patients[patientId].recordNumber += 1;\n    }\n\n    // function to add penalty score\n    function addPenaltyScore(uint256 doctorId, uint256 score)\n        external\n        doctorExist(doctorId)\n    {\n        doctors[doctorId].penaltyScore += score;\n    }\n\n    // function to add appraisal score\n    function addAppraisalScore(uint256 doctorId)\n        external\n        doctorExist(doctorId)\n    {\n        doctors[doctorId].appraisalScore += 1;\n    }\n\n    // function to blacklist doctor\n    function blacklistDoctor(uint256 doctorId) external doctorExist(doctorId) {\n        doctors[doctorId].blacklisted = true;\n    }\n\n    // function to check if doctor is blacklisted\n    function isBlacklisted(uint256 doctorId)\n        public\n        view\n        doctorExist(doctorId)\n        returns (bool)\n    {\n        return doctors[doctorId].blacklisted;\n    }\n}\n",
  "sourcePath": "/Users/zihua/Desktop/NUS/Files/3.2/IS4302/Project/is4302proj/contracts/Users.sol",
  "compiler": {
    "name": "solc",
    "version": "0.5.16+commit.9c3226ce.Emscripten.clang"
  },
  "schemaVersion": "3.3.3",
  "updatedAt": "2021-04-04T13:24:59.715Z",
  "networkType": "ethereum",
  "devdoc": {
    "methods": {}
  },
  "userdoc": {
    "methods": {}
  }
}